:020000040800F2
:10000000C83C0020C9010008F30500084D050008A0
:1000100089050008850300081F4E00080000000045
:10002000000000000000000000000000A14B0008DC
:100030002D04000800000000DB020008B54C000899
:10004000E3010008E3010008E3010008E301000800
:10005000E3010008E3010008E3010008E3010008F0
:10006000E3010008E3010008E3010008E3010008E0
:10007000E3010008E3010008E3010008E3010008D0
:10008000E3010008E3010008E3010008E3010008C0
:10009000E3010008E3010008E3010008E3010008B0
:1000A000E3010008E3010008E3010008E3010008A0
:1000B000E3010008E3010008E3010008E301000890
:1000C000E3010008E3010008E3010008E301000880
:1000D000E3010008314D0008E3010008E3010008D6
:1000E000E3010008E3010008E301000800F002F862
:1000F00000F05AF80AA090E8000C82448344AAF168
:100100000107DA4501D100F04FF8AFF2090EBAE865
:100110000F0013F0010F18BFFB1A43F0010318473B
:10012000E8530000085400000A444FF0000C10F897
:10013000013B13F0070408BF10F8014B1D1108BF65
:1001400010F8015B641E05D010F8016B641E01F805
:10015000016BF9D113F0080F1EBF10F8014BAD1C55
:100160000C1B09D16D1E58BF01F801CBFAD505E073
:1001700014F8016B01F8016B6D1EF9D59142D6D3CD
:10018000704700000023002400250026103A28BFF5
:1001900078C1FBD8520728BF30C148BF0B607047F9
:1001A0001FB51FBD10B510BD00F04DF81146FFF78B
:1001B000F7FF04F02FFF00F06BF803B4FFF7F2FF36
:1001C00003BC04F02EFE00000948804709480047A0
:1001D000FEE7FEE7FEE7FEE7FEE7FEE7FEE7FEE7F7
:1001E000FEE7FEE704480549054A064B7047000054
:1001F000D14C0008ED000008C8360020C83C0020A3
:10020000C8380020C838002072B6704762B6704700
:10021000EFF3108072B6704780F31088704730BFDC
:10022000704720BF7047B0FA80F0704790FAA0F096
:10023000B0FA80F0704790FAA0F0704770477047AE
:10024000704770477047754600F028F8AE460500C5
:100250006946534620F00700854618B020B5FFF7E1
:10026000C1FFBDE820404FF000064FF000074FF0FF
:1002700000084FF0000B21F00701AC46ACE8C009C4
:10028000ACE8C009ACE8C009ACE8C0098D467047CD
:100290000446AFF300802046FFF78FFF0048704709
:1002A000643600201D484FF6FF710170002080F376
:1002B00009881B48016881F308881A484FF080516B
:1002C000016062B6FEE717484FF080510160704749
:1002D00014484FF080510160704772B6EFF3098007
:1002E00028B1203880E8F00F0F490968086000B590
:1002F0000E4880475DF804EB0D480E490A780270FD
:1003000009480D490A680260106890E8F00F203033
:1003100080F309884EF0040E62B6704722ED00E0CB
:10032000E804002004ED00E0E0040020751A000855
:100330006E0400206F040020E404002008B50121B1
:10034000102004F0B3FB4FF48040ADF80000102003
:100350008DF8030003208DF802006946044800F080
:1003600066F84FF48041024800F0ECF808BD000048
:100370000010014000B585B0684604F0A7FB019865
:1003800005B000BD00BFFEE710B500F01FF800F09B
:1003900019F810BD10B5002400BF00BFFFF738FFEB
:1003A000044600BF00BF1021054800F0EFF800BF71
:1003B00000BF2046FFF730FF00BF00BF10BD0000A8
:1003C0001C1A002010B5FFF7E5FF10BD10B5002086
:1003D0000249086000F00AF810BD00001404002073
:1003E00001490860704700001404002010B5FFF7B1
:1003F000C1FF04460848006840F080700649086064
:100400000020064948600846006840F00100086086
:100410002046FFF7E5FF10BDFCED00E0001000E016
:100420000149486870470000001000E070472DE95E
:10043000F04102460025002600200023002400276A
:1004400091F803C00CF00F0591F803C00CF0100CEC
:10045000BCF1000F03D091F802C04CEA050591F8F9
:1004600000C0BCF1000F31D0146800202BE04FF029
:10047000010C0CFA00F3B1F800C00CEA03069E422E
:1004800020D183004FF00F0C0CFA03F7BC4305FAA0
:1004900003FC4CEA040491F803C0BCF1280F06D118
:1004A0004FF0010C0CFA00FCC2F814C00AE091F8FD
:1004B00003C0BCF1480F05D14FF0010C0CFA00FC51
:1004C000C2F810C0401C0828D1D31460B1F800C095
:1004D000BCF1FF0F34DD546800202EE000F1080C61
:1004E0004FF0010808FA0CF3B1F800C00CEA03065B
:1004F0009E4221D183004FF00F0C0CFA03F7BC434E
:1005000005FA03FC4CEA040491F803C0BCF1280F7F
:1005100005D100F1080C08FA0CF8C2F8148091F823
:1005200003C0BCF1480F07D100F1080C4FF00108DF
:1005300008FA0CF8C2F81080401C0828CED354608A
:10054000BDE8F081416170470161704700BFFEE77F
:1005500008B50121102004F0A9FA4FF40050ADF8BD
:10056000000010208DF8030003208DF8020069467A
:100570000448FFF75CFF4FF400510248FFF7E4FF27
:1005800008BD00000010014000BFFEE730B5054681
:100590000C4622460021284600F001F830BD2DE926
:1005A000F04105460B4694460027002402E03F0236
:1005B0001F43641C042CFAD3604605F00306294649
:1005C00046B1344603E001F8013B401E641C08B10B
:1005D000042CF8D30A4601E080C2001F0428FBD295
:1005E000114602E001F8013B401E0028FAD1BDE8A7
:1005F000F081704702490143024A116070470000D0
:100600000000FA050CED00E070B5002419E004F1DB
:10061000B001C8B2002100F03BF90021084600F00B
:1006200037F90021102000F033F9002505E0012101
:10063000002000F02DF9681CC5B2802DF7DB601C8E
:10064000C4B2082CE3DB70BD10B5044624B9002108
:10065000A62000F01DF903E00021A72000F018F902
:1006600010BD000008B50121042004F01FFA10207D
:100670008DF80300A020ADF8000003208DF80200E3
:1006800069464848FFF7D3FEA0214648FFF75CFFC4
:100690000121082004F00AFA10208DF8030003203D
:1006A000ADF800008DF8020069463F48FFF7BFFE35
:1006B00003213D48FFF748FF00F09EF80021AE20DF
:1006C00000F0E6F80021084600F0E2F800211020D2
:1006D00000F0DEF80021402000F0DAF8002181204F
:1006E00000F0D6F80021CF2000F0D2F80021A120A0
:1006F00000F0CEF80021C82000F0CAF80021A620A2
:1007000000F0C6F80021A82000F0C2F800213F2028
:1007100000F0BEF80021D32000F0BAF8002108460E
:1007200000F0B6F80021D52000F0B2F800218020BA
:1007300000F0AEF80021D92000F0AAF80021F12045
:1007400000F0A6F80021DA2000F0A2F80021122023
:1007500000F09EF80021DB2000F09AF800214020F4
:1007600000F096F80021202000F092F800210220ED
:1007700000F08EF800218D2000F08AF8002114206E
:1007800000F086F80021A42000F082F80021A620C5
:1007900000F07EF80021AF2000F07AF8FFF734FF78
:1007A00008BD000000080140000C014070B50024A5
:1007B0001CE004F1B001C8B2002100F069F800218A
:1007C000084600F065F80021102000F061F80025CF
:1007D00008E0084901EBC501085D012100F058F867
:1007E000681CC5B2802DF4DB601CC4B2082CE0DBB1
:1007F00070BD00001C16002010B501210848FFF74D
:10080000A3FE642004F07AFB01210548FFF79AFE5D
:10081000642004F073FB01210148FFF795FE10BD31
:10082000000C01402DE9F05F04460E46174698463D
:10083000DDF828A04FF0000BD9460025354622E010
:1008400005F1B001C8B2002100F022F8102141EA00
:100850001410002100F01CF804F00F00002100F03B
:1008600017F8A1460BE059460BF1010B1AF80100ED
:10087000012100F00DF809F1010000F0FF09B94570
:10088000F1DB681CC5B24545DADBBDE8F09F00002E
:1008900070B504460E4602211248FFF753FE1EB102
:1008A00002211048FFF750FE002517E020210E48D6
:1008B000FFF748FE04F0800020B180210A48FFF7CE
:1008C00043FE03E080210848FFF73CFE2021064854
:1008D000FFF73AFE6006040E681CC5B2082DE5DB82
:1008E00070BD0000000C014000080140154816488A
:1008F00016481748174818481848194819481A48F8
:100900001A481B481B481C481C481D481D481E48C7
:100910001E481F481F482048204821482148224897
:100920002248234823482448244825482548264867
:10093000264827482748284828482948294800BFEA
:100940007047000098530008F8520008FC52000855
:100950000053000804530008085300080C53000813
:100960001053000814530008185300081C530008C3
:100970002053000824530008285300082C53000873
:100980003053000834530008385300083C53000823
:100990004053000844530008485300084C530008D3
:1009A0005053000854530008585300085C53000883
:1009B0006053000864530008685300086C53000833
:1009C0007053000874530008785300087C530008E3
:1009D0008053000884530008885300088C53000893
:1009E000905300089453000810B50348006810B1F4
:1009F00001480068804710BD2C04002070B50446F3
:100A000000F0C2F800204849087048490870484979
:100A100008704849086048490860484908704849D2
:100A200008704849087048490860484908604849C2
:100A3000086048490870484800680A21B0FBF1F096
:100A4000464908604648006858B14648056845B1BF
:100A50004348066803E0761E002028602D1D002E06
:100A6000F9D10020404908604049086040490860C9
:100A700040490860404908604049086040490860B2
:100A80004049087002F02EF902F00EFA204601F0FB
:100A9000BDFA208800B170BD204601F09FFE20887D
:100AA00000B1F8E7204601F0C1FE208800B1F2E76E
:100AB000204601F08DFF208800B1ECE7204602F0CF
:100AC00041F9208800B1E6E7204602F065FB208866
:100AD00000B1E0E7204602F087FE208800B1DAE7A7
:100AE000204601F0E7FD208800B1D4E7204601F060
:100AF000FFFB208800B1CEE7204603F0E5FD20880B
:100B000000B1C8E7204602F0B3FD208800B1C2E77B
:100B1000204603F035FE208800B1BCE701F09EF9C5
:100B2000FFF7E4FE00BFB6E74004002041040020C8
:100B300088040020E0040020E40400206E0400206B
:100B40006F040020700400207C040020800400203A
:100B50008404002090040020585300088C040020D6
:100B600028530008245300082004002024040020F7
:100B7000280400202C04002030040020340400202D
:100B800038040020BE0400200A4A1168002002E058
:100B9000002204C1401C084A12689042F8D3054A5A
:100BA0001268054B1B6802EB8302121F034B1A608D
:100BB000704700002453000828530008E804002070
:100BC00008480078012800D0704707480078FA28C4
:100BD00000DBF9E704480078401C0349087000BFB7
:100BE000F2E70000410400204004002010B500247A
:100BF0002E480078012800D010BD00BFFFF708FB89
:100C0000044600BF2A48007828B900BF2046FFF7F5
:100C100003FB00BFF0E726480078401E2449087017
:100C200008460078002805DD00BF2046FFF7F4FAEB
:100C300000BFE1E71F480078002805DD00BF20461F
:100C4000FFF7EAFA00BFD7E702F038F81A49087050
:100C50000846007800EB4000184951F82000184978
:100C600008600846006817490968884205D100BF36
:100C70002046FFF7D1FA00BFBEE711480068D0F860
:100C80009000401C0E490968C1F890000E480068A9
:100C9000401C0D4908604FF080500C49086000BFAF
:100CA0002046FFF7B9FA00BF00BFA5E741040020C6
:100CB00040040020880400206F04002050300020F1
:100CC000E4040020E0040020B404002004ED00E06F
:100CD00010B5002420480078002800DD10BD1F4812
:100CE0000078002800DDF9E700BFFFF791FA04461D
:100CF00000BF01F0E3FF1A4908700846007800EBD6
:100D00004000184951F8200017490860084600685B
:100D100016490968884205D100BF2046FFF77CFAD2
:100D200000BFDBE710480068D0F89000401C0E4977
:100D30000968C1F890000E480068401C0C49086022
:100D40004FF080500B49086000BF2046FFF764FA5F
:100D500000BF00BFC2E7000040040020880400205C
:100D60006F04002050300020E4040020E004002044
:100D7000B404002004ED00E070B5044600251848D6
:100D80000078002803DD46F66250208070BD1548CB
:100D90000078012803D045F689602080F6E71248E4
:100DA0000078FA2803DB45F209202080EEE700BF37
:100DB00000BFFFF72DFA054600BF00BF0A480078C4
:100DC000401C0949087002F053F900BF00BF2846D3
:100DD000FFF722FA00BF00BF0020208000BFD5E748
:100DE0004004002041040020880400202DE9F04147
:100DF00005460C461646002700BF00BFFFF708FA5D
:100E0000074600BF00BF012D03D000200D49087028
:100E100002E001200B49087014B10B48046006E0A1
:100E20000A4800680A21B0FBF1F00749086000BFDA
:100E300000BF3846FFF7F0F900BF00BF0020308048
:100E4000BDE8F081900400208C0400205853000875
:100E500070B50446002520480078002803DD46F6DA
:100E60006550208070BD1D480078012803D045F6EC
:100E700089602080F6E71A48007818B946F6645071
:100E80002080EFE700BF00BFFFF7C2F9054600BFB3
:100E900000BF13480078401E1149087008460078CA
:100EA00000280ADD00BF00BF2846FFF7B5F900BFE4
:100EB00000BF46F663502080D4E702F0E7F800BF99
:100EC00000BF2846FFF7A8F900BF00BFFFF700FFEB
:100ED0000020208000BFC5E740040020410400201E
:100EE0008804002010B5044612480078E8B901F0E3
:100EF000E5FE1149087008460078104908700E4850
:100F0000007800EB40000E4951F820000D490860C0
:100F1000084600680C490860012006490870FFF780
:100F2000C1F943F69920208002E045F68A602080CE
:100F300010BD0000410400206F0400206E0400205A
:100F400050300020E4040020E00400202DE9F041AE
:100F500007464FF0000800BF00BFFFF759F9804671
:100F600000BF00BF00203D4908603D4908803D4961
:100F700008803D4908603D4908603D4908603D4999
:100F800008603D49088100BF00BF4046FFF744F9B3
:100F900000BF00BF00BF00BFFFF73AF9804600BFA7
:100FA00000BF3648046800BF00BF4046FFF734F971
:100FB00000BF00BF21E000BF00BFFFF729F9804656
:100FC00000BF00BF00207834E06320602063A06190
:100FD000A082E0826062A062FFF722FA2062783C81
:100FE00004F164060020B081D4F8BC4000BF00BF0B
:100FF0004046FFF711F900BF00BF002CDBD100BF56
:1010000000BFFFF705F9804600BF00BF1C48056818
:1010100000BF00BF4046FFF7FFF800BF00BF12E06F
:1010200000BF00BFFFF7F4F8804600BF00BF05F126
:1010300020060020B081AD6900BF00BF4046FFF729
:10104000EBF800BF00BF002DEAD103F019FA03F05E
:1010500093FC00203880BDE8F0810000540400209B
:101060004E0400209E040020B0040020C404002090
:10107000D00400208004002044300020B804002068
:1010800074040020F8B5044600266946324800F092
:10109000C1FCBDF8000018B1BDF800002080F8BD0B
:1010A0006A460021022000F029FDBDF8000018B1B9
:1010B000BDF800002080F2E700BF00BFFFF7A8F8EE
:1010C000064600BF00BF00202449086000BF00BFE3
:1010D0003046FFF7A1F800BF00BF00252048006898
:1010E00020490968884205D91D4800681D490968DA
:1010F000B0FBF1F525B91A4800680A21B0FBF1F5FB
:101100006A460021284600F0F9FC6946124800F0C2
:1011100063FABDF8000018B1BDF800002080BEE7FA
:1011200000BF00BFFFF774F8064600BF00BF0020F5
:101130000D490860094800680C49086001200C4905
:10114000087000BF00BF3046FFF766F800BF00BF61
:101150000020208000BFA2E7D8340020A004002097
:101160005853000840530008B0040020A404002095
:10117000AC04002010B50348006810B101480068B5
:10118000804710BD300400202DE9FF4F87B0044692
:101190009046DDE91BA5DDE91496179F002003901A
:1011A00087480078002805DD47F24A1028800BB0F8
:1011B000BDE8F08F1CB947F2AD102880F7E7B8F111
:1011C000000F03D147F24F102880F0E71EB946F612
:1011D0002F602880EBE77B480068874203D246F601
:1011E00030602880E3E71698B84203D346F63160B2
:1011F0002880DCE7B9F1400F03D346F27320288042
:10120000D5E7B9F1000F06D16F48844203D046F20A
:1012100073202880CBE7B9F13F0F06D16B48844299
:1012200003D046F273202880C1E7204602F0ECFA92
:10123000002028800AF0010090B10AF0020078B185
:1012400005960020069008E00021059801600598A9
:10125000001D05900698401C06900698B842F3D3EE
:10126000169806EB80000490CDE9007A324640469D
:10127000049B0A9900F06EFB0590C4F828800A9838
:10128000E0620898206284F83790059820600498FE
:10129000A06019986065199818B94D480068A06554
:1012A00001E01998A0651A9860606662A763A4F8C7
:1012B0003CA04FF0000B08E0002104F17C0040F856
:1012C0002B100BF1010000F0FF0BBBF1000FF3D06E
:1012D00004F16400189901F0F5FA204600F082F854
:1012E00000BF00BF00BFFEF793FF039000BF00BF29
:1012F00038480078401C3749087000BF00BF039889
:10130000FEF78AFF00BF00BF00BF94F8370001F06E
:10131000F5FC204601F010FE204602F02BFA2E4884
:101320000088401C2C4908802C48007801282DD0CA
:1013300000BF00BF00BFFEF76BFF039000BF00BF00
:1013400024480078401E2349087008460078A0B958
:1013500023480088002809DD00BF00BF0398FEF77E
:101360005BFF00BF00BF01F055FE0DE000BF00BFF6
:101370000398FEF751FF00BF06E000BF00BF0398CF
:10138000FEF74AFF00BF00BF00BF10E700BF00BF6D
:1013900000BFFEF73DFF039000BF00BF0D4800787F
:1013A000401E0C49087000BF00BF0398FEF734FFD1
:1013B00000BF00BF00BFFFF78BFC00BFF7E60000D7
:1013C0004004002054530008802F0020BC2E002031
:1013D0008C04002088040020BC040020410400206C
:1013E0004C04002010B504460348006818B120469C
:1013F00001490968884710BD2004002070B50446E3
:101400000D46002667480078002803DD47F24E109D
:10141000288070BD6448844203D147F24C10288074
:10142000F7E76248844203D147F24D102880F0E785
:101430007CB900BF00BFFEF7EBFE064600BF00BF51
:101440005B48046800BF00BF3046FEF7E5FE00BF02
:1014500000BF00BF00BF00BFFEF7DAFE064600BFB8
:1014600000BF54480078401C5249087000BF00BFBC
:101470003046FEF7D1FE00BF00BF00BF94F8360033
:1014800008282DD2DFE800F004090E10080A0F1119
:10149000204601F091FD54E053E000BF204602F0E9
:1014A000D3FF4EE000BF00BF00BF204602F0CCFFDC
:1014B00094F83400082810D2DFE800F0040705088B
:1014C000090A0B0600BF00BF08E000BF00BF00BF55
:1014D00000BF204601F043FB00E000BF00BF30E04A
:1014E00000BF00BF00BFFEF793FE064600BF00BF6F
:1014F00030480078401E2F49087008460078A0B98F
:101500002D480088002809DD00BF00BF3046FEF7E7
:1015100083FE00BF00BF01F07DFD0DE000BF00BFF6
:101520003046FEF779FE00BF06E000BF00BF304640
:10153000FEF772FE00BF00BF00BF46F62D60288098
:1015400067E700BF04F1640001F09AF9204600F05B
:1015500037F8204602F026F918480088401E17493F
:101560000880204602F050F9FF2084F8360000BFC2
:1015700000BF00BFFEF74CFE064600BF00BF0D488F
:101580000078401E0B49087000BF00BF3046FEF7D0
:1015900043FE00BF00BF00BF00202880FFF798FB7C
:1015A00000BF36E740040020BC2E0020802F002022
:1015B000E0040020880400204C040020BC0400202B
:1015C00010B504460348006818B12046014909686F
:1015D000884710BD240400207FB504460D46002630
:1015E00000BF00BFFEF714FE064600BF00BF1CB1DF
:1015F0001548006884420AD100BF00BF3046FEF79C
:101600000BFE00BF00BF47F2571028807FBD00BF10
:1016100000BF3046FEF700FE00BF00BF0B48007859
:1016200000280BDD00200090019003460246214671
:10163000CDE90205064800F093FEE7E7294620467B
:1016400002F05AFA00BFE1E7E00400204004002065
:101650005452455310B504460348006818B120465B
:1016600001490968884710BD280400202DE9F0478A
:1016700080460E4614461D464FF000097D4800780E
:10168000002805DD46F2AE1028800020BDE8F08776
:101690001EB1B6F5004F02D100E000BF04E045F6F0
:1016A000256028800020F1E700BF0CB100202060F9
:1016B00000BF00BFFEF7ACFD814600BF00BF6E4813
:1016C0000068406CA8B36C480068406C401E6A49D2
:1016D0000968486468480068476C1CB1664800683F
:1016E000006C2060FEF79CFE63490968096C401A93
:1016F00061490968C1F8A4005F480068D0F8A800F3
:101700005D490968D1F8A410884207D25A48006898
:10171000D0F8A40058490968C1F8A80000BF00BF6C
:101720004846FEF779FD00BF00BF002028803846FC
:10173000ACE7FFE706F4004058B100BF00BF4846E1
:10174000FEF76AFD00BF00BF46F2B01028800020FF
:101750009CE74A48007800280BDD00BF00BF4846E0
:10176000FEF75AFD00BF00BF46F6635028800020F8
:101770008CE700BF41480078401C4049087000BF1A
:1017800000BF4846FEF748FD00BF00BF00BF43460C
:1017900007220021084601F027F900BF00BF00BF63
:1017A000FEF736FD814600BF00BF34480078401E7A
:1017B0003249087000BF00BF4846FEF72DFD00BF4C
:1017C00000BF00BFFFF784FA00BF00BFFEF720FD97
:1017D000814600BF00BF2848006890F8350020B15E
:1017E000012826D0032834D12CE0FCB1224800681F
:1017F000006C2060FEF714FE1F490968096C401A4E
:101800001D490968C1F8A4001B480068D0F8A80069
:1018100019490968D1F8A410884207D2164800680F
:10182000D0F8A40014490968C1F8A8000020288055
:1018300013E01CB110480068006C206046F2A9104B
:1018400028800AE00CB10020206047F2D9202880CF
:1018500003E046F62E60288000BF00BF06480068FF
:10186000476C00BF00BF4846FEF7D6FC00BF00BF74
:1018700038460BE740040020E004002088040020E4
:101880002DE9F04705460E4617461C464FF0000A64
:101890002E480078002804DD47F259102080BDE86A
:1018A000F0871EB946F2D5202080F8E71FB946F22E
:1018B000D5202080F3E700BF00BFFEF7A9FC8246D9
:1018C00000BF00BF0DB922480568286868B900BF8D
:1018D00000BF5046FEF7A0FC00BF00BF00203060F4
:1018E000386047F252102080D9E795F83C0000F0AC
:1018F000010068B900BF00BF5046FEF78DFC00BF75
:1019000000BF00203060386047F254102080C6E7E6
:1019100000BF00BF5046FEF77FFC00BF00BF4FF086
:101920000008D5F8249003E009F1040908F1010842
:10193000D9F800000028F7D0C6F80080A86BA0EB0B
:10194000080038600020208000BFA8E74004002085
:10195000E0040020F0B50446DDE9055602EB850001
:101960004FF0807C071F3846C7F800C0071F384675
:101970003C60DFF89CC0071F3846C7F800C04FF036
:10198000123C071F3846C7F800C04FF0033C071F42
:101990003846C7F800C04FF0023C071F3846C7F86A
:1019A00000C0071F38463B60071F384639604FF0BC
:1019B000113C071F3846C7F800C04FF0103C071F06
:1019C0003846C7F800C04FF0093C071F3846C7F833
:1019D00000C04FF0083C071F3846C7F800C04FF062
:1019E000073C071F3846C7F800C04FF0063C071FEA
:1019F0003846C7F800C04FF0053C071F3846C7F807
:101A000000C04FF0043C071F3846C7F800C0F0BDC7
:101A1000393C00087FB505460C461248854203D183
:101A200047F25B1020807FBD0F48854203D147F20B
:101A30005C102080F7E70D48007800280BDD0020BF
:101A400000900190034602462946CDE90204084869
:101A500000F086FCE7E72146284602F05BFB00BF6A
:101A6000E1E70000BC2E0020802F00204004002071
:101A70005453555310B51D48006810B11B480068F9
:101A80008047FEF7CDFC04461948006819490968EB
:101A9000884215D016480068D0F89800201A1449DA
:101AA0000968C1F8940012480068D0F89C001049F9
:101AB0000968D1F8941008440D490968C1F89C00E0
:101AC0000C480068C0F8984009480068D0F8B40095
:101AD00009490968884205D207480068044909682D
:101AE000C1F8B40000200449086010BD340400208F
:101AF000E0040020E4040020840400202DE9F041EB
:101B000005460E46144600273F480078002804DDAD
:101B100047F275202080BDE8F0813C48007800281D
:101B200003DD46F663502080F5E736B1022E05D07E
:101B3000042E0AD0082E09D101E000BF00BF1DB954
:101B400047F27E202080E6E704E003E045F62560CA
:101B50002080E0E700BF00BF00BF00BFFEF758FBDA
:101B6000074600BF00BF29480078401C274908707D
:101B700000BF00BF3846FEF74FFB00BF00BF00BFED
:101B800001202349096881F8360023463246294658
:101B90001F48006802F07AFB2088A8B100BF00BF90
:101BA00000BFFEF735FB074600BF00BF17480078AF
:101BB000401E1649087000BF00BF3846FEF72CFBD8
:101BC00000BF00BF00BFA6E71148006801F0F4F9AC
:101BD00000BF00BF00BFFEF71BFB074600BF00BFF2
:101BE0000A480078401E0949087000BF00BF384607
:101BF000FEF712FB00BF00BF00BFFFF769F800202F
:101C0000208000BF87E700004004002088040020F7
:101C1000E00400202DE9FF5F05460E461746984672
:101C2000DDE90EA40020009072480078002804DD51
:101C300047F275202080BDE8FF9F6F48007800289C
:101C400003DD46F663502080F5E70AF00E0BBBF18A
:101C5000000F09D0BBF1020F07D0BBF1040F10D069
:101C6000BBF1080F0ED101E000BF00BFB8F1000FBB
:101C700006D12FB926B91DB947F27E202080DAE7B8
:101C800004E003E045F625602080D4E700BF2AF099
:101C90001E0008B1012000E00020039003980128F5
:101CA00003D145F625602080C5E7CAF300100290F5
:101CB0000298C0B9B8F57A7F03D347F27B20208021
:101CC000B9E73B2F03DD47F27A202080B3E73B2EB4
:101CD00003DD47F279202080ADE7632D12DD47F266
:101CE00078202080A7E742F20F70864203DD47F29A
:101CF000792020809FE7B5F57A7F03DB47F27820D3
:101D0000208098E73D48D0F800904FF4FA70B0FB7F
:101D1000F9F0404400FB09F04FF47A71B0FBF1F1A7
:101D20004FF461606843C6EB061200EB8200384452
:101D300000FB091001900198002856D000BF00BF99
:101D400000BFFEF765FA009000BF00BF2A48007888
:101D5000401C2949087000BF00BF0098FEF75CFADC
:101D600000BF00BF00BF01202549096881F8360087
:101D700023465A4622480199006802F087FA2088D3
:101D8000A8B100BF00BF00BFFEF742FA009000BF3D
:101D900000BF19480078401E1749087000BF00BFF7
:101DA0000098FEF739FA00BF00BF00BF43E71448B0
:101DB000006801F001F900BF00BF00BFFEF728FA7C
:101DC000009000BF00BF0C480078401E0A49087010
:101DD00000BF00BF0098FEF71FFA00BF00BF00BFA2
:101DE000FEF776FF0020208002E047F27E20208070
:101DF00000BF20E74004002088040020585300085A
:101E0000E004002010B586B000F01EF8FEF708FBD5
:101E1000044605A800210091CDE90114039007486C
:101E2000007800EB4000064A02EB800100231A46CE
:101E3000044800F095FA06B010BD00006E040020C2
:101E4000503000205449434B10B50348006810B18E
:101E500001480068804710BD380400202448254808
:101E600025482648264827482748284828482948FA
:101E700029482A482A482B482B482C482C482D48CA
:101E80002D482E482E482F482F483048304831489A
:101E9000314832483248334833483448344835486A
:101EA000354836483648374837483848384839483A
:101EB00039483A483A483B483B483C483C483D480A
:101EC0003D483E483E483F483F48404840484148DA
:101ED00041484248424843484348444844484548AA
:101EE0004548464846484748474800BF70470000B5
:101EF0009C530008045500089E5300089F53000897
:101F0000A0530008A4530008A8530008A5530008D4
:101F1000D0530008D1530008D2530008D45300080E
:101F2000D6530008D8530008DA530008DC530008E1
:101F3000FC530008FE530008005400080254000837
:101F400004540008065400080854000834540008DB
:101F50003554000836540008385400083A54000834
:101F60003B5400083C5400083E540008405400080C
:101F700042540008445400084654000848540008DD
:101F800078540008795400087A5400087B540008FB
:101F90007C5400087E54000880540008A8540008AF
:101FA000A9540008AA540008AB540008AC54000817
:101FB000AE540008B0540008B4540008B5540008EA
:101FC000B6540008B7540008B8540008B9540008C3
:101FD000BA540008BB540008BC540008BE540008A2
:101FE000BF540008C0540008C2540008C45400087C
:101FF000C5540008C8540008FC540008FD540008EB
:10200000FE54000800550008025500080021034A4C
:102010001160034A118001807047000058040020BD
:102020005C0400202DE9F04F85B0044689469246B5
:102030009B46DDF838800020009000BF00BFFEF70F
:10204000E7F8009000BF00BFBAF1000F0AD0BAF164
:10205000010F0DD0BAF5004F05D06FF40040504489
:1020600060B906E000BF206A40EA0900206214E07F
:1020700000BF206A20EA090020620EE000BF00BF16
:102080000098FEF7C9F800BF00BF45F62560A8F824
:102090000000002005B0BDE8F08F00BFC4F824B0F8
:1020A00004F1080001900198008958B900BF00BFF1
:1020B0000098FEF7B1F800BF00BF0020A8F80000AC
:1020C000206AE7E700BF61480078401C5F4908705C
:1020D00000BF00BF0098FEF79FF800BF00BF00BF21
:1020E00001980768BD687FE07868029095F88800DD
:1020F00000F00F0003900398012821D002282ED071
:10210000042802D0082836D10EE0206AD5F88010C5
:1021100000EA0106D5F88000B04204D15A463146A3
:10212000284600F097F859E0206AD5F8801000EAB8
:10213000010626B15A463146284600F08BF84DE09C
:10214000D5F88000216A20EA0106D5F88000B04267
:1021500004D15A463146284600F07CF83EE0D5F8D6
:102160008000216A20EA010626B15A4631462846F7
:1021700000F070F832E000BF00BF00BFFEF748F883
:10218000009000BF00BF31480078401E2F49087002
:1021900008460078A0B92E480088002809DD00BF55
:1021A00000BF0098FEF738F800BF00BF00F032FF14
:1021B0000DE000BF00BF0098FEF72EF800BF06E05C
:1021C00000BF00BF0098FEF727F800BF00BF00BFA8
:1021D00043F6FF20A8F8000000205BE700BF029F45
:1021E0000FB1BD6800E00025002D7FF47DAF00BF7A
:1021F00000BF00BFFEF70CF8009000BF00BF1348FF
:102200000078401E1149087000BF00BF0098FEF71B
:1022100003F800BF00BF00BF0AF4004008B9FEF792
:1022200057FD00BF00BFFDF7F3FF009000BF00BFE8
:10223000206A049000BF00BF0098FDF7EDFF00BFCB
:1022400000BF0020A8F80000049823E788040020BD
:102250004C04002070B504460E46154634342665FD
:10226000002060702070E560A078343C082816D209
:10227000DFE800F0040508090706101100BF00BFE1
:1022800000BF0DE000BF204601F028FC002084F8CC
:10229000360005E000BF042084F8360000E000BFEF
:1022A00000BF204600F05BFC70BD0000002400BFB2
:1022B00019E000BF00BFFDF7ABFF044600BF00BF41
:1022C00009480068401C0849086008480068401C2C
:1022D0000649086000BF00BF2046FDF79DFF00BF14
:1022E00000BFFEF781FBE4E73C040020A0040020CF
:1022F00010B58AB0044600200E4908600B2000216A
:102300000591CDE90704069108460B4909680B4A77
:1023100012680B4B1B68CDE90132CDE903103F2059
:102320000023084A08A100900C48FEF72DFF0AB0D0
:1023300010BD00003C04002000530008FC520008BF
:10234000F8520008AD22000875432F4F532D49491C
:10235000492049646C65205461736B00BC2E0020D9
:102360002DE9F84F04460D4616461F46DDE90BAB36
:10237000DDF82890DDF834800020009000BF00BF19
:10238000FDF746FF009000BF00BF2B4800882B4997
:10239000098888423EDA28480088401C264908807F
:1023A000274800880988884203DA2348008824499E
:1023B000088024480068046022480068856021483D
:1023C0000068C6601F48006807821E480068C0F8A1
:1023D00014901C480068A0F818A01A480068C0F8BB
:1023E0001CB018480068406816490860012016496A
:1023F0000881164808604860002000F07FFC1448FF
:10240000007818B112480078124908700020A8F826
:10241000000008E010480088401C0F49088044F282
:102420005360A8F8000000BF00BF0098FDF7F4FE5D
:1024300000BF00BFBDE8F88F4C0400200C5300081B
:102440004E0400204404002050300020802F002043
:102450006E04002070040020500400203EB559484E
:1024600000680068584A811A904279D00FDC5749B9
:10247000084400283ED056490844A8B155490844AC
:10248000002860D05449084400286AD13FE05348EE
:102490000844002850D052490844002862D05149CD
:1024A00008440028F1D110E002A8464D00902D68A4
:1024B000EB69444D2D682A8B424D2D686969414D69
:1024C0002D68A868FFF7AEFD7AE002A93D480068D4
:1024D000C0693C4DCDE900012D682B8B394D2D682D
:1024E0002A8A384D2D68E968364D2D68A86800F0B5
:1024F00035FC65E0334B1B68DA69324B1B68198B7E
:10250000304B1B68986802AB00F052FE58E002A9FD
:102510002C480068C0692B4DCDE900012D682B8B3C
:10252000284D2D682A8A274D2D68E968254D2D688C
:10253000A86801F0CDF943E022490968886802A93A
:1025400001F0DAFA3CE01F4B1B68DA691D4B1B688F
:10255000198B1C4B1B68986802AB01F079FB2FE0CC
:1025600007E02CE017490968886802A901F0D2FD4C
:1025700026E01D49097801EB41011C4A02EB81006C
:1025800000F0A2FD0F48006802AB0021C2691848A4
:1025900001F05EFB17480068401E164908600846B7
:1025A000006858B9144800680860FDF739FF044610
:1025B00002AB22460021114801F04AFB00E000BFB7
:1025C00000BF3EBD480400205449434BADBAB2BEE3
:1025D0000DF90BFAF2F8F7FF0006F6FF00F7FDF72A
:1025E00000FFEFFF03FE0FFE7004002050300020BC
:1025F00014340020DC040020D8040020D83400204B
:10260000002700BF4CE0002648E000BF00BFFDF7F8
:10261000FFFD074600BF00BF2248008888B90020A0
:10262000214908810860486000F07AFB00BF00BFC4
:102630003846FDF7F1FD00BF00BFFEF749FB01265C
:102640002CE000BF00BF3846FDF7E6FD00BF00BF2D
:10265000FDF7E6FE0546FFF701FFFDF7E1FE441B2F
:1026600012480068A04201D21048046000BF00BFB9
:10267000FDF7CEFD074600BF00BF0D48006840686B
:102680000B49086007480088401E0649088000BFC3
:1026900000BF3846FDF7C0FD00BF00BF002EB4D01C
:1026A000B1E700004C04002050300020540400200A
:1026B00048040020F0B589B0054600203149088063
:1026C0003148006820B944F25260288009B0F0BD5A
:1026D0002E480088022803DA44F254602880F5E787
:1026E00000202B4908602848046826462036002729
:1026F0000CE0284820600020A060E060208260613B
:102700002083666020342036781C87B21F480088FA
:102710008742EEDB203C1C48066866601E48066067
:102720001E48066000201E4908801E4908801E4879
:10273000006818B944F255602880C7E71B48006854
:102740001B490968884203D244F256602880BDE7DD
:10275000032000210591CDE9070506911348006883
:10276000144A1268104B1B68CDE90301CDE9013210
:1027700000910B46104A11A11748FEF705FD00BF56
:10278000A4E7000050040020085300080C53000880
:10279000540400204E4F4E454404002048040020BD
:1027A0004C0400204E040020145300081C53000861
:1027B00054530008185300080126000875432F4F92
:1027C000532D49494920495352205175657565205B
:1027D0005461736B00000000802F00200021034A29
:1027E0001160034A118001807047000060040020DE
:1027F0006404002070B502460B46104611461031A5
:102800005E1EB5B2002408E0016000264660068125
:10281000C66010301031661CB4B2AC42F4DB002646
:10282000066046600681C66070BD000010B50446B3
:102830001048006818B945F21E70208010BD0E487F
:10284000008818B945F21D702080F7E70A48018812
:1028500008480068FFF7CEFF06480068074908608F
:102860000548008888800020C8800881208000BF3B
:10287000E4E70000385300083053000844300020DB
:1028800010B5014648894B89002B17DD0A680C4BAF
:102890001B6813600A4C4B6823602346DB884C8915
:1028A0001B1B074CE38023469B884C892344044C24
:1028B000A38000234B818B810B604B6010BD000017
:1028C0004430002001810022428182810260426006
:1028D000704700002DE9F0410D46DDE90674B0F8BF
:1028E0000AC0B0F80880C44505DB46F2935CA4F842
:1028F00000C0BDE8F081DFF8D4C0BCF804C0BCF172
:10290000000F04D145F21D7CA4F800C0F1E7DFF808
:10291000BCC0DCF80010DFF8B480D1F800C0C8F803
:1029200000C0C446BCF804C0ACF1010CA8F804C057
:10293000C446BCF806C00CF1010CA8F806C0C44699
:10294000BCF808C0B8F80680C44507DADFF87CC0D8
:10295000BCF806C0DFF87480A8F808C0B0F80AC058
:10296000BCF1000F06D1016041604FF0010CA0F8EE
:102970000AC017E003F0100CBCF1000F07D1066885
:1029800031604FF0000CC1F800C0016004E0D0F8E5
:1029900004C0C1F800C04160B0F80AC00CF1010CDD
:1029A000A0F80AC0B0F80CC0B0F80A80C44503DA39
:1029B000B0F80AC0A0F80CC04D600A81CF604FF09B
:1029C000000CA4F800C000BF93E7000044300020D2
:1029D0000021034A1160034A118001807047000002
:1029E000680400206C0400202DE9F04105460C46E7
:1029F00016461F461548006880F8346000201349C9
:102A0000096881F8350039461048006800F096FEE4
:102A10006CB104F10808EC60012229460B480068FB
:102A200000F016F82946404600F066F806E000205F
:102A300006490968C88705490968086303480168A9
:102A4000204600F019F8BDE8F0810000E004002005
:102A500010B5C287016300230AE000244C600C60BB
:102A60000C614C610C83CC61886020315C1CA3B28A
:102A70009342F2DB10BD000030B548B14568C1F8A3
:102A8000C05000F10804226893681D6AC56113E014
:102A900091F83450022D02D0072D08D103E007A58C
:102AA000C1F8C05007E007A5C1F8C05003E008A571
:102AB000C1F8C05000BF00BF30BD00005461736B4F
:102AC000205100005461736B2053656D00000000BD
:102AD0002000000030B507A5C1F8C05000F108047F
:102AE00022681AB193681D6AC56101E001A5C5613C
:102AF00030BD000020000000F0B58E6896F8375019
:102B000007893FB90127078100274F600F600160E7
:102B1000416023E007897F1C0781026806E0946812
:102B200094F83770AF4200DD02E05268002AF6D117
:102B300000BF32B900274F6043680B6059604160A5
:102B40000CE017682FB9116000270F604A60016020
:102B500004E013680B604A6059601160F0BD2DE914
:102B6000F0410446256BE68F0AE0D5F80C8008F1A9
:102B700008072946384600F00AF82035701E86B24C
:102B8000002EF2DC0020E0872063BDE8F08110B564
:102B90000489012C03D100240460446011E00C6816
:102BA00024B94A680024146002600AE04C6824B921
:102BB0000B6800245C60436003E00B684A685A605D
:102BC00013600489641E048100244C600C6010BDF5
:102BD0002DE9F84306460C4617469846089D94F89A
:102BE0003600082850D2DFE800F00405080906077F
:102BF0002B2C00BF00BF00BF47E000BF94F834009B
:102C0000032807D143463A4621463046009500F056
:102C10003FF803E0E765A4F86080256436B12046FC
:102C2000FFF79DFF21463046FFF754FF204600F096
:102C300055FF00203434A070607004F8340924E09B
:102C400000BF94F83400032807D143463A46214692
:102C50003046009500F01CF803E0E765A4F86080BA
:102C60002564204601F0F0FB36B12046FFF777FFE0
:102C700021463046FFF72EFF04203434A070002098
:102C8000607004F8340900E000BF00BFBDE8F883BD
:102C9000F0B50446059E086BCD8F0AE0C768A742D1
:102CA00004D1046142610383C66104E020306F1ED9
:102CB000BDB2002DF2DC00BFF0BD000070B50025F4
:102CC000074C03E005F12000C5B2241D2068002850
:102CD000F8D02068FDF7A7FA2844C5B2284670BD91
:102CE00018040020002004E00021034A42F82010CC
:102CF000401C0228F8D370471804002030B5420960
:102D000000F01F030121C3F11F04A140034C54F83C
:102D100022400C43014D45F8224030BD18040020EC
:102D200030B5420900F01F030121C3F11F04A14087
:102D3000034C54F822408C43014D45F8224030BDED
:102D4000180400200021034A1160034A1180018009
:102D50007047000074040020780400202DE9F04F33
:102D600085B007468A4693461C460020029000BF65
:102D700000BF00BFFDF74CFA029000BF00BF4848FB
:102D80000078401C4649087000BF00BF0298FDF75C
:102D900043FA00BF00BF00BF07F1080630890028D2
:102DA00042D104F0100010B94FF0000801E04FF0DC
:102DB0001008DDE90E0143465A46CDE900015146AF
:102DC00007F12000FFF786FD00BF00BF00BFFDF741
:102DD0001FFA029000BF00BF31480078401E304902
:102DE000087008460078A0B92E480088002809DD40
:102DF00000BF00BF0298FDF70FFA00BF00BF00F050
:102E000009F90DE000BF00BF0298FDF705FA00BF09
:102E100006E000BF00BF0298FDF7FEF900BF00BF4B
:102E200000BF05B0BDE8F08F04F4007008B135892B
:102E300000E00125D6F8009011E0D9F808000390D1
:102E4000D9F8040004900E985B465246009038462C
:102E50000399FFF7BDFEDDF81090681E85B2002DC6
:102E6000EBD100BF00BF00BFFDF7D2F9029000BF59
:102E700000BF0B480078401E0949087000BF00BF22
:102E80000298FDF7C9F900BF00BF00BF04F400407D
:102E900008B9FDF71DFF00210F98018000BFC0E7B2
:102EA000880400204C04002000210AE001EB4102CC
:102EB000054B03EB820000220281026042604A1C43
:102EC000D1B24029F2D370475030002010B50446EB
:102ED00094F83700FFF712FF94F837000549097896
:102EE000884203D1204600F027F802E0204600F097
:102EF00003F810BD6E04002010B590F8373003EBD6
:102F000043030C4C04EB83010B893BB901230B8178
:102F10000023C36003610860486009E00B895B1C03
:102F20000B810B68C360002303610A6810610860AD
:102F300010BD00005030002010B590F8373003EB82
:102F400043030B4C04EB83010B893BB901230B8139
:102F50000023C36003610860486008E00B895B1CC4
:102F60000B810023C3604A680261D060486010BDD5
:102F70005030002010B501460C8924B1012C03D03B
:102F8000022C0CD101E000BF14E008684A6802611D
:102F90000024C4601461D0600A6048600AE00868D8
:102FA0004A68C36800241C61C4600261D0600B6081
:102FB000486000BF00BF10BD2DE9F041054695F8FF
:102FC000370000EB4000124901EB80042F69EE68E6
:102FD00087B946B9002020812060606095F83700ED
:102FE000FFF79EFE0EE02089401E20810020306108
:102FF000266007E02089401E2081FE600EB96760D0
:1030000000E0376100202861E860BDE8F081000041
:103010005030002010B5002400BFFDF7F9F8044639
:1030200000BF00200D4908700D480E490860084691
:103030000068D0F89000401C0968C1F890000A4868
:103040000068401C084908604FF08050074908603C
:1030500000BF2046FDF7E0F800BF10BD6F04002060
:10306000802F0020E4040020B404002004ED00E0E0
:1030700010B504480078012803D1FDF7D1F90249C1
:10308000086010BD880400207C04002010B50A48A8
:10309000007880B9FDF7C4F908490968441A08485E
:1030A0000068A04201D20648046006480068A042B9
:1030B00001D20448046010BD880400207C04002074
:1030C000800400208404002070B5054600262E48A8
:1030D0000078012800D070BD00BF00BFFDF798F850
:1030E000064600BF00BF2C683CB900BF00BF304699
:1030F000FDF792F800BF00BFEDE72448844207D1F6
:1031000000BF00BF3046FDF787F800BF00BFE2E711
:10311000A06D10B1A06D401EA065A06D38B100BFBC
:1031200000BF3046FDF778F800BF00BFD3E728891D
:10313000022807DA00BF00BF3046FDF76DF800BF78
:1031400000BFC8E712480078002807DD00BF00BFB5
:103150003046FDF761F800BF00BFBCE72846FFF727
:1031600009FF2C68606D18B90A480068A06501E085
:10317000606DA06500BF00BF3046FDF74DF800BF91
:1031800000BF00BFA7E7000090040020BC2E002075
:10319000880400208C0400200021034A1160034AA7
:1031A00011800180704700009404002098040020E2
:1031B0002DE9FF5F0446884691461D460020019098
:1031C00000BF00BFFDF724F8019000BF00BF04F16D
:1031D0000807388900284FD10420012804D002288C
:1031E00014D0042834D123E0206AFF280DD100BF79
:1031F00000BF0198FDF710F800BF00BF46F6C550AC
:103200002880002004B0BDE8F09F22E04FF6FF7157
:10321000206A88420BD100BF00BF0198FCF7FCFF79
:1032200000BF00BF46F6C55028800020EAE710E046
:10323000206A401C58B900BF00BF0198FCF7ECFFA2
:1032400000BF00BF46F6C55028800020DAE700E046
:1032500000BF00BF206A401C2062D4F820A0C4F840
:10326000249000BF00BF0198FCF7D6FF00BF00BF4D
:10327000002028805046C5E700BF25480078401C44
:103280002349087000BF00BF0198FCF7C5FF00BFCD
:1032900000BF00BF08F4007008B13E8900E00126BD
:1032A000D7F800B011E0DBF808000290DBF804006A
:1032B000039000231A46CDF8009020460299FFF7AC
:1032C00087FCDDF80CB0701E86B2002EEBD1D4F86E
:1032D00020A000BF00BF00BFFCF79AFF019000BF15
:1032E00000BF0B480078401E0949087000BF00BFAE
:1032F0000198FCF791FF00BF00BF00BF08F4004039
:1033000008B9FDF7E5FC0020288050467AE7000068
:103310008804002086B00020009000BF06E0C3496A
:103320000968480001AA0021FEF7E8FBC0480078C0
:103330000128F4D101A8FDF709FE0027BD48006867
:10334000BA490968884205D9BA480068B749096886
:10335000B0FBF1F727B9B74800680A21B0FBF1F7D5
:1033600062E1FDF75DF8804600BF00BFFCF750FF4B
:10337000009000BF00BFB0480068B049086000205E
:10338000AD49086000BF00BF0098FCF745FF00BFD3
:1033900000BFAB480068A9490968884248D9A848D5
:1033A0000068A849884205D242F2107003900120BB
:1033B000029023E0A2480068A349884205D24FF456
:1033C0007A7003900A20029018E09D4800689F4997
:1033D000884203D26420039002900FE0984800686E
:1033E0009B49884205D20A2003904FF47A700290DC
:1033F00004E00120039042F21070029090480168AE
:103400000298B1FBF0FA8D49039809684843B0FB74
:10341000FAF042F21071081A8E4908808E4800882E
:103420000988884208DA8B4800888B49088003E0C5
:1034300042F2107087490880FDF79CFE002500BF0E
:1034400000BFFCF7E5FE009000BF00BF83480468A2
:1034500000BF00BF0098FCF7DFFE00BF00BF5AE0CE
:1034600000BF00BF00BFFCF7D3FE009000BF00BF4D
:103470007B480078401C7A49087000BF00BF009864
:10348000FCF7CAFE00BF00BF00BF54F89C0F60608D
:10349000002044F89C0900BF00BF00BFFCF7B8FE45
:1034A000009000BF00BF6E480078401E6C49087055
:1034B00008460078A0B96B480088002809DD00BFE5
:1034C00000BF0098FCF7A8FE00BF00BFFFF7A2FDF9
:1034D0000DE000BF00BF0098FCF79EFE00BF06E0B5
:1034E00000BF00BF0098FCF797FE00BF00BF00BF01
:1034F000D4F8A000054400BF00BFFCF789FE00908F
:1035000000BF00BFD4F8BC4000BF00BF0098FCF76C
:1035100083FE00BF00BF002CA2D145B349488542BD
:1035200005D242F2107005904FF0010B1BE04648A7
:10353000854205D24FF47A7005904FF00A0B12E0E5
:103540004248854203D26420059083460BE0404800
:10355000854204D20A2005904FF47A7B03E00120D3
:10356000059042F2107BB5FBFBF0049003E00020D5
:1035700005900120049000BF00BFFCF749FE0090B9
:1035800000BF00BF3548046800BF00BF0098FCF7CB
:1035900043FE00BF00BF2BE0D4F8A00005994843CC
:1035A0000499B0FBF1F086B242F21070864200D965
:1035B0000646A4F88C60B4F88E00B04201DAA4F894
:1035C0008E6001AB04F1AC02111D2046FEF758F9E4
:1035D00000BF00BFFCF71CFE009000BF00BFD4F886
:1035E000BC4000BF00BF0098FCF716FE00BF00BF44
:1035F000002CD1D11C480078012805D100201A499F
:10360000087001A8FDF7A2FCFCF70AFFA0EB08096F
:1036100016480068484502D21448C0F8009001AA34
:1036200000213846FEF76AFA9BE600004053000886
:10363000AC04002058530008A0040020A804002077
:10364000A4040020801A060000093D00005A62020E
:103650000084D7179C0400209E040020B80400209A
:10366000880400204C0400209A040020B0040020AC
:1036700010B58AB0044600201F4908601F49086041
:103680001F4908601F4908701F4908701F480068DB
:1036900020B946F62B6020800AB010BD1C48006897
:1036A0001C490968884203D246F62C602080F3E763
:1036B000194800783F2803D346F62A602080EBE7BC
:1036C000032000210591CDE9070406910846104921
:1036D0000968124A12680D4B1B68CDE90132CDE929
:1036E00003100D48007800230D4A0EA100901248E7
:1036F000FDF74AFD00BFCFE7A0040020A80400208A
:10370000A4040020AC0400209A04002044530008C4
:103710004C530008545300083C5300084853000819
:103720001533000875432F4F532D494949205374D1
:103730006174205461736B005033002038B5044627
:103740000D4685B16B4602222946204600F09EFDBB
:10375000BDF8000018B9032084F8360006E0022006
:1037600084F8360002E0022084F836002046FFF795
:1037700023FC38BD0021C0F8B8100949096819B9FF
:103780000021C0F8BC1007E005490968C0F8BC106A
:1037900003490968C1F8B800014908607047000092
:1037A000B8040020D0F8B820D0F8BC104AB90D4BAE
:1037B000196011B10023C1F8B8300023C0F8BC3043
:1037C0000FE029B90023C2F8BC30C0F8B83008E0D7
:1037D000C2F8BC10C1F8B8200023C0F8BC30C0F853
:1037E000B8307047B80400200021044A1160044A30
:1037F0001180044A1160018070470000B804002065
:10380000BC040020B404002070B5044600202060F1
:10381000A0606060E06020616061A061E06129A05B
:10382000206200206062A062E0622064E065A4F88B
:103830006000002104F16400FFF744F8002044F820
:10384000740F6060E060A0822061743C002506E097
:10385000002104F17C0040F82510681CC5B2002D41
:10386000F6D000203434206120676067606084F8FF
:103870005600E067A06720814FF0004060610020A3
:10388000A061E06120626062A4F85800A4F85A00C8
:10389000E0652066FCF7C4FD064666660020A0666B
:1038A000C4F8800020706070A0704020E07000209C
:1038B000C4F88400C4F8880004A0C4F88C00343C28
:1038C00070BD00003F5461736B00000020000000D9
:1038D0002DE9FC4704460F4690469946DDE90A6506
:1038E0004FF0000A00BF00BF00BFFCF791FC82460A
:1038F00000BF00BF76480078401C7549087000BFC3
:1039000000BF5046FCF788FC00BF00BF00BF0CB9E9
:10391000704804680020288094F8360008287DD27A
:10392000DFE800F004053E3F0607404100BF00BF4E
:1039300000BF4B464246394604F16400CDE90065BC
:10394000FEF7C8FF00BF00BF00BFFCF761FC824666
:1039500000BF00BF5E480078401E5D490870084601
:103960000078A0B95C480088002809DD00BF00BFCE
:103970005046FCF751FC00BF00BFFFF74BFB0DE0CA
:1039800000BF00BF5046FCF747FC00BF06E000BF89
:1039900000BF5046FCF740FC00BF00BF00BF93E0F3
:1039A00000BF00BF00BF94F83400022821D1434675
:1039B0003A46214600200096FFF70AF900BF00BFF3
:1039C00000BFFCF725FC824600BF00BF40480078DE
:1039D000401E3F49087000BF00BF5046FCF71CFC6A
:1039E00000BF00BF00BF09F4004090BBFDF770F9B5
:1039F00038E04B464246394604F16400CDE90065A3
:103A0000FEF768FF00BF00BF00BFFCF701FC824665
:103A100000BF00BF2E480078401E00E023E02C4984
:103A2000087008460078A8B92B480088002809DDEE
:103A300000BF00BF5046FCF7EFFB00BF00BFFFF721
:103A4000E9FA0EE000BF00BF5046FCF7E5FB00BFFF
:103A500007E007E000BF00BF5046FCF7DDFB00BFFA
:103A600000BF00BF30E000BF00BF00BFFCF7D0FBCD
:103A7000824600BF00BF16480078401E14490870F7
:103A800008460078A0B914480088002809DD00BF66
:103A900000BF5046FCF7C0FB00BF00BFFFF7BAFAFB
:103AA0000DE000BF00BF5046FCF7B6FB00BF06E0CC
:103AB00000BF00BF5046FCF7AFFB00BF00BF00BF18
:103AC00046F62D60288000BF00BFBDE8FC870000DF
:103AD00088040020E00400204C04002010B50446B7
:103AE000204600F0B1FC94F8360000F0040010B954
:103AF0002046FFF7EBF910BD70B504460D460026D1
:103B000000BF00BFFCF784FB064600BF00BF0020DB
:103B1000288094F8360008287BD2DFE800F00405FE
:103B200006071243556700BF00BF00BF00BF00BFBC
:103B30003046FCF771FB00BF00BF47F253102880EE
:103B400072E000BF3B480078401C3A49087000BF53
:103B500000BF3046FCF760FB00BF00BF00BF14F899
:103B60008A0F401E207014F88A0928B9002084F8B2
:103B700036002046FFF7B2FF00BF00BF00BFFCF7D2
:103B800047FB064600BF00BF2A480078401E29496F
:103B9000087000BF00BF3046FCF73EFB00BF00BF0F
:103BA00000BF41E014F88A0F401E207014F88A0903
:103BB00010B9012084F8360000BF00BF3046FCF782
:103BC0002BFB00BF00BF2FE014F88A0F401E2070AF
:103BD00014F88A0910B9022084F8360000BF00BF2B
:103BE0003046FCF719FB00BF00BF1DE014F88A0F38
:103BF000401E207014F88A0910B9032084F836009A
:103C000000BF00BF3046FCF707FB00BF00BF0BE062
:103C1000FFE700BF00BF3046FCF7FEFA00BF00BF61
:103C200046F62D60288070BD00BFFDF751F800BF3B
:103C3000F9E700008804002008B504480068FDF793
:103C400009FD69460020FDF7D9FB08BDE00400200E
:103C50002DE9F8430446884617461D464FF00009F3
:103C600000BF00BF00BFFCF7D3FA814600BF00BF12
:103C7000FE480078401CFD49087000BF00BF484660
:103C8000FCF7CAFA00BF00BF00BF0CB9F8480468CF
:103C900027640020288094F83600082871D2DFE8D5
:103CA00000F00405EBEC0607EDEE00BF00BF00BF1F
:103CB0000420012804D0022839D004286FD170E0F4
:103CC000606CFF2832D100BF00BF00BFFCF7A0FA34
:103CD000814600BF00BFE5480078401EE3490870F8
:103CE00008460078A0B9E3480088002809DD00BF35
:103CF00000BF4846FCF790FA00BF00BFFFF78AF903
:103D00000DE000BF00BF4846FCF786FA00BF06E0A2
:103D100000BF00BF4846FCF77FFA00BF00BF00BFEE
:103D200046F6C55028800020BDE8F88371E04FF6C4
:103D3000FF71606C884233D100BF00BF00BFFCF749
:103D400067FA814600BF00BFC8480078401EC749D7
:103D5000087008460078A8B9C6480088002809DD20
:103D600000BF00BF4846FCF757FA00BF00BFFFF78F
:103D700051F90EE000BF00BF4846FCF74DFA00BF06
:103D800007E08DE100BF00BF4846FCF745FA00BFE1
:103D900000BF00BF46F6C55028800020C4E737E0CA
:103DA00037E0606C401C88BB00BF00BF00BFFCF761
:103DB0002FFA814600BF00BFAC480078401EAB49D7
:103DC000087008460078A0B9AA480088002809DDD4
:103DD00000BF00BF4846FCF71FFA00BF00BFFFF757
:103DE00019F90DE000BF00BF4846FCF715FA00BF07
:103DF00006E000BF00BF4846FCF70EFA00BF00BF58
:103E000000BF46F6C550288000208DE7FFE700E0A0
:103E100000BF00BF606C401C6064666C00BF00BFE8
:103E200000BFFCF7F5F9814600BF00BF8F4800785E
:103E3000401E8E49087008460078A0B98D48008859
:103E4000002809DD00BF00BF4846FCF7E5F900BFC8
:103E500000BFFFF7DFF80DE000BF00BF4846FCF7EA
:103E6000DBF900BF06E000BF00BF4846FCF7D4F90D
:103E700000BF00BF00BF45E100BF00BF00BF94F816
:103E80003400072823D100231A46214618460097FC
:103E9000FEF79EFE666C00BF00BF00BFFCF7B8F9DE
:103EA000814600BF00BF71480078401E6F4908700E
:103EB00000BF00BF4846FCF7AFF900BF00BF00BF1E
:103EC00008F40040002801D1FCF702FFE7E00420DD
:103ED000012804D0022838D004286ED16EE0606C2E
:103EE000FF2831D100BF00BF00BFFCF791F9814628
:103EF00000BF00BF5D480078401E5C49087008465E
:103F00000078A0B95B480088002809DD00BF00BF29
:103F10004846FCF781F900BF00BFFFF77BF80DE0D2
:103F200000BF00BF4846FCF777F900BF06E000BFBE
:103F300000BF4846FCF770F900BF00BF00BF46F65F
:103F4000C55028800020EFE670E04FF6FF71606CEE
:103F5000884231D100BF00BF00BFFCF759F981464C
:103F600000BF00BF41480078401E40490870084625
:103F70000078A0B93F480088002809DD00BF00BFD5
:103F80004846FCF749F900BF00BFFFF743F80DE0D2
:103F900000BF00BF4846FCF73FF900BF06E000BF86
:103FA00000BF4846FCF738F900BF00BF00BF46F627
:103FB000C55028800020B7E638E036E0606C401C31
:103FC00088BB00BF00BF00BFFCF722F9814600BFDD
:103FD00000BF26480078401E244908700846007833
:103FE000A0B924480088002809DD00BF00BF48466A
:103FF000FCF712F900BF00BFFFF70CF80DE000BF9F
:1040000000BF4846FCF708F900BF06E000BF00BF4C
:104010004846FCF701F900BF00BF00BF46F6C55097
:104020002880002080E6FFE700E000BF00BF606C52
:10403000401C6064666C00BF00BF00BFFCF7E8F87E
:10404000814600BF00BF09480078401E074908703C
:1040500008460078D8B907480088002810DD00BF5E
:1040600000BF4846FCF7D8F800BF05E088040020F0
:10407000E00400204C04002000BFFEF7CBFF0DE061
:1040800000BF00BF4846FCF7C7F800BF06E000BF0E
:1040900000BF4846FCF7C0F800BF00BF00BF31E0DA
:1040A00000BF00BF00BFFCF7B3F8814600BF00BFF0
:1040B00016480078401E1549087008460078A0B9D7
:1040C00013480088002809DD00BF00BF4846FCF700
:1040D000A3F800BF00BFFEF79DFF0DE000BF00BFCB
:1040E0004846FCF799F800BF06E000BF00BF48460D
:1040F000FCF792F800BF00BF00BF46F62D60288095
:10410000002600BF00BF30460EE6000088040020F5
:104110004C04002070B504460D46002600BF00BFC9
:10412000FCF776F8064600BF00BF0CB94B480468A0
:104130004A48006884420ED14948007800280ADDC8
:1041400000BF00BF3046FCF767F800BF00BF46F66F
:104150006350288070BD0020288094F8360008281D
:104160006CD2DFE800F004313F4D5B5C5D5E00BF68
:104170003B480078401C3A49087000BF00BF3046F9
:10418000FCF74AF800BF00BF00BF042084F83600E7
:10419000012084F88A002046FEF70EFF00BF00BF12
:1041A00000BFFCF735F8064600BF00BF2C4800787A
:1041B000401E2B49087000BF00BF3046FCF72CF8AA
:1041C00000BF00BF00BF44E0052084F83600012096
:1041D00084F88A0000BF00BF3046FCF71DF800BF1E
:1041E00000BF36E0062084F83600012084F88A00FB
:1041F00000BF00BF3046FCF70FF800BF00BF28E04B
:10420000072084F83600012084F88A0000BF00BF30
:104210003046FCF701F800BF00BF1AE000BF00BF46
:1042200000BF94F88A00401C84F88A0000BF00BFD9
:104230003046FBF7F1FF00BF00BF0AE000BF00BF40
:104240003046FBF7E9FF00BF00BF46F62D6028802F
:1042500080E700BFFCF73CFD00BF7BE7E0040020E7
:1042600088040020002108E0064A02EBC100002279
:1042700002608280C2804A1C91B2034A1288914235
:10428000F2DB7047AC2B0020705300082DE9F04F93
:104290000C4616461D46042E1ED1DFF8A091D9F813
:1042A0000090A4EB0909A9F1010313F5803F0DD992
:1042B0004FF00009C0F84C90C0F85090C0F81C9026
:1042C00047F27E29A5F80090BDE8F08FC46403F1A1
:1042D0000109C0F850903FE084B3082E25D1D0F8F2
:1042E000489009EB0407DFF85491D9F80090A7EB48
:1042F0000909A9F10103A34201D2C76406E0DFF86E
:104300003C91D9F80090A144C0F84C90DFF82CA162
:10431000D0F84C90DAF800A0A9EB0A09C0F8509048
:10432000D0F84C90C0F8489016E0DFF81091D9F81A
:104330000090A144C0F84C9004650DE0FFE74FF0F9
:104340000009C0F84C90C0F85090C0F81C9047F29B
:104350007E29A5F80090B7E7DFF8E4A0BAF800A03E
:10436000D0F84C90B9FBFAFB0AFB1B991FFA89F8AD
:10437000DFF8D09009EBC802B2F80490B9F1000F51
:104380000BD14FF00009C0F81490C0F818901060DD
:104390004FF00109A2F804903EE0116834E0DFF824
:1043A0009CA0D1F84C90DAF800A0A9EB0A09C1F85A
:1043B0005090D0F85090D1F850A0D1450ED9D1F8F6
:1043C0001490B9F1000F01D049691DE04FF00009C8
:1043D000C0F8149081614861002115E0D1F818906F
:1043E000B9F1000F07D14FF00009C0F818904161F2
:1043F0008861106007E0D1F818C0C0F818C04161AA
:10440000CCF81400886100210029C8D1B2F80490CA
:1044100009F10109A2F80490B2F80690B2F804A0DC
:10442000D14503DAB2F80490A2F80690C2614FF0C9
:104430000009A5F8009000BF46E70000C004002076
:1044400070530008AC2B002010B5C269BAB100242B
:1044500004651468844205D14169116039B10024B2
:104460008C6104E0816943694B6103B19961002467
:1044700044618461C461C4649488641E948010BDE6
:10448000002006E0054A02EBC0010022CA80421C5F
:1044900090B2034A12889042F4DB7047AC2B0020A4
:1044A000705300082DE9F05F4FF0000B00BF00BF14
:1044B00000BFFBF7ADFE834600BF00BF7148007828
:1044C000401C7049087000BF00BF5846FBF7A4FEAF
:1044D00000BF00BF00BFFBF7A3FF05466A480068A6
:1044E000401C694908600846006868490988B0FBB3
:1044F000F1F201FB12001FFA80FA654800EBCA08CE
:10450000D8F80040002782E0002C7FD0D4F8149027
:1045100094F83600082875D2DFE800F00408051B7F
:10452000063D075000BF00BF00BF6CE05649E06C7D
:104530000968401A20655449E06C0968884206D130
:10454000002084F836002046FFF7C8FA00E0012773
:1045500059E04D49E06C0968401A20654A49E06C11
:104560000968884215D10020E065A4F86000FBF7D7
:1045700057FF20642046FEF7F2FA2046FFF7AEFA16
:1045800000203434A07003206070002004F8340947
:1045900000E0012737E03C49E06C0968401A2065DB
:1045A0003949E06C0968884206D1042084F8360055
:1045B0002046FFF749FF00E0012724E03249E06C84
:1045C0000968401A20653049E06C0968884217D1B3
:1045D0000020E065A4F86000FBF722FF206420467D
:1045E000FEF7BDFA2046FFF72FFF04203434A070F9
:1045F00003206070002004F8340902E006E001E0C6
:10460000012700E000BF00BF4C4600E00127002F5B
:104610003FF47AAFFBF704FF461B1E480068B04228
:1046200001D21C48066000BF00BF00BFFBF7F0FDD1
:10463000834600BF00BF13480078401E1149087030
:1046400008460078A0B914480088002809DD00BF9A
:1046500000BF5846FBF7E0FD00BF00BFFEF7DAFCE5
:104660000DE000BF00BF5846FBF7D6FD00BF06E0D7
:1046700000BF00BF5846FBF7CFFD00BF00BF00BF23
:10468000BDE8F09F88040020C0040020705300089B
:10469000AC2B0020C40400204C0400201CB500BF3B
:1046A0000EE001AB6A4600210846FCF7DFFFBDF8CB
:1046B000040028B903480078012801D1FFF7F2FE71
:1046C000EFE700004104002010B58AB00446002046
:1046D0001D4908601D490860FFF7C4FD1C480068BB
:1046E00020B947F2122020800AB010BD1948006896
:1046F00019490968884203D247F213202080F3E762
:10470000164800783F2803D347F211202080EBE7BA
:104710000B20002105910A46CDE9070406910D48BA
:1047200000680F4909680A4B1B68CDE90131CDE9E2
:1047300003020A48007800230A4A0BA100900F48A0
:10474000FCF722FD00BFCFE7C0040020C404002016
:104750006053000868530008545300085C53000875
:10476000645300089D46000875432F4F532D494957
:1047700049205469636B205461736B00143400202A
:1047800070B58AB00446002031490860314800689D
:1047900040B1314800682F490968B0FBF1F02F495A
:1047A000086006E02C4800680A21B0FBF1F02B49B4
:1047B00008602A4800682A490860002029490860E2
:1047C00029490860002508E0284800EBC5060020BC
:1047D000B080F0803060681C85B225480088854232
:1047E000F2DB2448006820B947F2473020800AB045
:1047F00070BD2148006821490968884203D247F208
:1048000048302080F3E71E4800783F2803D347F262
:1048100046302080EBE70B2000210591CDE907040D
:104820000691084614490968164A1268114B1B681C
:10483000CDE90132CDE90310114800780023124A76
:1048400012A100901748FCF79FFC00BFCFE70000C3
:10485000C80400207C53000858530008D8040020E6
:10486000DC040020D4040020D0040020342E0020DA
:1048700090530008805300088853000854530008E0
:1048800078530008845300089D49000875432F4F52
:10489000532D4949492054696D6572205461736BE9
:1048A00000000000D8340020F0B50C46022680F845
:1048B0002A60012C05D12D4F466A3F683E4486612F
:1048C0000CE0066A2EB9294F466A3F683E4486616D
:1048D00004E0264F066A3F683E448661244F3F88C5
:1048E0008669B6FBF7FC07FB1C66B5B2214E06EBEA
:1048F000C502166836B900260661466110600126B9
:1049000096802CE0194F86693F68F61BC6611168D6
:1049100020E0164F8E693F68F61BCE61C669CF69ED
:10492000BE4209D90E690EB1096913E0002606617D
:104930004161086100210DE04E692EB900264661F3
:1049400001614861106004E04B69436101611861D5
:10495000486100210029DCD19688761C9680D68893
:104960009788BE4201DA9688D680F0BDD404002034
:1049700090530008342E0020002006E0054A02EB88
:10498000C0010022CA80421C90B2034A12889042A1
:10499000F4DB7047342E0020905300081CB500BF94
:1049A00053E001AB6A4600210846FCF75FFE01A810
:1049B000FCF7E2F9FBF734FD064624480068401C8A
:1049C000224908600846006821490988B0FBF1F2D5
:1049D00001FB12001FFA80FA1E4800EBCA08D8F843
:1049E00000404FF0000B21E0F4B1D4F810901749CB
:1049F000A0690968884214D1204600F02FF8208D64
:104A0000022804D101212046FFF74EFF02E00320D7
:104A100084F82A00A56815B12046E168A8474C46ED
:104A200004E04FF0010B01E04FF0010BBBF1000F70
:104A3000DAD0FBF7F5FC871B01A8FCF709FA06485A
:104A40000068B84201D204480760AAE7D4040020F5
:104A500090530008342E0020D0040020F0B5114EF1
:104A600036888569B5FBF6F706FB1755ACB20E4DD7
:104A700005EBC4021568854205D10169116039B1A1
:104A800000254D6104E0416903690B6103B159617F
:104A9000012580F82A5000250561456195886D1E25
:104AA0009580F0BD90530008342E002029B1064AAD
:104AB00092690243044B9A6104E0034A926982437B
:104AC000014B9A61704700000010024030B5002190
:104AD0000022002400232D4D6D6805F00C0121B14A
:104AE000042905D0082923D105E0294D056022E0DD
:104AF000274D05601FE0254D6D6805F47012234DAC
:104B00006D6805F48034022505EB92421CB9214DF5
:104B1000554305600BE01D4D6D6805F400351DB172
:104B20001C4D5543056002E0194D5543056002E0F8
:104B3000174D056000BF00BF144D6D6805F0F00112
:104B40000909154D6B5C0568DD4045600F4D6D68CA
:104B500005F4E061090A104D6B5C4568DD40856035
:104B60000A4D6D6805F46051C90A0B4D6B5C4568D0
:104B7000DD40C560054D6D6805F44041890B074D6A
:104B80006B5CC568B5FBF3F5056130BD00100240F4
:104B900000127A0000093D00EC040020FC04002013
:104BA000704710B500F002F810BD00000CB50020F1
:104BB000019000903348006840F48030314908602B
:104BC00000BF3048006800F4003000900198401C9D
:104BD0000190009818B90198B0F5A06FF1D129485B
:104BE000006800F4003010B10120009001E00020C6
:104BF00000900098012843D12348006840F010003D
:104C0000214908600846006820F003000860084653
:104C1000006840F0020008601A484068194948607E
:104C20000846406848600846406840F48060486034
:104C30000846406820F47C1048600846406840F40C
:104C4000E81048600846006840F08070086000BFC7
:104C50000C48006800F000700028F9D0094840684E
:104C600020F00300074948600846406840F0020011
:104C7000486000BF0348406800F00C000828F9D1E4
:104C80000CBD00000010024000200240042808D1A2
:104C90004FF0E021096941F004014FF0E022116179
:104CA00007E04FF0E021096921F004014FF0E02214
:104CB0001161704710B505480078012805D1FBF750
:104CC0007FFFFDF79FF8FBF791FF10BD4104002027
:104CD00010B51348006840F001001149086008460B
:104CE0004068104908400E494860084600680E496F
:104CF00008400B4908600846006820F480200860DE
:104D00000846406820F4FE0048604FF41F008860A9
:104D1000FFF747FF4FF000600449086010BD000036
:104D2000001002400000FFF8FFFFF6FE08ED00E073
:104D300010B5FBF745FF40F225511E4800F040F842
:104D400010B31C4800F066F8C4B21B48008800F499
:104D50000040C8B91848008800F4804060B10A2CAF
:104D600003D000201449088020E01348008840F454
:104D700000401149088019E00D2C06D10E4800882A
:104D800040F480400C49088010E00B480088C0F3D4
:104D90000D000A490C5408480088401C0649088048
:104DA00008460088C72801DD00200880FBF71EFFA9
:104DB00010BD000000380140080500209C3500208F
:104DC00070B50246002400230025002040F66A1634
:104DD000B14200D100BFC1F3421501F01F0301260B
:104DE00006FA03F3012D02D19689334006E0022D25
:104DF00002D1168A334001E0968A33400C12012614
:104E000006FA04F41688344013B10CB1012000E016
:104E1000002070BD01468888C0F30800704700BFBD
:104E2000FEE7014600BF70470EB500BF2AE0002430
:104E30001CE04FF480411448FBF786FB02A80021D8
:104E400019230A46CDE900100846FCF7E3FE4FF4AB
:104E500080410D48FBF776FB02A8002119230A4682
:104E6000CDE900100846FCF7D5FE641C0A2CE0DBF7
:104E700002A800214FF4FA730A46CDE90010084653
:104E8000FCF7C8FED3E700000010014010B56FF03A
:104E90000400FFF7FBFE144800681449B0FBF1F072
:104EA00013490870104800681049B0FBF1F411482C
:104EB0000068C910B1FBF0F044430E4800684FF49D
:104EC0007A71B1FBF0F00C4908804FF0E0200069E6
:104ED00040F002004FF0E02108610846446100699B
:104EE00040F00100086110BD0004002000127A00AB
:104EF00000050020585300080205002070B5044644
:104F00000F480078A0B10F48007888B90E48008893
:104F1000844206DB0C48008894FBF0F5284600F03C
:104F20001FF80948008894FBF0F100FB114084B29F
:104F30004FF47A7104FB01F000F01AF870BD000024
:104F400041040020400400200205002008B5684606
:104F5000FBF712FF08BD08B56846FBF779FF08BDEF
:104F600038B504466A4608212046FCF7C7FD38BD1F
:104F70002DE9F047074600264FF0E020D0F81490C6
:104F80001148007807FB00F800BFFFF7DFFF4FF084
:104F9000E020856911E04FF0E0208469AC420CD03C
:104FA000AC4202D2281B064403E0A9EB04002844CB
:104FB00006442546464500D300E0ECE700BFFFF776
:104FC000CAFFBDE8F0870000000500200EB500BF55
:104FD0001DE04FF400510E48FBF7B4FA02A800217F
:104FE0004FF4FA730A46CDE900100846FCF712FEAA
:104FF0004FF400510648FBF7A7FA02A800214FF42E
:10500000FA730A46CDE900100846FCF703FEE0E714
:10501000001001408AB00024FFF738FF4FF4A06071
:10502000FBF7E8FAFBF794FAFBF788F9FBF71AFBB2
:1050300009A8FBF7E3FC00BF00BF00BFFBF7E8F8DF
:10504000044600BF00BF2B480078401C2949087067
:1050500000BF00BF2046FBF7DFF800BF00BF00BF66
:1050600009A8032100220592CDE9062108901046E7
:105070004FF400713322204BCDE90132CDE903100A
:10508000032000231D4A1EA100902048FCF77CF855
:1050900000BF00BF00BFFBF7BBF8044600BF00BF66
:1050A00014480078401E1349087008460078A0B9DB
:1050B00017480088002809DD00BF00BF2046FBF725
:1050C000ABF800BF00BFFDF7A5FF0DE000BF00BFBC
:1050D0002046FBF7A1F800BF06E000BF00BF204656
:1050E000FBF79AF800BF00BF00BF09A8FBF7FAFE64
:1050F00000BFFEE788040020D00500206D510008A5
:105100007374617274207461736B00000C0500206D
:105110004C0400200EB500BFFBF776FAFBF746FB08
:10512000114808238022002100900846FBF77AFBF3
:1051300019E00120FBF788FA02A800214FF4FA7366
:105140000A46CDE900100846FCF764FD0020FBF795
:105150007BFA02A800214FF4FA730A46CDE9001049
:105160000846FCF757FDE4E70000002030B58BB09F
:105170000446002500BFFBF707F90AA8FBF782FFEA
:105180000AAA01210846FBF731FE00BF00BF00BF9D
:10519000FBF73EF8054600BF00BF42480078401CC0
:1051A0004049087000BF00BF2846FBF735F800BF34
:1051B00000BF00BF0AA8032100220592CDE9062105
:1051C0000890104680210C22374BCDE90132CDE901
:1051D000031007200023354A35A100903748FBF71C
:1051E000D3FF0AA8032100220592CDE906210890E9
:1051F000104680210C22324BCDE90132CDE903105B
:10520000052000232F4A30A100903248FBF7BCFF55
:105210000AA8032100220592CDE906210890104634
:1052200080210C222C4BCDE90132CDE90310062060
:1052300000232A4A2AA100902C48FBF7A5FF0AA9BF
:105240002B48FEF767FF00BF00BF00BFFAF7E0FF83
:10525000054600BF00BF13480078401E1149087082
:1052600008460078A0B923480088002809DD00BF5F
:1052700000BF2846FAF7D0FF00BF00BFFDF7CAFE07
:105280000DE000BF00BF2846FAF7C6FF00BF06E0EA
:1052900000BF00BF2846FAF7BFFF00BF00BF00BF36
:1052A0000BB030BD88040020940E0020CD4F0008C4
:1052B0006C6564207461736B00000000D00D0020E9
:1052C00058110020294E0008626565707461736B87
:1052D00000000000941000201C140020155100084C
:1052E0006F6C65647461736B0000000058130020DC
:1052F0000C0500204C0400202C1A00200C0000009B
:1053000080000000000200002C1C00200A000000A9
:10531000400100006C1D00200C0000008000000017
:10532000000200006C1F002080000000000200004E
:1053300064000000400600006C2100203E000000D8
:105340000A000000AC2700200C00000080000000D4
:105350000002000040000000C80000000100000042
:10536000AC2900200C0000008000000000020000BA
:10537000110000008800000002000000640000002E
:10538000342C00200C00000080000000000200000F
:1053900011000000880000009014000001000101CD
:1053A00078563412010100000000000000000000E7
:1053B00000000000000000000000000000000000ED
:1053C00000000000000000000000000000000000DD
:1053D000010101002800040020000100000000007D
:1053E00000000000000000000000000000000000BD
:1053F000000000000000000000000000010020008C
:10540000010010000C00100000000000000000006F
:10541000000000000000000000000000000000008C
:10542000000000000000000000000000000000007C
:1054300000000000010101002C00010020000C0010
:1054400020004000080004000000000000000000F0
:10545000000000000000000000000000000000004C
:10546000000000000000000000000000000000003C
:1054700000000000000000000101010130000100F7
:10548000000000000000000000000000000000001C
:10549000000000000000000000000000000000000C
:1054A00000000000000000000101010128000C00C4
:1054B00000030000040101010101010101000101DB
:1054C000C40008000101000000000000000000000E
:1054D00000000000000000000000000000000000CC
:1054E00000000000000000000000000000000000BC
:1054F0000000000000000000000000000101340076
:1055000008005C769607000028550008000000207F
:105510000C05000028010008405600080C0500207A
:10552000BC37000084010008012A7A8001092C1C84
:10553000013E880C80C0E0F0F87C3E1E0F0F070192
:1055400048090F0F1E3E7CF8F8F01BAA1F1C391BE0
:105550001AFC1B09438A080813E0FCFFFFFF070140
:10556000F0110517010303030742031FFFFFFEF8B5
:105570001B037F800A13C0962CFFFEE0890B12F0FC
:10558000F8EC1B80FE2102441F1C030F3F4BBCEFB5
:10559000CF0F013A07E24809FFF0FEFF7F1F030724
:1055A000146A067C2BE0F817034907011808010369
:1055B0000F1F3F7EFCE98BC080EB2A01758A03F345
:1055C000880C80C0E0F0F8FC7E3F1F0F0716014DED
:1055D0002A01EB180C1F3E3E7C78F8F0F0E0E0C0AA
:1055E00001280BE0E0F0F0F87C7C3E3E1F770A1BC0
:1055F00003F426C0F0F8F8F81A08060E3C08C8F8BC
:10560000F8388C1D01030307720B1B030174A118EA
:105610000B060727253F3F3F24242006200A2107A9
:10562000070701207070207CA24A04540008DC02A5
:1056300003040607080929E469E8C502040608000E
:04000005080000ED02
:00000001FF
