:020000040800F2
:100000000032002089010008B30500080D05000832
:100010004905000845030008FB4A000800000000ED
:100020000000000000000000000000007D48000803
:10003000ED030008000000009B0200089149000841
:10004000A3010008A3010008A3010008A301000800
:10005000A3010008A3010008A3010008A3010008F0
:10006000A3010008A3010008A3010008A3010008E0
:10007000A3010008A3010008A3010008A3010008D0
:10008000A3010008A3010008A3010008A3010008C0
:10009000A3010008A3010008A3010008A3010008B0
:1000A000A3010008A3010008A3010008A3010008A0
:1000B000A3010008A3010008A3010008A301000890
:1000C000A3010008A3010008A3010008A301000880
:1000D000A30100080D4A0008A3010008A3010008BD
:1000E000A3010008A3010008A301000800F002F822
:1000F00000F03AF80AA090E8000C82448344AAF188
:100100000107DA4501D100F02FF8AFF2090EBAE885
:100110000F0013F0010F18BFFB1A43F0010318473B
:10012000644F0000844F0000103A24BF78C878C1A3
:10013000FAD8520724BF30C830C144BF04680C60ED
:10014000704700000023002400250026103A28BF35
:1001500078C1FBD8520728BF30C148BF0B60704739
:100160001FB51FBD10B510BD00F04DF81146FFF7CB
:10017000F7FF04F055FD00F06BF803B4FFF7F2FF52
:1001800003BC04F0BCFC0000094880470948004754
:10019000FEE7FEE7FEE7FEE7FEE7FEE7FEE7FEE737
:1001A000FEE7FEE704480549054A064B7047000094
:1001B000AD490008ED000008002C002000320020AE
:1001C000002E0020002E002072B6704762B67047E5
:1001D000EFF3108072B6704780F31088704730BF1D
:1001E000704720BF7047B0FA80F0704790FAA0F0D7
:1001F000B0FA80F0704790FAA0F0704770477047EF
:10020000704770477047754600F028F8AE46050005
:100210006946534620F00700854618B020B5FFF721
:10022000C1FFBDE820404FF000064FF000074FF03F
:1002300000084FF0000B21F00701AC46ACE8C00904
:10024000ACE8C009ACE8C009ACE8C0098D4670470D
:100250000446AFF300802046FFF78FFF0048704749
:10026000A02B00201D484FF6FF710170002080F385
:1002700009881B48016881F308881A484FF08051AB
:10028000016062B6FEE717484FF080510160704789
:1002900014484FF080510160704772B6EFF3098047
:1002A00028B1203880E8F00F0F490968086000B5D0
:1002B0000E4880475DF804EB0D480E490A7802703D
:1002C00009480D490A680260106890E8F00F203074
:1002D00080F309884EF0040E62B6704722ED00E00C
:1002E000E800002004ED00E0E000002051170008C5
:1002F0006E0000206F000020E400002008B50121FE
:10030000102004F041FA4FF48040ADF800001020B6
:100310008DF8030003208DF802006946044800F0C0
:1003200066F84FF48041024800F0ECF808BD000088
:100330000010014000B585B0684604F035FA019818
:1003400005B000BD00BFFEE710B500F01FF800F0DB
:1003500019F810BD10B5002400BF00BFFFF738FF2B
:10036000044600BF00BF1021054800F0EFF800BFB1
:1003700000BF2046FFF730FF00BF00BF10BD0000E8
:10038000580F002010B5FFF7E5FF10BD10B5002095
:100390000249086000F00AF810BD000014000020B7
:1003A00001490860704700001400002010B5FFF7F5
:1003B000C1FF04460848006840F0807006490860A4
:1003C0000020064948600846006840F001000860C7
:1003D0002046FFF7E5FF10BDFCED00E0001000E057
:1003E0000149486870470000001000E070472DE99F
:1003F000F0410246002500260020002300240027AB
:1004000091F803C00CF00F0591F803C00CF0100C2C
:10041000BCF1000F03D091F802C04CEA050591F839
:1004200000C0BCF1000F31D0146800202BE04FF069
:10043000010C0CFA00F3B1F800C00CEA03069E426E
:1004400020D183004FF00F0C0CFA03F7BC4305FAE0
:1004500003FC4CEA040491F803C0BCF1280F06D158
:100460004FF0010C0CFA00FCC2F814C00AE091F83D
:1004700003C0BCF1480F05D14FF0010C0CFA00FC91
:10048000C2F810C0401C0828D1D31460B1F800C0D5
:10049000BCF1FF0F34DD546800202EE000F1080CA1
:1004A0004FF0010808FA0CF3B1F800C00CEA03069B
:1004B0009E4221D183004FF00F0C0CFA03F7BC438E
:1004C00005FA03FC4CEA040491F803C0BCF1280FC0
:1004D00005D100F1080C08FA0CF8C2F8148091F864
:1004E00003C0BCF1480F07D100F1080C4FF0010820
:1004F00008FA0CF8C2F81080401C0828CED35460CB
:10050000BDE8F081416170470161704700BFFEE7BF
:1005100008B50121102004F037F94FF40050ADF870
:10052000000010208DF8030003208DF802006946BA
:100530000448FFF75CFF4FF400510248FFF7E4FF67
:1005400008BD00000010014000BFFEE730B50546C1
:100550000C4622460021284600F001F830BD2DE966
:10056000F04105460B4694460027002402E03F0276
:100570001F43641C042CFAD3604605F00306294689
:1005800046B1344603E001F8013B401E641C08B14B
:10059000042CF8D30A4601E080C2001F0428FBD2D5
:1005A000114602E001F8013B401E0028FAD1BDE8E7
:1005B000F081704702490143024A11607047000010
:1005C0000000FA050CED00E01548164816481748DB
:1005D000174818481848194819481A481A481B4813
:1005E0001B481C481C481D481D481E481E481F48E3
:1005F0001F482048204821482148224822482348B3
:100600002348244824482548254826482648274882
:100610002748284828482948294800BF7047000033
:10062000144F0008744E0008784E00087C4E0008F5
:10063000804E0008844E0008884E00088C4E00084A
:10064000904E0008944E0008984E00089C4E0008FA
:10065000A04E0008A44E0008A84E0008AC4E0008AA
:10066000B04E0008B44E0008B84E0008BC4E00085A
:10067000C04E0008C44E0008C84E0008CC4E00080A
:10068000D04E0008D44E0008D84E0008DC4E0008BA
:10069000E04E0008E44E0008E84E0008EC4E00086A
:1006A000F04E0008F44E0008F84E0008FC4E00081A
:1006B000004F0008044F0008084F00080C4F0008C6
:1006C000104F000810B50348006810B101480068D9
:1006D000804710BD2C00002070B5044600F0C2F821
:1006E000002048490870484908704849087048493E
:1006F00008604849086048490870484908704849F6
:1007000008704849086048490860484908604849F5
:100710000870484800680A21B0FBF1F046490860BB
:100720004648006858B14648056845B143480668E0
:1007300003E0761E002028602D1D002EF9D1002038
:1007400040490860404908604049086040490860E5
:1007500040490860404908604049086040490870C5
:1007600002F02EF902F00EFA204601F0BDFA2088C0
:1007700000B170BD204601F09FFE208800B1F8E76F
:10078000204601F0C1FE208800B1F2E7204601F0CA
:100790008DFF208800B1ECE7204602F041F9208867
:1007A00000B1E6E7204602F065FB208800B1E0E7F3
:1007B000204602F087FE208800B1DAE7204601F0EB
:1007C000E7FD208800B1D4E7204601F0FFFB208838
:1007D00000B1CEE7204603F0E5FD208800B1C8E770
:1007E000204602F0B3FD208800B1C2E7204603F0A6
:1007F00035FE208800B1BCE701F09EF9FFF7E4FE6A
:1008000000BFB6E740000020410000208800002023
:10081000E0000020E40000206E0000206F000020B7
:10082000700000207C000020800000208400002058
:1008300090000020D44E00088C000020A44E000838
:10084000A04E0008200000202400002028000020E6
:100850002C00002030000020340000203800002050
:10086000BE0000200A4A1168002002E0002204C1F4
:10087000401C084A12689042F8D3054A1268054B9A
:100880001B6802EB8302121F034B1A6070470000C3
:10089000A04E0008A44E0008E80000200848007898
:1008A000012800D0704707480078FA2800DBF9E7F4
:1008B00004480078401C0349087000BFF2E70000BC
:1008C000410000204000002010B500242E48007890
:1008D000012800D010BD00BFFFF77AFC044600BF1E
:1008E0002A48007828B900BF2046FFF775FC00BFF2
:1008F000F0E726480078401E244908700846007832
:10090000002805DD00BF2046FFF766FC00BFE1E7D9
:100910001F480078002805DD00BF2046FFF75CFC7B
:1009200000BFD7E702F038F81A4908700846007887
:1009300000EB4000184951F82000184908600846AB
:10094000006817490968884205D100BF2046FFF7B3
:1009500043FC00BFBEE711480068D0F89000401C7F
:100960000E490968C1F890000E480068401C0D4906
:1009700008604FF080500C49086000BF2046FFF728
:100980002BFC00BF00BFA5E7410000204000002075
:10099000880000206F0000208C250020E40000204B
:1009A000E0000020B400002004ED00E010B50024B9
:1009B00020480078002800DD10BD1F48007800287E
:1009C00000DDF9E700BFFFF703FC044600BF01F0BC
:1009D000E3FF1A4908700846007800EB4000184908
:1009E00051F8200017490860084600681649096850
:1009F000884205D100BF2046FFF7EEFB00BFDBE7D2
:100A000010480068D0F89000401C0E490968C1F8F1
:100A100090000E480068401C0C4908604FF0805060
:100A20000B49086000BF2046FFF7D6FB00BF00BFA0
:100A3000C2E7000040000020880000206F00002076
:100A40008C250020E4000020E0000020B4000020FD
:100A500004ED00E070B50446002518480078002831
:100A600003DD46F66250208070BD154800780128ED
:100A700003D045F689602080F6E712480078FA280E
:100A800003DB45F209202080EEE700BF00BFFFF73F
:100A90009FFB054600BF00BF0A480078401C09497B
:100AA000087002F053F900BF00BF2846FFF794FB1F
:100AB00000BF00BF0020208000BFD5E7400000201D
:100AC00041000020880000202DE9F04105460C4639
:100AD0001646002700BF00BFFFF77AFB074600BF9E
:100AE00000BF012D03D000200D49087002E0012055
:100AF0000B49087014B10B48046006E00A4800680E
:100B00000A21B0FBF1F00749086000BF00BF38467A
:100B1000FFF762FB00BF00BF00203080BDE8F0811E
:100B2000900000208C000020D44E000870B50446D0
:100B3000002520480078002803DD46F66550208017
:100B400070BD1D480078012803D045F689602080DB
:100B5000F6E71A48007818B946F664502080EFE7A7
:100B600000BF00BFFFF734FB054600BF00BF1348BE
:100B70000078401E114908700846007800280ADDF8
:100B800000BF00BF2846FFF727FB00BF00BF46F6A7
:100B900063502080D4E702F0E7F800BF00BF28468A
:100BA000FFF71AFB00BF00BFFFF700FF0020208007
:100BB00000BFC5E740000020410000208800002061
:100BC00010B5044612480078E8B901F0E5FE114975
:100BD000087008460078104908700E48007800EB4D
:100BE00040000E4951F820000D4908600846006891
:100BF0000C490860012006490870FFF733FB43F6F3
:100C00009920208002E045F68A60208010BD000017
:100C1000410000206F0000206E0000208C25002085
:100C2000E4000020E00000202DE9F04107464FF0ED
:100C3000000800BF00BFFFF7CBFA804600BF00BF2F
:100C400000203D4908603D4908803D4908803D49F4
:100C500008603D4908603D4908603D4908603D49DC
:100C6000088100BF00BF4046FFF7B6FA00BF00BFD3
:100C700000BF00BFFFF7ACFA804600BF00BF364898
:100C8000046800BF00BF4046FFF7A6FA00BF00BFE0
:100C900021E000BF00BFFFF79BFA804600BF00BF06
:100CA00000207834E06320602063A061A082E082AD
:100CB0006062A062FFF794FB2062783C04F1640656
:100CC0000020B081D4F8BC4000BF00BF4046FFF711
:100CD00083FA00BF00BF002CDBD100BF00BFFFF7CD
:100CE00077FA804600BF00BF1C48056800BF00BF00
:100CF0004046FFF771FA00BF00BF12E000BF00BF1F
:100D0000FFF766FA804600BF00BF05F1200600200D
:100D1000B081AD6900BF00BF4046FFF75DFA00BF7C
:100D200000BF002DEAD103F019FA03F093FC002074
:100D30003880BDE8F0810000540000204E00002003
:100D40009E000020B0000020C4000020D000002041
:100D50008000002080250020B800002074000020C2
:100D6000F8B5044600266946324800F0C1FCBDF8DB
:100D7000000018B1BDF800002080F8BD6A460021CF
:100D8000022000F029FDBDF8000018B1BDF80000F8
:100D90002080F2E700BF00BFFFF71AFA064600BF47
:100DA00000BF00202449086000BF00BF3046FFF7A5
:100DB00013FA00BF00BF00252048006820490968D9
:100DC000884205D91D4800681D490968B0FBF1F546
:100DD00025B91A4800680A21B0FBF1F56A460021DE
:100DE000284600F0F9FC6946124800F063FABDF8A5
:100DF000000018B1BDF800002080BEE700BF00BFB2
:100E0000FFF7E6F9064600BF00BF00200D49086065
:100E1000094800680C49086001200C49087000BFAF
:100E200000BF3046FFF7D8F900BF00BF0020208088
:100E300000BFA2E7142A0020A0000020D44E000822
:100E4000BC4E0008B0000020A4000020AC00002030
:100E500010B50348006810B101480068804710BD14
:100E6000300000202DE9FF4F87B004469046DDE9B1
:100E70001BA5DDE91496179F002003908748007892
:100E8000002805DD47F24A1028800BB0BDE8F08F3E
:100E90001CB947F2AD102880F7E7B8F1000F03D175
:100EA00047F24F102880F0E71EB946F62F602880E1
:100EB000EBE77B480068874203D246F63060288023
:100EC000E3E71698B84203D346F631602880DCE7A2
:100ED000B9F1400F03D346F273202880D5E7B9F16A
:100EE000000F06D16F48844203D046F27320288059
:100EF000CBE7B9F13F0F06D16B48844203D046F2ED
:100F000073202880C1E7204602F0ECFA00202880F8
:100F10000AF0010090B10AF0020078B105960020B5
:100F2000069008E00021059801600598001D0590D5
:100F30000698401C06900698B842F3D3169806EB24
:100F400080000490CDE9007A32464046049B0A991D
:100F500000F06EFB0590C4F828800A98E0620898BB
:100F6000206284F83790059820600498A060199852
:100F70006065199818B94D480068A06501E0199896
:100F8000A0651A9860606662A763A4F83CA04FF061
:100F9000000B08E0002104F17C0040F82B100BF15D
:100FA000010000F0FF0BBBF1000FF3D004F164006F
:100FB000189901F0F5FA204600F082F800BF00BF52
:100FC00000BFFFF705F9039000BF00BF3848007865
:100FD000401C3749087000BF00BF0398FFF7FCF8BA
:100FE00000BF00BF00BF94F8370001F0F5FC2046B9
:100FF00001F010FE204602F02BFA2E480088401C1B
:101000002C4908802C48007801282DD000BF00BF53
:1010100000BFFFF7DDF8039000BF00BF2448007851
:10102000401E2349087008460078A0B9234800886C
:10103000002809DD00BF00BF0398FFF7CDF800BF0F
:1010400000BF01F055FE0DE000BF00BF0398FFF7A1
:10105000C3F800BF06E000BF00BF0398FFF7BCF86D
:1010600000BF00BF00BF10E700BF00BF00BFFFF719
:10107000AFF8039000BF00BF0D480078401E0C4938
:10108000087000BF00BF0398FFF7A6F800BF00BFBD
:1010900000BFFFF78BFC00BFF7E600004000002018
:1010A000D04E0008BC240020F82300208C00002033
:1010B00088000020BC000020410000204C000020DF
:1010C00010B504460348006818B120460149096874
:1010D000884710BD2000002070B504460D4600264C
:1010E00067480078002803DD47F24E10288070BD65
:1010F0006448844203D147F24C102880F7E76248E5
:10110000844203D147F24D102880F0E77CB900BF3C
:1011100000BFFFF75DF8064600BF00BF5B480468EC
:1011200000BF00BF3046FFF757F800BF00BF00BF49
:1011300000BF00BFFFF74CF8064600BF00BF544891
:101140000078401C5249087000BF00BF3046FFF7CE
:1011500043F800BF00BF00BF94F8360008282DD226
:10116000DFE800F004090E10080A0F11204601F014
:1011700091FD54E053E000BF204602F0D3FF4EE063
:1011800000BF00BF00BF204602F0CCFF94F834003F
:10119000082810D2DFE800F004070508090A0B064A
:1011A00000BF00BF08E000BF00BF00BF00BF204677
:1011B00001F043FB00E000BF00BF30E000BF00BF14
:1011C00000BFFFF705F8064600BF00BF30480078B3
:1011D000401E2F49087008460078A0B92D480088A5
:1011E000002809DD00BF00BF3046FEF7F5FF00BF55
:1011F00000BF01F07DFD0DE000BF00BF3046FEF7EF
:10120000EBFF00BF06E000BF00BF3046FEF7E4FF83
:1012100000BF00BF00BF46F62D60288067E700BF13
:1012200004F1640001F09AF9204600F037F82046F6
:1012300002F026F918480088401E17490880204609
:1012400002F050F9FF2084F8360000BF00BF00BF55
:10125000FEF7BEFF064600BF00BF0D480078401EE7
:101260000B49087000BF00BF3046FEF7B5FF00BF56
:1012700000BF00BF00202880FFF798FB00BF36E7C3
:1012800040000020F8230020BC240020E0000020C3
:10129000880000204C000020BC00002010B504464F
:1012A0000348006818B1204601490968884710BD05
:1012B000240000207FB504460D46002600BF00BF75
:1012C000FEF786FF064600BF00BF1CB11548006848
:1012D00084420AD100BF00BF3046FEF77DFF00BF49
:1012E00000BF47F2571028807FBD00BF00BF3046C7
:1012F000FEF772FF00BF00BF0B48007800280BDD2F
:10130000002000900190034602462146CDE90205E7
:10131000064800F093FEE7E72946204602F05AFA15
:1013200000BFE1E7E0000020400000205452455398
:1013300010B504460348006818B120460149096801
:10134000884710BD280000202DE9F04780460E4652
:1013500014461D464FF000097D480078002805DD41
:1013600046F2AE1028800020BDE8F0871EB1B6F529
:10137000004F02D100E000BF04E045F62560288060
:101380000020F1E700BF0CB10020206000BF00BFCB
:10139000FEF71EFF814600BF00BF6E480068406C2C
:1013A000A8B36C480068406C401E6A4909684864EC
:1013B00068480068476C1CB166480068006C206093
:1013C000FFF70EF863490968096C401A614909681A
:1013D000C1F8A4005F480068D0F8A8005D4909681A
:1013E000D1F8A410884207D25A480068D0F8A40067
:1013F00058490968C1F8A80000BF00BF4846FEF779
:10140000EBFE00BF00BF002028803846ACE7FFE7B6
:1014100006F4004058B100BF00BF4846FEF7DCFEAE
:1014200000BF00BF46F2B010288000209CE74A4869
:10143000007800280BDD00BF00BF4846FEF7CCFE59
:1014400000BF00BF46F66350288000208CE700BF35
:1014500041480078401C4049087000BF00BF484622
:10146000FEF7BAFE00BF00BF00BF434607220021BF
:10147000084601F027F900BF00BF00BFFEF7A8FE35
:10148000814600BF00BF34480078401E32490870D2
:1014900000BF00BF4846FEF79FFE00BF00BF00BF71
:1014A000FFF784FA00BF00BFFEF792FE814600BF3F
:1014B00000BF2848006890F8350020B1012826D0E8
:1014C000032834D12CE0FCB122480068006C206075
:1014D000FEF786FF1F490968096C401A1D49096813
:1014E000C1F8A4001B480068D0F8A8001949096891
:1014F000D1F8A410884207D216480068D0F8A4009A
:1015000014490968C1F8A8000020288013E01CB124
:1015100010480068006C206046F2A91028800AE09C
:101520000CB10020206047F2D920288003E046F665
:101530002E60288000BF00BF06480068476C00BFCF
:1015400000BF4846FEF748FE00BF00BF38460BE725
:1015500040000020E0000020880000202DE9F04736
:1015600005460E4617461C464FF0000A2E480078E6
:10157000002804DD47F259102080BDE8F0871EB92D
:1015800046F2D5202080F8E71FB946F2D52020800A
:10159000F3E700BF00BFFEF71BFE824600BF00BF9F
:1015A0000DB922480568286868B900BF00BF5046D9
:1015B000FEF712FE00BF00BF00203060386047F227
:1015C00052102080D9E795F83C0000F0010068B97E
:1015D00000BF00BF5046FEF7FFFD00BF00BF002068
:1015E0003060386047F254102080C6E700BF00BF6B
:1015F0005046FEF7F1FD00BF00BF4FF00008D5F8E0
:10160000249003E009F1040908F10108D9F8000069
:101610000028F7D0C6F80080A86BA0EB080038605F
:101620000020208000BFA8E740000020E00000204C
:10163000F0B50446DDE9055602EB85004FF0807CED
:10164000071F3846C7F800C0071F38463C60DFF860
:101650009CC0071F3846C7F800C04FF0123C071F58
:101660003846C7F800C04FF0033C071F3846C7F89C
:1016700000C04FF0023C071F3846C7F800C0071FE4
:1016800038463B60071F384639604FF0113C071F52
:101690003846C7F800C04FF0103C071F3846C7F85F
:1016A00000C04FF0093C071F3846C7F800C04FF094
:1016B000083C071F3846C7F800C04FF0073C071F1B
:1016C0003846C7F800C04FF0063C071F3846C7F839
:1016D00000C04FF0053C071F3846C7F800C04FF068
:1016E000043C071F3846C7F800C0F0BD1539000894
:1016F0007FB505460C461248854203D147F25B1080
:1017000020807FBD0F48854203D147F25C102080C6
:10171000F7E70D48007800280BDD002000900190CD
:10172000034602462946CDE90204084800F086FC3B
:10173000E7E72146284602F05BFB00BFE1E7000037
:10174000F8230020BC2400204000002054535553AF
:1017500010B51D48006810B11B4800688047FEF7AF
:101760003FFE04461948006819490968884215D0A7
:1017700016480068D0F89800201A14490968C1F882
:10178000940012480068D0F89C0010490968D1F80C
:10179000941008440D490968C1F89C000C48006881
:1017A000C0F8984009480068D0F8B40009490968B1
:1017B000884205D20748006804490968C1F8B400A6
:1017C00000200449086010BD34000020E000002023
:1017D000E4000020840000202DE9F04105460E467B
:1017E000144600273F480078002804DD47F27520A2
:1017F0002080BDE8F0813C480078002803DD46F6F3
:1018000063502080F5E736B1022E05D0042E0AD0B1
:10181000082E09D101E000BF00BF1DB947F27E20AC
:101820002080E6E704E003E045F625602080E0E75D
:1018300000BF00BF00BF00BFFEF7CAFC074600BFE5
:1018400000BF29480078401C2749087000BF00BF2E
:101850003846FEF7C1FC00BF00BF00BF012023498E
:10186000096881F836002346324629461F48006839
:1018700002F07AFB2088A8B100BF00BF00BFFEF7CE
:10188000A7FC074600BF00BF17480078401E164956
:10189000087000BF00BF3846FEF79EFC00BF00BFC7
:1018A00000BFA6E71148006801F0F4F900BF00BFCF
:1018B00000BFFEF78DFC074600BF00BF0A48007856
:1018C000401E0949087000BF00BF3846FEF784FC7F
:1018D00000BF00BF00BFFFF769F80020208000BFF5
:1018E00087E700004000002088000020E000002082
:1018F0002DE9FF5F05460E4617469846DDE90EA422
:101900000020009072480078002804DD47F275201E
:101910002080BDE8FF9F6F480078002803DD46F671
:1019200063502080F5E70AF00E0BBBF1000F09D0E1
:10193000BBF1020F07D0BBF1040F10D0BBF1080FB1
:101940000ED101E000BF00BFB8F1000F06D12FB9E2
:1019500026B91DB947F27E202080DAE704E003E0D3
:1019600045F625602080D4E700BF2AF01E0008B1AC
:10197000012000E0002003900398012803D145F6E0
:1019800025602080C5E7CAF3001002900298C0B914
:10199000B8F57A7F03D347F27B202080B9E73B2F4D
:1019A00003DD47F27A202080B3E73B2E03DD47F2C8
:1019B00079202080ADE7632D12DD47F2782020806A
:1019C000A7E742F20F70864203DD47F279202080BC
:1019D0009FE7B5F57A7F03DB47F27820208098E710
:1019E0003D48D0F800904FF4FA70B0FBF9F0404455
:1019F00000FB09F04FF47A71B0FBF1F14FF4616034
:101A00006843C6EB061200EB8200384400FB091065
:101A100001900198002856D000BF00BF00BFFEF71C
:101A2000D7FB009000BF00BF2A480078401C29491E
:101A3000087000BF00BF0098FEF7CEFB00BF00BFDC
:101A400000BF01202549096881F8360023465A461F
:101A500022480199006802F087FA2088A8B100BFE7
:101A600000BF00BFFEF7B4FB009000BF00BF1948E5
:101A70000078401E1749087000BF00BF0098FEF7AD
:101A8000ABFB00BF00BF00BF43E71448006801F094
:101A900001F900BF00BF00BFFEF79AFB009000BF36
:101AA00000BF0C480078401E0A49087000BF00BF04
:101AB0000098FEF791FB00BF00BF00BFFEF776FF66
:101AC0000020208002E047F27E20208000BF20E737
:101AD0004000002088000020D44E0008E0000020D4
:101AE00010B586B000F01EF8FEF77AFC044605A893
:101AF00000210091CDE9011403900748007800EB24
:101B00004000064A02EB800100231A46044800F018
:101B100095FA06B010BD00006E0000208C25002054
:101B20005449434B10B50348006810B101480068A0
:101B3000804710BD38000020244825482548264805
:101B400026482748274828482848294829482A4815
:101B50002A482B482B482C482C482D482D482E48E5
:101B60002E482F482F4830483048314831483248B5
:101B70003248334833483448344835483548364885
:101B800036483748374838483848394839483A4855
:101B90003A483B483B483C483C483D483D483E4825
:101BA0003E483F483F4840484048414841484248F5
:101BB00042484348434844484448454845484648C5
:101BC00046484748474800BF70470000184F000884
:101BD000805000081A4F00081B4F00081C4F0008D7
:101BE000204F0008244F0008214F00084C4F0008E8
:101BF0004D4F00084E4F0008504F0008524F00084C
:101C0000544F0008564F0008584F0008784F0008FE
:101C10007A4F00087C4F00087E4F0008804F000874
:101C2000824F0008844F0008B04F0008B14F0008F1
:101C3000B24F0008B44F0008B64F0008B74F000875
:101C4000B84F0008BA4F0008BC4F0008BE4F00084C
:101C5000C04F0008C24F0008C44F0008F44F0008EE
:101C6000F54F0008F64F0008F74F0008F84F00083E
:101C7000FA4F0008FC4F00082450000825500008C7
:101C80002650000827500008285000082A50000855
:101C90002C50000830500008315000083250000825
:101CA0003350000834500008355000083650000802
:101CB00037500008385000083A5000083B500008E0
:101CC0003C5000083E5000084050000841500008B9
:101CD0004450000878500008795000087A500008F5
:101CE0007C5000087E5000080021034A1160034A1E
:101CF0001180018070470000580000205C00002027
:101D00002DE9F04F85B00446894692469B46DDF8A2
:101D100038800020009000BF00BFFEF759FA009005
:101D200000BF00BFBAF1000F0AD0BAF1010F0DD009
:101D3000BAF5004F05D06FF40040504460B906E09A
:101D400000BF206A40EA0900206214E000BF206A58
:101D500020EA090020620EE000BF00BF0098FEF7F5
:101D60003BFA00BF00BF45F62560A8F80000002040
:101D700005B0BDE8F08F00BFC4F824B004F108003E
:101D800001900198008958B900BF00BF0098FEF784
:101D900023FA00BF00BF0020A8F80000206AE7E790
:101DA00000BF61480078401C5F49087000BF00BF59
:101DB0000098FEF711FA00BF00BF00BF0198076846
:101DC000BD687FE07868029095F8880000F00F0009
:101DD00003900398012821D002282ED0042802D095
:101DE000082836D10EE0206AD5F8801000EA0106F6
:101DF000D5F88000B04204D15A463146284600F05A
:101E000097F859E0206AD5F8801000EA010626B15B
:101E10005A463146284600F08BF84DE0D5F8800050
:101E2000216A20EA0106D5F88000B04204D15A4662
:101E30003146284600F07CF83EE0D5F88000216A63
:101E400020EA010626B15A463146284600F070F8CD
:101E500032E000BF00BF00BFFEF7BAF9009000BF3C
:101E600000BF31480078401E2F49087008460078AE
:101E7000A0B92E480088002809DD00BF00BF0098E7
:101E8000FEF7AAF900BF00BF00F032FF0DE000BF6F
:101E900000BF0098FEF7A0F900BF06E000BF00BF3A
:101EA0000098FEF799F900BF00BF00BF43F6FF207E
:101EB000A8F8000000205BE700BF029F0FB1BD68DB
:101EC00000E00025002D7FF47DAF00BF00BF00BF04
:101ED000FEF77EF9009000BF00BF13480078401E57
:101EE0001149087000BF00BF0098FEF775F900BFE8
:101EF00000BF00BF0AF4004008B9FEF757FD00BF5D
:101F000000BFFEF765F9009000BF00BF206A049093
:101F100000BF00BF0098FEF75FF900BF00BF0020C0
:101F2000A8F80000049823E7880000204C00002057
:101F300070B504460E4615463434266500206070A0
:101F40002070E560A078343C082816D2DFE800F065
:101F5000040508090706101100BF00BF00BF0DE00F
:101F600000BF204601F028FC002084F8360005E080
:101F700000BF042084F8360000E000BF00BF204608
:101F800000F05BFC70BD0000002400BF19E000BF42
:101F900000BFFEF71DF9044600BF00BF09480068F6
:101FA000401C0849086008480068401C0649086051
:101FB00000BF00BF2046FEF70FF900BF00BFFEF7CD
:101FC00081FBE4E73C000020A000002010B58AB0AF
:101FD000044600200E4908600B2000210591CDE940
:101FE0000704069108460B4909680B4A12680B4B17
:101FF0001B68CDE90132CDE903103F200023084AD8
:1020000008A100900C48FEF72DFF0AB010BD00009B
:102010003C0000207C4E0008784E0008744E0008FA
:10202000891F000875432F4F532D494949204964A2
:102030006C65205461736B00F82300202DE9F84F84
:1020400004460D4616461F46DDE90BABDDF8289029
:10205000DDF834800020009000BF00BFFEF7B8F824
:10206000009000BF00BF2B4800882B490988884298
:102070003EDA28480088401C264908802748008806
:102080000988884203DA23480088244908802448C4
:102090000068046022480068856021480068C660C6
:1020A0001F48006807821E480068C0F814901C484A
:1020B0000068A0F818A01A480068C0F81CB01848BA
:1020C00000684068164908600120164908811648D2
:1020D00008604860002000F07FFC1448007818B1C8
:1020E00012480078124908700020A8F8000008E0A3
:1020F00010480088401C0F49088044F25360A8F83B
:10210000000000BF00BF0098FEF766F800BF00BFE8
:10211000BDE8F88F4C000020884E00084E000020DB
:10212000440000208C250020BC2400206E000020EC
:1021300070000020500000203EB55948006800683B
:10214000584A811A904279D00FDC57490844002838
:102150003ED056490844A8B155490844002860D0EB
:102160005449084400286AD13FE0534808440028F5
:1021700050D052490844002862D0514908440028F0
:10218000F1D110E002A8464D00902D68EB69444D56
:102190002D682A8B424D2D686969414D2D68A868CC
:1021A000FFF7AEFD7AE002A93D480068C0693C4DEA
:1021B000CDE900012D682B8B394D2D682A8A384DC9
:1021C0002D68E968364D2D68A86800F035FC65E09B
:1021D000334B1B68DA69324B1B68198B304B1B6819
:1021E000986802AB00F052FE58E002A92C48006843
:1021F000C0692B4DCDE900012D682B8B284D2D6832
:102200002A8A274D2D68E968254D2D68A86801F0B8
:10221000CDF943E022490968886802A901F0DAFA99
:102220003CE01F4B1B68DA691D4B1B68198B1C4B6C
:102230001B68986802AB01F079FB2FE007E02CE007
:1022400017490968886802A901F0D2FD26E01D49F6
:10225000097801EB41011C4A02EB810000F0A2FD6C
:102260000F48006802AB0021C269184801F05EFB0C
:1022700017480068401E164908600846006858B9AB
:10228000144800680860FEF7ABF8044602AB22462B
:102290000021114801F04AFB00E000BF00BF3EBD35
:1022A000480000205449434BADBAB2BE0DF90BFAB9
:1022B000F2F8F7FF0006F6FF00F7FDF700FFEFFF6B
:1022C00003FE0FFE700000208C2500205029002006
:1022D000DC000020D8000020142A0020002700BFC6
:1022E0004CE0002648E000BF00BFFDF771FF074645
:1022F00000BF00BF2248008888B90020214908811A
:102300000860486000F07AFB00BF00BF3846FDF768
:1023100063FF00BF00BFFEF749FB01262CE000BFB2
:1023200000BF3846FDF758FF00BF00BFFEF758F862
:102330000546FFF701FFFEF753F8441B12480068FB
:10234000A04201D21048046000BF00BFFDF740FF6B
:10235000074600BF00BF0D48006840680B49086091
:1023600007480088401E0649088000BF00BF384665
:10237000FDF732FF00BF00BF002EB4D0B1E7000070
:102380004C0000208C250020540000204800002034
:10239000F0B589B005460020314908803148006811
:1023A00020B944F25260288009B0F0BD2E48008860
:1023B000022803DA44F254602880F5E700202B4914
:1023C0000860284804682646203600270CE0284884
:1023D00020600020A060E060208260612083666051
:1023E00020342036781C87B21F4800888742EEDBF5
:1023F000203C1C48066866601E4806601E48066051
:1024000000201E4908801E4908801E48006818B92F
:1024100044F255602880C7E71B4800681B490968DB
:10242000884203D244F256602880BDE70320002191
:102430000591CDE90705069113480068144A126812
:10244000104B1B68CDE90301CDE9013200910B4629
:10245000104A11A11748FEF705FD00BFA4E70000D0
:1024600050000020844E0008884E000854000020D0
:102470004E4F4E4544000020480000204C000020F4
:102480004E000020904E0008984E0008D04E0008E4
:10249000944E0008DD22000875432F4F532D494903
:1024A0004920495352205175657565205461736BFD
:1024B00000000000BC2400200021034A1160034AF0
:1024C000118001807047000060000020640000203F
:1024D00070B502460B461046114610315E1EB5B26D
:1024E000002408E00160002646600681C6601030C6
:1024F0001031661CB4B2AC42F4DB002606604660C4
:102500000681C66070BD000010B504461048006822
:1025100018B945F21E70208010BD0E48008818B909
:1025200045F21D702080F7E70A48018808480068D6
:10253000FFF7CEFF06480068074908600548008895
:1025400088800020C8800881208000BFE4E7000068
:10255000B44E0008AC4E00088025002010B501469E
:1025600048894B89002B17DD0A680C4B1B681360E8
:102570000A4C4B6823602346DB884C891B1B074CA5
:10258000E38023469B884C892344044CA38000238A
:102590004B818B810B604B6010BD000080250020BB
:1025A0000181002242818281026042607047000006
:1025B0002DE9F0410D46DDE90674B0F80AC0B0F827
:1025C0000880C44505DB46F2935CA4F800C0BDE872
:1025D000F081DFF8D4C0BCF804C0BCF1000F04D116
:1025E00045F21D7CA4F800C0F1E7DFF8BCC0DCF8C0
:1025F0000010DFF8B480D1F800C0C8F800C0C446AD
:10260000BCF804C0ACF1010CA8F804C0C446BCF886
:1026100006C00CF1010CA8F806C0C446BCF808C0FE
:10262000B8F80680C44507DADFF87CC0BCF806C0FD
:10263000DFF87480A8F808C0B0F80AC0BCF1000F39
:1026400006D1016041604FF0010CA0F80AC017E00C
:1026500003F0100CBCF1000F07D1066831604FF099
:10266000000CC1F800C0016004E0D0F804C0C1F85B
:1026700000C04160B0F80AC00CF1010CA0F80AC01B
:10268000B0F80CC0B0F80A80C44503DAB0F80AC04C
:10269000A0F80CC04D600A81CF604FF0000CA4F888
:1026A00000C000BF93E70000802500200021034AFE
:1026B0001160034A1180018070470000680000200B
:1026C0006C0000202DE9F04105460C4616461F46D9
:1026D0001548006880F8346000201349096881F8C3
:1026E000350039461048006800F096FE6CB104F1E0
:1026F0000808EC60012229460B48006800F016F833
:102700002946404600F066F806E0002006490968C0
:10271000C88705490968086303480168204600F036
:1027200019F8BDE8F0810000E000002010B5C28774
:10273000016300230AE000244C600C600C614C61D2
:102740000C83CC61886020315C1CA3B29342F2DB25
:1027500010BD000030B548B14568C1F8C05000F167
:102760000804226893681D6AC56113E091F834502B
:10277000022D02D0072D08D103E007A5C1F8C050F3
:1027800007E007A5C1F8C05003E008A5C1F8C05094
:1027900000BF00BF30BD00005461736B20510000CA
:1027A0005461736B2053656D000000002000000031
:1027B00030B507A5C1F8C05000F1080422681AB16D
:1027C00093681D6AC56101E001A5C56130BD0000C7
:1027D00020000000F0B58E6896F8375007893FB9A1
:1027E0000127078100274F600F600160416023E0EF
:1027F00007897F1C0781026806E0946894F83770A7
:10280000AF4200DD02E05268002AF6D100BF32B9C3
:1028100000274F6043680B60596041600CE0176807
:102820002FB9116000270F604A60016004E013684F
:102830000B604A6059601160F0BD2DE9F04104461B
:10284000256BE68F0AE0D5F80C8008F108072946C9
:10285000384600F00AF82035701E86B2002EF2DCF1
:102860000020E0872063BDE8F08110B50489012CC9
:1028700003D100240460446011E00C6824B94A6864
:102880000024146002600AE04C6824B90B6800243C
:102890005C60436003E00B684A685A601360048917
:1028A000641E048100244C600C6010BD2DE9F843C7
:1028B00006460C4617469846089D94F836000828A8
:1028C00050D2DFE800F00405080906072B2C00BFF2
:1028D00000BF00BF47E000BF94F83400032807D1D1
:1028E00043463A4621463046009500F03FF803E063
:1028F000E765A4F86080256436B12046FFF79DFFA8
:1029000021463046FFF754FF204600F055FF0020D7
:102910003434A070607004F8340924E000BF94F8E7
:102920003400032807D143463A46214630460095F5
:1029300000F01CF803E0E765A4F8608025642046F9
:1029400001F0F0FB36B12046FFF777FF2146304615
:10295000FFF72EFF04203434A0700020607004F8CC
:10296000340900E000BF00BFBDE8F883F0B50446BD
:10297000059E086BCD8F0AE0C768A74204D10461A9
:1029800042610383C66104E020306F1EBDB2002D9A
:10299000F2DC00BFF0BD000070B50025074C03E07D
:1029A00005F12000C5B2241D20680028F8D0206859
:1029B000FDF719FC2844C5B2284670BD1800002058
:1029C000002004E00021034A42F82010401C0228A5
:1029D000F8D370471800002030B5420900F01F03FB
:1029E0000121C3F11F04A140034C54F822400C43C1
:1029F000014D45F8224030BD1800002030B5420995
:102A000000F01F030121C3F11F04A140034C54F83F
:102A100022408C43014D45F8224030BD1800002073
:102A20000021034A1160034A1180018070470000B1
:102A300074000020780000202DE9F04F85B0074693
:102A40008A4693461C460020029000BF00BF00BF8C
:102A5000FDF7BEFB029000BF00BF48480078401C55
:102A60004649087000BF00BF0298FDF7B5FB00BFE4
:102A700000BF00BF07F108063089002842D104F0EA
:102A8000100010B94FF0000801E04FF01008DDE928
:102A90000E0143465A46CDE90001514607F1200098
:102AA000FFF786FD00BF00BF00BFFDF791FB02905E
:102AB00000BF00BF31480078401E3049087008460A
:102AC0000078A0B92E480088002809DD00BF00BFAB
:102AD0000298FDF781FB00BF00BF00F009F90DE08F
:102AE00000BF00BF0298FDF777FB00BF06E000BF04
:102AF00000BF0298FDF770FB00BF00BF00BF05B02C
:102B0000BDE8F08F04F4007008B1358900E00125BC
:102B1000D6F8009011E0D9F808000390D9F8040025
:102B200004900E985B465246009038460399FFF792
:102B3000BDFEDDF81090681E85B2002DEBD100BF00
:102B400000BF00BFFDF744FB029000BF00BF0B4871
:102B50000078401E0949087000BF00BF0298FDF7C9
:102B60003BFB00BF00BF00BF04F4004008B9FDF705
:102B70001DFF00210F98018000BFC0E788000020E2
:102B80004C00002000210AE001EB4102054B03EB61
:102B9000820000220281026042604A1CD1B24029B8
:102BA000F2D370478C25002010B5044694F8370006
:102BB000FFF712FF94F8370005490978884203D1DE
:102BC000204600F027F802E0204600F003F810BD90
:102BD0006E00002010B590F8373003EB43030C4C27
:102BE00004EB83010B893BB901230B810023C360F4
:102BF00003610860486009E00B895B1C0B810B686E
:102C0000C360002303610A681061086010BD000002
:102C10008C25002010B590F8373003EB43030B4CA4
:102C200004EB83010B893BB901230B810023C360B3
:102C300003610860486008E00B895B1C0B8100237E
:102C4000C3604A680261D060486010BD8C250020D6
:102C500010B501460C8924B1012C03D0022C0CD1F3
:102C600001E000BF14E008684A6802610024C46003
:102C70001461D0600A6048600AE008684A68C36866
:102C800000241C61C4600261D0600B60486000BF1A
:102C900000BF10BD2DE9F041054695F8370000EB67
:102CA0004000124901EB80042F69EE6887B946B9EC
:102CB000002020812060606095F83700FFF79EFEBD
:102CC0000EE02089401E208100203061266007E050
:102CD0002089401E2081FE600EB9676000E03761E8
:102CE00000202861E860BDE8F08100008C2500200C
:102CF00010B5002400BFFDF76BFA044600BF0020AA
:102D00000D4908700D480E49086008460068D0F863
:102D10009000401C0968C1F890000A480068401CF7
:102D2000084908604FF080500749086000BF2046FE
:102D3000FDF752FA00BF10BD6F000020BC24002038
:102D4000E4000020B400002004ED00E010B50448C9
:102D50000078012803D1FDF743FB0249086010BD4C
:102D6000880000207C00002010B50A48007880B957
:102D7000FDF736FB08490968441A08480068A04274
:102D800001D20648046006480068A04201D2044807
:102D9000046010BD880000207C000020800000201E
:102DA0008400002070B5054600262E4800780128D2
:102DB00000D070BD00BF00BFFDF70AFA064600BF95
:102DC00000BF2C683CB900BF00BF3046FDF704FAD5
:102DD00000BF00BFEDE72448844207D100BF00BF19
:102DE0003046FDF7F9F900BF00BFE2E7A06D10B172
:102DF000A06D401EA065A06D38B100BF00BF304679
:102E0000FDF7EAF900BF00BFD3E72889022807DAF7
:102E100000BF00BF3046FDF7DFF900BF00BFC8E7C5
:102E200012480078002807DD00BF00BF3046FDF7DC
:102E3000D3F900BF00BFBCE72846FFF709FF2C68A5
:102E4000606D18B90A480068A06501E0606DA06572
:102E500000BF00BF3046FDF7BFF900BF00BF00BF95
:102E6000A7E7000090000020F82300208800002041
:102E70008C0000200021034A1160034A1180018068
:102E80007047000094000020980000202DE9FF5FAB
:102E90000446884691461D460020019000BF00BFB1
:102EA000FDF796F9019000BF00BF04F108073889CB
:102EB00000284FD10420012804D0022814D004286F
:102EC00034D123E0206AFF280DD100BF00BF019854
:102ED000FDF782F900BF00BF46F6C55028800020EC
:102EE00004B0BDE8F09F22E04FF6FF71206A8842EF
:102EF0000BD100BF00BF0198FDF76EF900BF00BF06
:102F000046F6C55028800020EAE710E0206A401C01
:102F100058B900BF00BF0198FDF75EF900BF00BFC0
:102F200046F6C55028800020DAE700E000BF00BF69
:102F3000206A401C2062D4F820A0C4F8249000BF6E
:102F400000BF0198FDF748F900BF00BF00202880AE
:102F50005046C5E700BF25480078401C234908704B
:102F600000BF00BF0198FDF737F900BF00BF00BFE9
:102F700008F4007008B13E8900E00126D7F800B0DF
:102F800011E0DBF808000290DBF804000390002356
:102F90001A46CDF8009020460299FFF787FCDDF82D
:102FA0000CB0701E86B2002EEBD1D4F820A000BF6A
:102FB00000BF00BFFDF70CF9019000BF00BF0B4838
:102FC0000078401E0949087000BF00BF0198FDF756
:102FD00003F900BF00BF00BF08F4004008B9FDF7C7
:102FE000E5FC0020288050467AE700008800002099
:102FF00086B00020009000BF06E0C3490968480081
:1030000001AA0021FEF7E8FBC04800780128F4D1AE
:1030100001A8FDF709FE0027BD480068BA49096804
:10302000884205D9BA480068B7490968B0FBF1F78A
:1030300027B9B74800680A21B0FBF1F762E1FDF754
:10304000CFF9804600BF00BFFDF7C2F8009000BF77
:1030500000BFB0480068B04908600020AD49086072
:1030600000BF00BF0098FDF7B7F800BF00BFAB4836
:103070000068A9490968884248D9A8480068A84951
:10308000884205D242F2107003900120029023E0A2
:10309000A2480068A349884205D24FF47A70039091
:1030A0000A20029018E09D4800689F49884203D298
:1030B0006420039002900FE0984800689B49884282
:1030C00005D20A2003904FF47A70029004E00120A8
:1030D000039042F210700290904801680298B1FB90
:1030E000F0FA8D49039809684843B0FBFAF042F2C0
:1030F0001071081A8E4908808E4800880988884215
:1031000008DA8B4800888B49088003E042F210708F
:1031100087490880FDF79CFE002500BF00BFFDF732
:1031200057F8009000BF00BF8348046800BF00BF8D
:103130000098FDF751F800BF00BF5AE000BF00BF84
:1031400000BFFDF745F8009000BF00BF7B48007846
:10315000401C7A49087000BF00BF0098FDF73CF89A
:1031600000BF00BF00BF54F89C0F6060002044F80F
:103170009C0900BF00BF00BFFDF72AF8009000BF08
:1031800000BF6E480078401E6C4908700846007801
:10319000A0B96B480088002809DD00BF00BF009877
:1031A000FDF71AF800BF00BFFFF7A2FD0DE000BF5A
:1031B00000BF0098FDF710F800BF06E000BF00BF99
:1031C0000098FDF709F800BF00BF00BFD4F8A000C9
:1031D000054400BF00BFFCF7FBFF009000BF00BF2D
:1031E000D4F8BC4000BF00BF0098FCF7F5FF00BF5B
:1031F00000BF002CA2D145B34948854205D242F216
:10320000107005904FF0010B1BE04648854205D237
:103210004FF47A7005904FF00A0B12E04248854255
:1032200003D26420059083460BE04048854204D2D7
:103230000A2005904FF47A7B03E00120059042F2CA
:10324000107BB5FBFBF0049003E00020059001200B
:10325000049000BF00BFFCF7BBFF009000BF00BFA1
:103260003548046800BF00BF0098FCF7B5FF00BFF9
:1032700000BF2BE0D4F8A000059948430499B0FBA7
:10328000F1F086B242F21070864200D90646A4F8E8
:103290008C60B4F88E00B04201DAA4F88E6001AB05
:1032A00004F1AC02111D2046FEF758F900BF00BF23
:1032B000FCF78EFF009000BF00BFD4F8BC4000BFF9
:1032C00000BF0098FCF788FF00BF00BF002CD1D1E1
:1032D0001C480078012805D100201A49087001A86F
:1032E000FDF7A2FCFDF77CF8A0EB08091648006882
:1032F000484502D21448C0F8009001AA002138467F
:10330000FEF76AFA9BE60000BC4E0008AC00002005
:10331000D44E0008A0000020A8000020A400002037
:10332000801A060000093D00005A62020084D71787
:103330009C0000209E000020B80000208800002093
:103340004C0000209A000020B000002010B58AB088
:10335000044600201F4908601F4908601F49086093
:103360001F4908701F4908701F48006820B946F6B9
:103370002B6020800AB010BD1C4800681C490968F9
:10338000884203D246F62C602080F3E71948007883
:103390003F2803D346F62A602080EBE70320002174
:1033A0000591CDE907040691084610490968124ABB
:1033B00012680D4B1B68CDE90132CDE903100D48B1
:1033C000007800230D4A0EA100901248FDF74AFD37
:1033D00000BFCFE7A0000020A8000020A40000202C
:1033E000AC0000209A000020C04E0008C84E000823
:1033F000D04E0008B84E0008C44E0008F12F000857
:1034000075432F4F532D49494920537461742054FB
:1034100061736B008C28002038B504460D4685B1D9
:103420006B4602222946204600F09EFDBDF80000B2
:1034300018B9032084F8360006E0022084F836002C
:1034400002E0022084F836002046FFF723FC38BD56
:103450000021C0F8B8100949096819B90021C0F85D
:10346000BC1007E005490968C0F8BC1003490968A9
:10347000C1F8B8000149086070470000B80000209A
:10348000D0F8B820D0F8BC104AB90D4B196011B172
:103490000023C1F8B8300023C0F8BC300FE029B9D0
:1034A0000023C2F8BC30C0F8B83008E0C2F8BC1045
:1034B000C1F8B8200023C0F8BC30C0F8B83070475D
:1034C000B80000200021044A1160044A1180044A17
:1034D0001160018070470000B8000020BC0000208F
:1034E000B400002070B5044600202060A060606039
:1034F000E06020616061A061E06129A0206200209D
:103500006062A062E0622064E065A4F860000021CF
:1035100004F16400FFF744F8002044F8740F606081
:10352000E060A0822061743C002506E0002104F1E7
:103530007C0040F82510681CC5B2002DF6D0002094
:103540003434206120676067606084F85600E0676B
:10355000A06720814FF0004060610020A061E06121
:1035600020626062A4F85800A4F85A00E065206662
:10357000FCF736FF064666660020A066C4F88000A9
:1035800020706070A0704020E0700020C4F88400BB
:10359000C4F8880004A0C4F88C00343C70BD00005E
:1035A0003F5461736B000000200000002DE9FC47D0
:1035B00004460F4690469946DDE90A654FF0000A39
:1035C00000BF00BF00BFFCF703FE824600BF00BF84
:1035D00076480078401C7549087000BF00BF50460F
:1035E000FCF7FAFD00BF00BF00BF0CB970480468CB
:1035F0000020288094F8360008287DD2DFE800F00B
:1036000004053E3F0607404100BF00BF00BF4B46D8
:103610004246394604F16400CDE90065FEF7C8FF73
:1036200000BF00BF00BFFCF7D3FD824600BF00BF54
:103630005E480078401E5D49087008460078A0B9D1
:103640005C480088002809DD00BF00BF5046FCF739
:10365000C3FD00BF00BFFFF74BFB0DE000BF00BF85
:103660005046FCF7B9FD00BF06E000BF00BF504662
:10367000FCF7B2FD00BF00BF00BF93E000BF00BF7A
:1036800000BF94F83400022821D143463A4621462F
:1036900000200096FFF70AF900BF00BF00BFFCF74B
:1036A00097FD824600BF00BF40480078401E3F495A
:1036B000087000BF00BF5046FCF78EFD00BF00BF82
:1036C00000BF09F4004090BBFDF770F938E04B46AD
:1036D0004246394604F16400CDE90065FEF768FF13
:1036E00000BF00BF00BFFCF773FD824600BF00BFF4
:1036F0002E480078401E00E023E02C490870084660
:103700000078A8B92B480088002809DD00BF00BF59
:103710005046FCF761FD00BF00BFFFF7E9FA0EE07D
:1037200000BF00BF5046FCF757FD00BF07E007E0B1
:1037300000BF00BF5046FCF74FFD00BF00BF00BFF9
:1037400030E000BF00BF00BFFCF742FD824600BF73
:1037500000BF16480078401E1449087008460078DB
:10376000A0B914480088002809DD00BF00BF5046FA
:10377000FCF732FD00BF00BFFFF7BAFA0DE000BF53
:1037800000BF5046FCF728FD00BF06E000BF00BFA9
:103790005046FCF721FD00BF00BF00BF46F62D607C
:1037A000288000BF00BFBDE8FC8700008800002023
:1037B000E00000204C00002010B50446204600F038
:1037C000B1FC94F8360000F0040010B92046FFF771
:1037D000EBF910BD70B504460D46002600BF00BFD2
:1037E000FCF7F6FC064600BF00BF0020288094F8D6
:1037F000360008287BD2DFE800F0040506071243F4
:10380000556700BF00BF00BF00BF00BF3046FCF7D8
:10381000E3FC00BF00BF47F25310288072E000BFF6
:103820003B480078401C3A49087000BF00BF304652
:10383000FCF7D2FC00BF00BF00BF14F88A0F401E87
:10384000207014F88A0928B9002084F83600204630
:10385000FFF7B2FF00BF00BF00BFFCF7B9FC064690
:1038600000BF00BF2A480078401E2949087000BFE9
:1038700000BF3046FCF7B0FC00BF00BF00BF41E016
:1038800014F88A0F401E207014F88A0910B901201C
:1038900084F8360000BF00BF3046FCF79DFC00BF37
:1038A00000BF2FE014F88A0F401E207014F88A0918
:1038B00010B9022084F8360000BF00BF3046FCF784
:1038C0008BFC00BF00BF1DE014F88A0F401E207063
:1038D00014F88A0910B9032084F8360000BF00BF2D
:1038E0003046FCF779FC00BF00BF0BE0FFE700BFEC
:1038F00000BF3046FCF770FC00BF00BF46F62D60ED
:10390000288070BD00BFFDF751F800BFF9E7000047
:103910008800002008B504480068FDF709FD6946E5
:103920000020FDF7D9FB08BDE00000202DE9F84399
:103930000446884617461D464FF0000900BF00BFE9
:1039400000BFFCF745FC814600BF00BFFE48007881
:10395000401CFD49087000BF00BF4846FCF73CFC16
:1039600000BF00BF00BF0CB9F848046827640020FE
:10397000288094F83600082871D2DFE800F00405AA
:10398000EBEC0607EDEE00BF00BF00BF04200128EE
:1039900004D0022839D004286FD170E0606CFF2871
:1039A00032D100BF00BF00BFFCF712FC814600BF50
:1039B00000BFE5480078401EE349087008460078DB
:1039C000A0B9E3480088002809DD00BF00BF4846D1
:1039D000FCF702FC00BF00BFFFF78AF90DE000BF53
:1039E00000BF4846FCF7F8FB00BF06E000BF00BF81
:1039F0004846FCF7F1FB00BF00BF00BF46F6C550CC
:103A000028800020BDE8F88371E04FF6FF71606CFC
:103A1000884233D100BF00BF00BFFCF7D9FB81460D
:103A200000BF00BFC8480078401EC749087008465C
:103A30000078A8B9C6480088002809DD00BF00BF8B
:103A40004846FCF7C9FB00BF00BFFFF751F90EE085
:103A500000BF00BF4846FCF7BFFB00BF07E08DE199
:103A600000BF00BF4846FCF7B7FB00BF00BF00BF68
:103A700046F6C55028800020C4E737E037E0606C88
:103A8000401C88BB00BF00BF00BFFCF7A1FB814604
:103A900000BF00BFAC480078401EAB490870084624
:103AA0000078A0B9AA480088002809DD00BF00BF3F
:103AB0004846FCF791FB00BF00BFFFF719F90DE086
:103AC00000BF00BF4846FCF787FB00BF06E000BF11
:103AD00000BF4846FCF780FB00BF00BF00BF46F6B2
:103AE000C550288000208DE7FFE700E000BF00BF41
:103AF000606C401C6064666C00BF00BF00BFFCF7D8
:103B000067FB814600BF00BF8F480078401E8E498A
:103B1000087008460078A0B98D480088002809DDA3
:103B200000BF00BF4846FCF757FB00BF00BFFFF7D0
:103B3000DFF80DE000BF00BF4846FCF74DFB00BFBB
:103B400006E000BF00BF4846FCF746FB00BF00BFD1
:103B500000BF45E100BF00BF00BF94F83400072854
:103B600023D100231A46214618460097FEF79EFEF1
:103B7000666C00BF00BF00BFFCF72AFB814600BF98
:103B800000BF71480078401E6F49087000BF00BF39
:103B90004846FCF721FB00BF00BF00BF08F400400F
:103BA000002801D1FCF702FFE7E00420012804D03F
:103BB000022838D004286ED16EE0606CFF2831D125
:103BC00000BF00BF00BFFCF703FB814600BF00BF82
:103BD0005D480078401E5C49087008460078A0B92E
:103BE0005B480088002809DD00BF00BF4846FCF79D
:103BF000F3FA00BF00BFFFF77BF80DE000BF00BF86
:103C00004846FCF7E9FA00BF06E000BF00BF48469F
:103C1000FCF7E2FA00BF00BF00BF46F6C55028809F
:103C20000020EFE670E04FF6FF71606C884231D102
:103C300000BF00BF00BFFCF7CBFA814600BF00BF4A
:103C400041480078401E4049087008460078A0B9F5
:103C50003F480088002809DD00BF00BF4846FCF748
:103C6000BBFA00BF00BFFFF743F80DE000BF00BF85
:103C70004846FCF7B1FA00BF06E000BF00BF484667
:103C8000FCF7AAFA00BF00BF00BF46F6C550288067
:103C90000020B7E638E036E0606C401C88BB00BF0F
:103CA00000BF00BFFCF794FA814600BF00BF264862
:103CB0000078401E2449087008460078A0B92448BE
:103CC0000088002809DD00BF00BF4846FCF784FAE1
:103CD00000BF00BFFFF70CF80DE000BF00BF484673
:103CE000FCF77AFA00BF06E000BF00BF4846FCF7C9
:103CF00073FA00BF00BF00BF46F6C5502880002001
:103D000080E6FFE700E000BF00BF606C401C60641D
:103D1000666C00BF00BF00BFFCF75AFA814600BFC7
:103D200000BF09480078401E07490870084600781F
:103D3000D8B907480088002810DD00BF00BF4846FA
:103D4000FCF74AFA00BF05E088000020E0000020F0
:103D50004C00002000BFFEF7CBFF0DE000BF00BF0E
:103D60004846FCF739FA00BF06E000BF00BF4846EE
:103D7000FCF732FA00BF00BF00BF31E000BF00BF58
:103D800000BFFCF725FA814600BF00BF1648007847
:103D9000401E1549087008460078A0B913480088ED
:103DA000002809DD00BF00BF4846FCF715FA00BF38
:103DB00000BFFEF79DFF0DE000BF00BF4846FCF7C7
:103DC0000BFA00BF06E000BF00BF4846FCF704FA4C
:103DD00000BF00BF00BF46F62D602880002600BF50
:103DE00000BF30460EE60000880000204C00002096
:103DF00070B504460D46002600BF00BFFCF7E8F989
:103E0000064600BF00BF0CB94B4804684A4800682A
:103E100084420ED14948007800280ADD00BF00BF67
:103E20003046FCF7D9F900BF00BF46F66350288042
:103E300070BD0020288094F8360008286CD2DFE896
:103E400000F004313F4D5B5C5D5E00BF3B48007895
:103E5000401C3A49087000BF00BF3046FCF7BCF96F
:103E600000BF00BF00BF042084F83600012084F8A2
:103E70008A002046FEF70EFF00BF00BF00BFFCF720
:103E8000A7F9064600BF00BF2C480078401E2B490A
:103E9000087000BF00BF3046FCF79EF900BF00BFAE
:103EA00000BF44E0052084F83600012084F88A0031
:103EB00000BF00BF3046FCF78FF900BF00BF36E0FF
:103EC000062084F83600012084F88A0000BF00BF75
:103ED0003046FCF781F900BF00BF28E0072084F8D6
:103EE0003600012084F88A0000BF00BF3046FCF78E
:103EF00073F900BF00BF1AE000BF00BF00BF94F815
:103F00008A00401C84F88A0000BF00BF3046FCF7DE
:103F100063F900BF00BF0AE000BF00BF3046FCF7F6
:103F20005BF900BF00BF46F62D60288080E700BF28
:103F3000FCF73CFD00BF7BE7E0000020880000208C
:103F4000002108E0064A02EBC100002202608280E4
:103F5000C2804A1C91B2034A12889142F2DB704738
:103F6000E8200020EC4E00082DE9F04F0C461646E4
:103F70001D46042E1ED1DFF8A091D9F80090A4EBC5
:103F80000909A9F1010313F5803F0DD94FF000098C
:103F9000C0F84C90C0F85090C0F81C9047F27E29B1
:103FA000A5F80090BDE8F08FC46403F10109C0F8E2
:103FB00050903FE084B3082E25D1D0F8489009EB0B
:103FC0000407DFF85491D9F80090A7EB0909A9F18B
:103FD0000103A34201D2C76406E0DFF83C91D9F89F
:103FE0000090A144C0F84C90DFF82CA1D0F84C9080
:103FF000DAF800A0A9EB0A09C0F85090D0F84C906C
:10400000C0F8489016E0DFF81091D9F80090A1446C
:10401000C0F84C9004650DE0FFE74FF00009C0F8D0
:104020004C90C0F85090C0F81C9047F27E29A5F83B
:104030000090B7E7DFF8E4A0BAF800A0D0F84C9001
:10404000B9FBFAFB0AFB1B991FFA89F8DFF8D0903D
:1040500009EBC802B2F80490B9F1000F0BD14FF090
:104060000009C0F81490C0F8189010604FF00109D2
:10407000A2F804903EE0116834E0DFF89CA0D1F88B
:104080004C90DAF800A0A9EB0A09C1F85090D0F8DA
:104090005090D1F850A0D1450ED9D1F81490B9F173
:1040A000000F01D049691DE04FF00009C0F81490DD
:1040B00081614861002115E0D1F81890B9F1000F35
:1040C00007D14FF00009C0F8189041618861106075
:1040D00007E0D1F818C0C0F818C04161CCF814004E
:1040E000886100210029C8D1B2F8049009F10109C2
:1040F000A2F80490B2F80690B2F804A0D14503DA11
:10410000B2F80490A2F80690C2614FF00009A5F839
:10411000009000BF46E70000C0000020EC4E000801
:10412000E820002010B5C269BAB100240465146803
:10413000844205D14169116039B100248C6104E0E9
:10414000816943694B6103B19961002444618461D1
:10415000C461C4649488641E948010BD002006E08D
:10416000054A02EBC0010022CA80421C90B2034AF9
:1041700012889042F4DB7047E8200020EC4E0008E3
:104180002DE9F05F4FF0000B00BF00BF00BFFCF750
:104190001FF8834600BF00BF71480078401C70497B
:1041A000087000BF00BF5846FCF716F800BF00BFFC
:1041B00000BFFCF715F905466A480068401C6949CC
:1041C00008600846006868490988B0FBF1F201FB05
:1041D00012001FFA80FA654800EBCA08D8F80040C0
:1041E000002782E0002C7FD0D4F8149094F8360099
:1041F000082875D2DFE800F00408051B063D0750CB
:1042000000BF00BF00BF6CE05649E06C0968401A6F
:1042100020655449E06C0968884206D1002084F882
:1042200036002046FFF7C8FA00E0012759E04D4963
:10423000E06C0968401A20654A49E06C09688842C8
:1042400015D10020E065A4F86000FCF7C9F82064EF
:104250002046FEF7F2FA2046FFF7AEFA002034348B
:10426000A07003206070002004F8340900E00127EA
:1042700037E03C49E06C0968401A20653949E06C38
:104280000968884206D1042084F836002046FFF7EA
:1042900049FF00E0012724E03249E06C0968401A38
:1042A00020653049E06C0968884217D10020E0653C
:1042B000A4F86000FCF794F820642046FEF7BDFAED
:1042C0002046FFF72FFF04203434A07003206070D5
:1042D000002004F8340902E006E001E0012700E0D4
:1042E00000BF00BF4C4600E00127002F3FF47AAF2B
:1042F000FCF776F8461B1E480068B04201D21C4805
:10430000066000BF00BF00BFFBF762FF834600BF2F
:1043100000BF13480078401E114908700846007815
:10432000A0B914480088002809DD00BF00BF584626
:10433000FBF752FF00BF00BFFEF7DAFC0DE000BF45
:1043400000BF5846FBF748FF00BF06E000BF00BFB4
:104350005846FBF741FF00BF00BF00BFBDE8F09F1C
:1043600088000020C0000020EC4E0008E82000205B
:10437000C40000204C0000201CB500BF0EE001ABC3
:104380006A4600210846FCF7DFFFBDF8040028B9A3
:1043900003480078012801D1FFF7F2FEEFE70000A3
:1043A0004100002010B58AB0044600201D49086075
:1043B0001D490860FFF7C4FD1C48006820B947F29A
:1043C000122020800AB010BD1948006819490968F8
:1043D000884203D247F213202080F3E71648007882
:1043E0003F2803D347F211202080EBE70B20002168
:1043F00005910A46CDE9070406910D4800680F496A
:1044000009680A4B1B68CDE90131CDE903020A486E
:10441000007800230A4A0BA100900F48FCF722FD08
:1044200000BFCFE7C0000020C4000020DC4E000821
:10443000E44E0008D04E0008D84E0008E04E0008B8
:104440007943000875432F4F532D4949492054693A
:10445000636B205461736B005029002070B58AB0E3
:1044600004460020314908603148006840B13148B5
:1044700000682F490968B0FBF1F02F49086006E099
:104480002C4800680A21B0FBF1F02B4908602A484B
:1044900000682A4908600020294908602949086005
:1044A000002508E0284800EBC5060020B080F08019
:1044B0003060681C85B2254800888542F2DB2448BC
:1044C000006820B947F2473020800AB070BD21480B
:1044D000006821490968884203D247F248302080A9
:1044E000F3E71E4800783F2803D347F24630208088
:1044F000EBE70B2000210591CDE907040691084662
:1045000014490968164A1268114B1B68CDE901323B
:10451000CDE90310114800780023124A12A100903F
:104520001748FCF79FFC00BFCFE70000C800002041
:10453000F84E0008D44E0008D8000020DC0000200F
:10454000D4000020D0000020702300200C4F000871
:10455000FC4E0008044F0008D04E0008F44E00083E
:10456000004F00087946000875432F4F532D4949E5
:10457000492054696D6572205461736B000000001E
:10458000142A0020F0B50C46022680F82A60012C7F
:1045900005D12D4F466A3F683E4486610CE0066AAD
:1045A0002EB9294F466A3F683E44866104E0264F93
:1045B000066A3F683E448661244F3F888669B6FBA1
:1045C000F7FC07FB1C66B5B2214E06EBC502166868
:1045D00036B90026066146611060012696802CE0FF
:1045E000194F86693F68F61BC661116820E0164FB7
:1045F0008E693F68F61BCE61C669CF69BE4209D994
:104600000E690EB1096913E0002606614161086177
:1046100000210DE04E692EB9002646610161486116
:10462000106004E04B694361016118614861002139
:104630000029DCD19688761C9680D6889788BE4261
:1046400001DA9688D680F0BDD40000200C4F000817
:1046500070230020002006E0054A02EBC001002282
:10466000CA80421C90B2034A12889042F4DB704721
:10467000702300200C4F00081CB500BF53E001ABB5
:104680006A4600210846FCF75FFE01A8FCF7E2F944
:10469000FBF7A6FE064624480068401C2249086035
:1046A0000846006821490988B0FBF1F201FB1200BD
:1046B0001FFA80FA1E4800EBCA08D8F800404FF0F5
:1046C000000B21E0F4B1D4F810901749A0690968F3
:1046D000884214D1204600F02FF8208D022804D102
:1046E00001212046FFF74EFF02E0032084F82A0054
:1046F000A56815B12046E168A8474C4604E04FF094
:10470000010B01E04FF0010BBBF1000FDAD0FBF71A
:1047100067FE871B01A8FCF709FA06480068B84243
:1047200001D204480760AAE7D40000200C4F00081B
:1047300070230020D0000020F0B5114E3688856926
:10474000B5FBF6F706FB1755ACB20E4D05EBC402F0
:104750001568854205D10169116039B100254D61A7
:1047600004E0416903690B6103B15961012580F8D7
:104770002A5000250561456195886D1E9580F0BD24
:104780000C4F00087023002029B1064A92690243A9
:10479000044B9A6104E0034A92698243014B9A6197
:1047A000704700000010024030B5002100220024B4
:1047B00000232D4D6D6805F00C0121B1042905D0B1
:1047C000082923D105E0294D056022E0274D056029
:1047D0001FE0254D6D6805F47012234D6D6805F4DA
:1047E0008034022505EB92421CB9214D55430560EA
:1047F0000BE01D4D6D6805F400351DB11C4D554392
:10480000056002E0194D5543056002E0174D056053
:1048100000BF00BF144D6D6805F0F0010909154D8A
:104820006B5C0568DD4045600F4D6D6805F4E06127
:10483000090A104D6B5C4568DD4085600A4D6D6866
:1048400005F46051C90A0B4D6B5C4568DD40C560DD
:10485000054D6D6805F44041890B074D6B5CC568DB
:10486000B5FBF3F5056130BD0010024000127A007F
:1048700000093D00EC000020FC000020704710B54E
:1048800000F002F810BD00000CB50020019000906F
:104890003348006840F480303149086000BF304838
:1048A000006800F4003000900198401C01900098CE
:1048B00018B90198B0F5A06FF1D12948006800F44B
:1048C000003010B10120009001E00020009000981D
:1048D000012843D12348006840F0100021490860B6
:1048E0000846006820F0030008600846006840F0B1
:1048F000020008601A484068194948600846406844
:1049000048600846406840F4806048600846406857
:1049100020F47C1048600846406840F4E810486085
:104920000846006840F08070086000BF0C480068CE
:1049300000F000700028F9D00948406820F003001A
:10494000074948600846406840F00200486000BFE0
:104950000348406800F00C000828F9D10CBD0000A5
:104960000010024000200240042808D14FF0E0214E
:10497000096941F004014FF0E022116107E04FF0B6
:10498000E021096921F004014FF0E0221161704734
:1049900010B505480078012805D1FBF77FFFFDF72A
:1049A0009FF8FBF791FF10BD4100002010B51348A0
:1049B000006840F00100114908600846406810494D
:1049C00008400E494860084600680E4908400B49F7
:1049D00008600846006820F48020086008464068A7
:1049E00020F4FE0048604FF41F008860FFF747FF87
:1049F0004FF000600449086010BD00000010024044
:104A00000000FFF8FFFFF6FE08ED00E010B5FBF731
:104A100045FF40F225511E4800F040F810B31C48F5
:104A200000F066F8C4B21B48008800F40040C8B922
:104A30001848008800F4804060B10A2C03D00020A0
:104A40001449088020E01348008840F400401149D0
:104A5000088019E00D2C06D10E48008840F48040F3
:104A60000C49088010E00B480088C0F30D000A498B
:104A70000C5408480088401C0649088008460088F5
:104A8000C72801DD00200880FBF71EFF10BD0000D5
:104A90000038014008010020D82A002070B50246E5
:104AA000002400230025002040F66A16B14200D100
:104AB00000BFC1F3421501F01F03012606FA03F3FC
:104AC000012D02D19689334006E0022D02D1168ACB
:104AD000334001E0968A33400C12012606FA04F4B2
:104AE0001688344013B10CB1012000E0002070BDE5
:104AF00001468888C0F30800704700BFFEE7014602
:104B000000BF70470EB500BF2AE000241CE04FF440
:104B100080411448FBF7F8FC02A8002119230A463B
:104B2000CDE900100846FCF7E3FE4FF480410D4844
:104B3000FBF7E8FC02A8002119230A46CDE9001082
:104B40000846FCF7D5FE641C0A2CE0DB02A8002115
:104B50004FF4FA730A46CDE900100846FCF7C8FE88
:104B6000D3E700000010014010B56FF00400FFF71C
:104B7000FBFE144800681449B0FBF1F013490870BB
:104B8000104800681049B0FBF1F411480068C910E2
:104B9000B1FBF0F044430E4800684FF47A71B1FB6A
:104BA000F0F00C4908804FF0E020006940F002006E
:104BB0004FF0E021086108464461006940F00100BF
:104BC000086110BD0000002000127A0000010020E2
:104BD000D44E0008020100200EB500BF1DE04FF4C6
:104BE00000510E48FBF78EFC02A800214FF4FA7327
:104BF0000A46CDE900100846FCF77AFE4FF4005152
:104C00000648FBF781FC02A800214FF4FA730A461C
:104C1000CDE900100846FCF76BFEE0E7001001400C
:104C20008AB00024FFF7A0FF4FF4A060FBF7C2FC9E
:104C3000FBF76EFCFBF762FB4FF400513248FBF7C9
:104C400061FC09A8FBF748FD00BF00BF00BFFBF7F0
:104C5000BFFA044600BF00BF2C480078401C2B4917
:104C6000087000BF00BF2046FBF7B6FA00BF00BFC8
:104C700000BF09A8032100220592CDE90621089072
:104C800010464FF400713322214BCDE90132CDE9BA
:104C90000310032000231F4A1FA100902148FCF7A6
:104CA000E1F800BF00BF00BFFBF792FA044600BF67
:104CB00000BF16480078401E144908700846007866
:104CC000A0B919480088002809DD00BF00BF2046B0
:104CD000FBF782FA00BF00BFFEF70AF80DE000BF45
:104CE00000BF2046FBF778FA00BF06E000BF00BF18
:104CF0002046FBF771FA00BF00BF00BF09A8FBF711
:104D00005FFF00BFFEE700000010014088000020A8
:104D1000D00100202D4D00087374617274207461FD
:104D2000736B00000C0100204C00002030B58BB0EC
:104D30000446002500BFFBF707FB0AA8FCF710F8A4
:104D40000AAA01210846FBF7BFFE00BF00BF00BF53
:104D5000FBF73EFA054600BF00BF37480078401C0D
:104D60003549087000BF00BF2846FBF735FA00BF81
:104D700000BF00BF0AA8032100220592CDE9062149
:104D80000890104680210C222C4BCDE90132CDE950
:104D90000310042000232A4A2AA100902C48FCF783
:104DA00061F80AA8032100220592CDE906210890A6
:104DB000104680210C22274BCDE90132CDE90310AA
:104DC00005200023244A25A100902748FCF74AF833
:104DD0000AA92648FFF70CF800BF00BF00BFFBF789
:104DE000F7F9054600BF00BF13480078401E12497E
:104DF000087008460078A0B91D480088002809DD21
:104E000000BF00BF2846FBF7E7F900BF00BFFDF772
:104E10006FFF0DE000BF00BF2846FBF7DDF900BFC4
:104E200006E000BF00BF2846FBF7D6F900BF00BF71
:104E300000BF0BB030BD000088000020940A0020A5
:104E4000D94B00086C6564207461736B000000002E
:104E5000D0090020580D0020054B000862656570E0
:104E60007461736B00000000940C00200C010020A2
:104E70004C000020680F00200C00000080000000A3
:104E800000020000681100200A000000400100003C
:104E9000A81200200C0000008000000000020000AA
:104EA000A814002080000000000200006400000040
:104EB00040060000A81600203E0000000A00000086
:104EC000E81C00200C000000800000000002000030
:104ED00040000000C800000001000000E81E0020A3
:104EE0000C00000080000000000200001100000023
:104EF0008800000002000000640000007021002013
:104F00000C00000080000000000200001100000002
:104F1000880000009014000001000101785634124E
:104F2000010100000000000000000000000000007F
:104F30000000000000000000000000000000000071
:104F4000000000000000000000000000010101005E
:104F50002800040020000100000000000000000004
:104F60000000000000000000000000000000000041
:104F700000000000000000000100200001001000FF
:104F80000C00100000000000000000000000000005
:104F90000000000000000000000000000000000011
:104FA0000000000000000000000000000000000001
:104FB000010101002C00010020000C002000400035
:104FC00008000400000000000000000000000000D5
:104FD00000000000000000000000000000000000D1
:104FE00000000000000000000000000000000000C1
:104FF000000000000101010130000100000000007C
:1050000000000000000000000000000000000000A0
:105010000000000000000000000000000000000090
:10502000000000000101010128000C000003000045
:10503000040101010101010101000101C400080096
:10504000010100000000000000000000000000005E
:105050000000000000000000000000000000000050
:105060000000000000000000000000000000000040
:1050700000000000000000000101340008005C7620
:1050800096070000A4500008000000200C0100005A
:1050900028010008B05100080C010020F430000085
:1050A0004401000800A24A040000000000000000C3
:1050B00001020304060708090000000000000000C8
:1050C00000000000000000000000000000000000E0
:1050D00000000000000000000000000000000000D0
:1050E00000000000000000000000000000000000C0
:1050F00000000000000000000000000000000000B0
:10510000000000000000000000000000000000009F
:10511000000000000000000000000000000000008F
:10512000000000000000000000000000000000007F
:10513000000000000000000000000000000000006F
:10514000000000000000000000000000000000005F
:10515000000000000000000000000000000000004F
:10516000000000000000000000000000000000003F
:10517000000000000000000000000000000000002F
:10518000000000000000000000000000000000001F
:1051900000000000010203040102030406070809DD
:1051A00002040608000000000000000000000000EB
:04000005080000ED02
:00000001FF
