:020000040800F2
:10000000D8420020E9010008DD1E0008031B00089B
:100010008F1E000829190008D551000800000000B3
:10002000000000000000000000000000494E000831
:10003000AD190008000000008B1600084D4F0008A5
:10004000030200080302000803020008030200087C
:10005000030200080302000803020008030200086C
:10006000030200080302000803020008030200085C
:10007000030200080302000803020008030200084C
:10008000030200080302000803020008030200083C
:10009000030200080302000803020008030200082C
:1000A000030200080302000803020008030200081C
:1000B000030200080302000803020008030200080C
:1000C00003020008030200080302000803020008FC
:1000D00003020008BD4F00080302000803020008E5
:1000E00003020008030200080302000800F002F8FF
:1000F00000F06AF80AA090E8000C82448344AAF158
:100100000107DA4501D100F05FF8AFF2090EBAE855
:100110000F0013F0010F18BFFB1A43F0010318473B
:10012000B8A30000D8A300000A444FF0000C10F858
:10013000013B13F0070408BF10F8014B1D1108BF65
:1001400010F8015B641E05D010F8016B641E01F805
:10015000016BF9D113F0080F1EBF10F8014BAD1C55
:100160000C1B09D16D1E58BF01F801CBFAD505E073
:1001700014F8016B01F8016B6D1EF9D59142D6D3CD
:10018000704700000023002400250026103A28BFF5
:1001900078C1FBD8520728BF30C148BF0B607047F9
:1001A000662907F05E86642900F0148100207047FC
:1001B0001FB500F027FD04000020002107F05AF8C9
:1001C000E0601FBD10B510BD00F01CFE1146FFF72A
:1001D000EFFF05F0B5FF00F03AFE03B4FFF7F2FFC2
:1001E00003BC05F013F800000948804709480047A0
:1001F000FEE7FEE7FEE7FEE7FEE7FEE7FEE7FEE7D7
:10020000FEE7FEE704480549054A064B7047000033
:100210006D4F0008ED000008D83C0020D8420020B7
:10022000D83E0020D83E002072B6704762B67047B4
:10023000EFF3108072B6704780F31088704730BFBC
:10024000704720BF7047B0FA80F0704790FAA0F076
:10025000B0FA80F0704790FAA0F07047704753EA08
:10026000020C00F069802DE9F04B4FF00006002BE6
:100270001FBFB3FA83F503FA05F424FA05F65E40CE
:1002800012BF1643B2FA82F502FA05F4C5F1200551
:100290001EBF22FA05FC44EA0C04203556EA044C41
:1002A0004FEA144418BF641C4FF000084FF00009D7
:1002B000904271EB030C39D3002919BFB1FA81F7D1
:1002C00001FA07F6B0FA80F700FA07F6C7F120073F
:1002D0001EBF20FA07FC46EA0C062037B6FBF4FCEA
:1002E000A7EB0507103F07F01F0BCBF120060CFA18
:1002F0000BFB2CFA06F644BFB3460026202FA4BF02
:100300005E464FF0000B5BEA060C08BF4FF0010B96
:1003100019EB0B09ABFB027C48EB0608C01B06FB84
:1003200002CC0BFB03CC71EB0C01C1E70B46024680
:1003300041464846BDE8F08B13B54FF000004FF042
:100340000001AFF30080BDE81C40704710B54C10B1
:1003500084EA530404D54042C1F1000138BF491E6C
:100360001B4204D55242C3F1000338BF5B1EFFF7A6
:1003700076FF14F0804F04D04042C1F1000138BF35
:10038000491E14F0004F04D05242C3F1000338BF9D
:100390005B1E10BD0FB4044910B503AA029800F00B
:1003A000FDFB10BC5DF814FB3C0500200FB41CB530
:1003B000074B06AA7B4469460090059800F0D5FBE0
:1003C0000020694600F0E4FB1CBC5DF814FB000053
:1003D000D90700002DE9F041064600241068752970
:1003E000314616A510D0AFF30080002802DA404253
:1003F00013A507E031688A0701D512A502E0490775
:1004000004D511A5012401E0AFF3008000210A22E8
:1004100006F1240709E0B0FBF2FCB0FBF2F302FBAB
:100420001C00303078541846491C0028F3D123466C
:100430002A463046BDE8F04100F02BB9000000002C
:100440002D0000002B000000200000002DE9F05FCF
:10045000894604464FF0000ADFF874B1FB44C0F847
:1004600020A02046E1688847002874D0252806D0BF
:10047000D4E901219047206A401C2062F1E7002660
:100480005F462046E16888472028054607DB312D76
:1004900005D2781910F8200C08B10643F1E7B0072F
:1004A00001D526F00406C4F81CA00027C4F818A043
:1004B0002A2D09D0284604F0A2FE38B304EB8708A1
:1004C000303DC8F8185019E059F8041B204604EBD9
:1004D00087029161E1688847012F054618D1E069DC
:1004E000002820DA26F020061DE0D8F8180000EBDE
:1004F000800005EB40003038C8F818002046E1685D
:100500008847054604F07BFE0028EED1012F0AD073
:100510002E2D08D12046E16888477F1C0546022F12
:1005200046F02006C4DBA069002803DA404246F00A
:100530000106A061F00701D026F010066C2D0BD04B
:10054000682D09D04C2D39D06A2D35D0742D35D079
:100550007A2D33D016E038E0E1682F4620468847F0
:10056000B842054609D16C2F26D04FF48060E1686F
:10057000064320468847054604E06C2F1AD04FF406
:10058000807006430DB3A5F14100192802D820352B
:1005900046F400664A462946204626604E46FFF746
:1005A000FFFD80B101280BD0F61D26F0070000F1F9
:1005B000080956E74020E4E78020D8E70020D6E786
:1005C00006F104094DE7284652E7206ABDE8F09F8E
:1005D000809F000040EA010310B59B070FD1042A59
:1005E0000DD310C808C9121F9C42F8D020BA19BAFE
:1005F000884201D9012010BD4FF0FF3010BD1AB163
:10060000D30703D0521C07E0002010BD10F8013BB7
:1006100011F8014B1B1B07D110F8013B11F8014BDE
:100620001B1B01D1921EF1D1184610BD02F0FF0331
:1006300043EA032242EA024200F0C4BA4FF0000249
:1006400000B5134694469646203922BFA0E80C50C8
:10065000A0E80C50B1F12001BFF4F7AF090728BFA3
:10066000A0E80C5048BF0CC05DF804EB890028BF1F
:1006700040F8042B08BF704748BF20F8022B11F048
:10068000804F18BF00F8012B7047704770477047C4
:1006900070472DE9F0470D4699469246044600F111
:1006A00024080168880604D5E06921F01001216062
:1006B00000E00120A84201DD471B00E00027A169FE
:1006C0007A1902EB0900081AA0612078C00602D44A
:1006D0002046AFF30080002608E0D4E901211AF893
:1006E00006009047206A401C761C20624E45F4DBD1
:1006F0002078C0060AD52046AFF3008006E0D4E992
:10070000012130209047206A401C2062381EA7F14A
:100710000107F4DC07E0D4E9012118F8050090474F
:10072000206A401C2062281EA5F10105F3DC20464A
:10073000AFF300802078000602D50220BDE8F087E4
:100740000120FBE770472DE9FF4F0C461E464FF096
:10075000FF378BB0D2E90001DDF860800A908A464D
:10076000C1F30A5505B93D46002108464FF0000087
:10077000BAF1000F00F4400005DA00EB80004FF4FE
:10078000400101EA50004FEA9059B9F1010F00DD34
:10079000B9460A9850EA4A000ED044F61050A5F225
:1007A000FF3545432F14B8F1000F1ED07542291EA6
:1007B0001EDDC9F100021CE0B8F1010F4FF000008E
:1007C00001D0302103E0F24305E02154401CB04247
:1007D000FBDB30460022002121540B99C1F8088030
:1007E000C1E900200FB0BDE8F08FBD1B6D1CDEE736
:1007F0004A4600DA694206A800F08EFA06AB93E892
:10080000070003AB83E8070050460A9900F066FB37
:100810008DE80700A0F500501F3800900398002DC8
:1008200009DD42F21F014A46084403A903906846C5
:1008300000F0C5FD08E0A0F500504A461F3803A9A6
:100840000390684600F0CFFD8DE807000004000C1F
:1008500003D04FF0FF30410800E01046B8F1000F20
:1008600003D00022009215461EE0751E05D400F04C
:10087000CDF9303262556D1EF9D5B34601220843D9
:1008800002D000227F1C04E02078302801D1002211
:100890007F1E002A099786D01DE0112D07DA00F08F
:1008A000B5F9303262556D1C50EA0102F5D10843AA
:1008B00002D00098C8B10EE00021681E05E0235C5C
:1008C000625C63542254401E491C8142F7DBAB46F4
:1008D000A81B401E0990002004F80B000B98099AF1
:1008E000C0F80880C0E9002B7CE711264FF0000813
:1008F00059E72DE9F04F88460446D21D22F0070142
:1009000091B0D1E90001CDE90A0104F064FC02468E
:100910000B98C00F01D02D2007E02068810701D57A
:100920002B2002E0202101EAC000032A099001D017
:10093000072A05DB03464146204600F0ADF90BE1EE
:100940002078800601D5E06900E00620B8F1650F47
:10095000814606D0B8F1660F18D0B8F1670F70D194
:1009600031E00020B9F1110F009001DB112301E00B
:1009700009F101030AAA01A90CA8FFF7E4FEDDE9C9
:100980000C70002609F10105834647E001204B4623
:1009900000904FF000470AAA01A90CA8FFF7D3FE68
:1009A000DDE90DB00C995D46002610B909F1010092
:1009B0000D18B9EB050003D4C0F1FF3609F10105AC
:1009C000A5EB09002BE0B9F1010F01DA4FF00109A5
:1009D0000020B9F1110F0090484601DD112300E01D
:1009E00003460AAA01A90CA8FFF7ADFEDDE90C70C9
:1009F0004D4600268346207800070AD4AB4500DA2E
:100A00005D4601A8012D04DD411911F8011C3029B2
:100A100007D04F4502DA17F1040F04DA01208246AD
:100A20000FE06D1EEEE7002F02DCED1B3E4403E0FD
:100A3000781CA84200DD7D1CB81B00F1010A4FF0B4
:100A400000472078000703D4AA4501DB4FF0FF3AA6
:100A50000021B7F1004F0DF143088DF8431024D069
:100A600002202B23002F01DA7F422D230A21021EB0
:100A7000A0F1010000DC5FB197FBF1FC97FBF1F204
:100A800001FB1C7C17460CF1300C08F801CDEEE799
:100A9000A8F1010003702188090501D5452100E076
:100AA0006521A0F1010800F8011C09980FA9A1EB2C
:100AB0000807FF1D00B10120411901EBEA70A1698F
:100AC0003844081A401EA0612078C00602D420468F
:100AD000AFF30080099828B1D4E901219047206A3A
:100AE000401C20622078C00622D52046AFF300804B
:100AF0001EE0002E04DBB34502DD01A8805D00E0AE
:100B00003020D4E901219047206A401C2062761CE5
:100B1000AAF101005FEA000A0AD100F073F8C06888
:100B20000168405CD4E901219047206A401C2062A2
:100B3000281EA5F10105DCDC07E0D4E9012118F845
:100B4000010B9047206A401C2062381EA7F1010764
:100B5000F3DC2046AFF30080032011B043E6000031
:100B600001694A1C02610878704700B58FB0CDE971
:100B700001310021059105497944CDE90310114661
:100B80006846FFF763FC0FB000BD0000E5FFFFFF04
:100B90000A6802F8010B0A6070470000074B70B545
:100BA0000D467B44FFF7E1FF0446284600F022F99A
:100BB00010B14FF0FF3070BD204670BD3B500000BB
:100BC0004FF000020429C0F0128010F0030C3FF433
:100BD00037ADCCF1040CBCF1020F18BF00F8012BAB
:100BE000A8BF20F8022BA1EB0C01FFF729BD5FEA9B
:100BF000C17C24BF00F8012B00F8012B48BF00F88E
:100C0000012B704700487047983C002030B5B0F188
:100C10000A024FEA900E71F100034EEA817EB0EBBA
:100C20000E0061EB91014FEA101E4EEA017E10EBBF
:100C30000E0041EB11114FEA102E4EEA016E10EB3F
:100C40000E0041EB11214FEA104E4EEA014E10EB1F
:100C50000E0041EB1141401841F100014FEAD00074
:100C600040EA41704FEAD10110EB80054FEA810460
:100C700044EA907444EB01046D1944EB0404521BE4
:100C8000A3414FF0000348BF0A3200D530BD401CDD
:100C900041F1000130BD00002DE9F0411F4604463E
:100CA00003260168072A01F4006004DB08B116A5D9
:100CB00005E016A503E008B115A500E015A521F093
:100CC00010002060A069C01EA0610FB1401EA0618D
:100CD0002046AFF300804FB1D4E901213846904758
:100CE000206A401C2062C01C206206E0206AFAE7ED
:100CF000D4E9012115F8010B9047761EF8D2204661
:100D0000AFF30080BDE8F0814E414E006E616E0091
:100D1000494E4600696E66002DE9F0478146164649
:100D20008AB0334878440DC88DE80D0030487844C7
:100D3000801C03AC0DC884E80D0041F69B300844CC
:100D4000372190FBF1F290FBF1F5A5F1800501FB55
:100D500012041B3C02D56442012000E00020DFF8B1
:100D600090A080460027FA44AAF1BE0A0DE0E007F1
:100D700009D03246684607EB47010AEB810100F0D3
:100D800032FB8DE8070064107F1C002CEFD1184F58
:100D90007F44AC3F18E0E80714D007EB04100DF1D6
:100DA000180A90E80E008AE80E00C068F04201D1EF
:100DB00098190890324606A903A800F014FB03AB6B
:100DC00083E807006D10641C002DE4D132466946AB
:100DD000B8F1000F03A802D000F0F1FA01E000F032
:100DE00002FBC9E90001C9F808200AB0BDE8F08794
:100DF00048970000007B00F0800070470048704773
:100E0000783C00207546FFF7F9FFAE4605006946BD
:100E1000534620F00700854618B020B5FFF7F2F9D9
:100E2000BDE820404FF000064FF000074FF00008EB
:100E30004FF0000B21F00701AC46ACE8C009ACE86C
:100E4000C009ACE8C009ACE8C0098D46704704464B
:100E5000AFF300802046FFF7C0F900004FF0013CDF
:100E600050F8042B51F8043B9A4221D1A2EB0C0319
:100E7000934313EACC1317D150F8042B51F8043BD9
:100E80009A4215D1A2EB0C03934313EACC130BD176
:100E900050F8042B51F8043B9A4209D1A2EB0C0301
:100EA000934313EACC13DBD04FF00000704700BF30
:100EB000D01A01BAB1FA81F101F0180122FA01F059
:100EC000CB40C1F12001DBB2C0B2C01A2CFA01F351
:100ED000D11A914311EAC311E6D170475FEA400C81
:100EE00008BF91F0000F4FEA8C234FEAC12243EA7A
:100EF00051514FEA1C5018BF00F5F0404FEA300046
:100F000018BF41F000415FEA6C5C00F02980BCF141
:100F1000FF3F08BF40F080407047130C06BF12042B
:100F20004FF0100C4FF0000C130E04BF12020CF126
:100F3000080C130F04BF12010CF1040C930F04BF33
:100F400092000CF1020CD30F04BF52000CF1010C03
:100F500011464FF00002A0F11F00A0EB0C007047FB
:100F600011F0004F08BF704731F000413FF4D5AF9A
:100F70000B0C06BF09044FF0100C4FF0000C0B0EC9
:100F800004BF09020CF1080C0B0F04BF09010CF19E
:100F9000040C8B0F04BF89000CF1020CCB0F04BFB3
:100FA00049000CF1010CCCF12003A0EB0C0022FA5B
:100FB00003F302FA0CF241EA030100F10100704769
:100FC00020F07F4C80EA030023F07F47ACEB07035F
:100FD00003F57C5300F0004003F1FF032DE9804945
:100FE0004FEA154B09B44FEA144325EA0B4E24EAA5
:100FF00003480FF2042606EB132749083E785FEA00
:10100000320203FB0667C7F5000707FB06F64FEA47
:1010100054374FEAD64606F1020607FB066CCCF1C0
:10102000005C4FEA1C472CEA074C07FB06F40CFB5C
:1010300006F504EB15464FEA961634BF00204FF034
:1010400000404FEAD13706FB07FC4FEA1C4C0CFB73
:101050000BF7D21B03FB0CF761EB07010CFB0EF740
:10106000B0EB074072EB17420CFB08F734BFA2EB62
:101070000742B2EB074261EB17414FEA0C444FEADB
:10108000910706FB07FC4FEA1C4C0CFB0BF7B0EB7F
:10109000C74072EB573203FB0CF734BFA2EBC742D9
:1010A000B2EBC74261EB57310CFB0EF7B0EBC70058
:1010B00072EB57720CFB08F734BFA2EBC702B2EB1E
:1010C000C70261EB5771039F4FEA816141EA9211B8
:1010D00004EBCC044FEAD1374FEA826206FB07FCEF
:1010E00042EA90124FEA80604FEA1C4C0CFB0BF76F
:1010F000D21B03FB0CF761EB07010CFB0EF7B0EB07
:10110000074072EB17420CFB08F734BFA2EB074213
:10111000B2EB074261EB17414FEA8C554FEA91075A
:1011200004EB9C2406FB07FC4FEA1C4C0CFB0BF762
:10113000B0EBC74072EB573203FB0CF734BFA2EBA6
:10114000C742B2EBC74261EB57310CFB0EF7B0EB75
:10115000C70072EB57720CFB08F734BFA2EBC70253
:10116000B2EBC70261EB577115EB4C254FEA816179
:1011700041EA92114FEA82624FEAD13742EA901275
:1011800006FB07FC44F100044FEA80604FEA1C4C68
:101190000CFB0BF7D21B03FB0CF761EB07010CFBFD
:1011A0000EF7B0EB074072EB17420CFB08F734BFA9
:1011B000A2EB0742B2EB074261EB174115EB1C159E
:1011C0004FEA813141EA92414FEA823242EA90424B
:1011D0004FEA80304FEA0C7644F1000448EA0343BA
:1011E0004EEA0B484FF0000EB2EB080C71EB030710
:1011F00024BF624639464EEB0E0E4FF0000B00182E
:10120000524149414BEB0B0BB2EB080C71EB03075E
:101210007BF1000B24BF624639464EEB0E0E4FF0B9
:10122000000B0018524149414BEB0B0BB2EB080C81
:1012300071EB03077BF1000B24BF624639464EEB8E
:101240000E0E51EA020718BF46F0010616EB0E76A5
:1012500055F1000254F1000103D5BDE88901BDE854
:101260000088BDE88901BDE80048B619524141EB4C
:101270000101A3F10103704780807F7E7D7C7B7A32
:101280007978777676757473727171706F6E6E6D32
:101290006C6C6B6A6A6968686766666564646363D8
:1012A00062616160605F5F5E5E5D5D5C5C5B5B5A5E
:1012B0005A595958585757565655555554545353CB
:1012C00052525251515050504F4F4F4E4E4D4D4D26
:1012D0004C4C4C4B4B4B4A4A4A4949494848484771
:1012E00047474746464645454544444444434343AF
:1012F0004342424242414141002B26D4770021D053
:101300001CB54FEA370703B44FF010004FF010013F
:101310004FF000000FBCBDE810400BF1010BBBF11A
:10132000010F08BF5FEA170722BF12F1010211F196
:1013300001014FF0004143F1000300F0004043EA97
:1013400000007047F9D35708DAE746EA064613F17A
:10135000400F4FEA16461FDD13F1200FDFBF164383
:101360000A46002120335B42C8D0C3F1200746EA79
:10137000064602FA07F74FEA164646EA0706C3F1A1
:10138000200722FA03F201FA07F721FA03F14FF0DE
:10139000000342EA0702B1E746EA020646EA0646C9
:1013A0004FEA164646EA0106BCBF46EA0646360C38
:1013B0004FF000034FF000024FF000019EE72DE9CF
:1013C000C048934630B491E8380007C831EA400C71
:1013D00048BF34EA430C03D5FFF7F2FDFFF78CFF5B
:1013E000F0BCBDE800882DE9C048934630B491E8D0
:1013F000380007C810F0804F08BF13F0804F03D1AA
:1014000000F005F8FFF778FFF0BCBDE8008820F099
:101410007F4780EA030023F07F4C07EB0C03A3F522
:101420007C5300F00040A3F1FE0392F0000F00F0A7
:10143000B38095F0000F00F077802DE901494FEA65
:1014400011404FEA144621EA004800FB06FC24EA5A
:10145000064708FB06F607FB08F800FB07F718EB42
:1014600006484CEB164C4FEA124B18EB07484FEA74
:1014700015464CEB174022EA0B4E0BFB06FC25EA07
:1014800006470EFB06F607FB0EFE0BFB07F71EEBEF
:10149000064E4CEB164C4FF000061EEB074E4CEB85
:1014A000174B18EB0B0840F1000018EB0E0B58EB34
:1014B000000840F100008F1A4FF000013CBFC94303
:1014C000661B14BFB5EB040C00213CBFC943F61BDF
:1014D0004FEA17444EEA8E0E27EA04454FEA1C47AE
:1014E00004FB07622CEA074C05FB07F70CFB05F62B
:1014F00004FB0CFC16EB074642EB174216EB0C46BE
:1015000042EB1C421BEB060658EB0202414146EA45
:101510009E0601D5BDE80189B619524141EB010192
:10152000A3F10103BDE801894FEA14454FEA1147D1
:1015300024EA054621EA074C05FB07F406FB07F7FA
:101540000CFB06F105FB0CFC11EB074144EB1744C7
:101550004FEA124711EB0C4144EB1C4422EA074CC2
:1015600005FB07F206FB07F70CFB06F605FB0CFC78
:1015700016EB074642EB174216EB0C4642EB1C45B6
:101580006A1854F1000148BF7047B619524141EB47
:101590000101A3F10103704795F0000F37D04FEA26
:1015A00011424FEA144721EA024624EA074C02FBA3
:1015B00007F106FB07F70CFB06F402FB0CFC14EB2F
:1015C000074441EB17414FEA154714EB0C4441EB3C
:1015D0001C4125EA074C02FB07F506FB07F70CFB4D
:1015E00006F602FB0CFC16EB074645EB174516EB1F
:1015F0000C4645EB1C42121951F1000148BF7047DF
:10160000B619524141EB0101A3F1010370474FEAC2
:1016100014454FEA114724EA054621EA074C05FB29
:1016200007F106FB07F70CFB06F24FF0000605FB7F
:101630000CFC12EB074241EB174112EB0C4251EB51
:101640001C4148BF7047921841EB0101A3F101030F
:10165000704700001D484FF6FF710170002080F3B5
:1016600009881B48016881F308881A484FF08051A7
:10167000016062B6FEE717484FF080510160704785
:1016800014484FF080510160704772B6EFF3098043
:1016900028B1203880E8F00F0F490968086000B5CC
:1016A0000E4880475DF804EB0D480E490A78027039
:1016B00009480D490A680260106890E8F00F203070
:1016C00080F309884EF0040E62B6704722ED00E008
:1016D0001C05002004ED00E014050020FD2E00088C
:1016E000A6040020A7040020180500200029816816
:1016F00002D041F0010101E021F001018160704759
:101700000D4910B5884202D1012144150AE00B4968
:10171000884202D10121041504E0094988420AD116
:101720000121CC03204603F03BFB2046BDE81040DE
:10173000002103F035BB10BD00240140002801400A
:10174000003C0140014600208968490700D501207E
:101750007047C06C80B270470246002012680A428F
:1017600000D001207047014600208968090700D594
:101770000120704710B542680E4B0C791A400B6877
:1017800042EA04221343436083680B4A1340D1E9C1
:10179000024222434C7943EA44031A438260C26AFC
:1017A000097C22F47002491EC9B242EA0151C162A9
:1017B00010BD0000FFFEF0FFFDF7F1FF70B507243C
:1017C00009290AD9C568A1F10A0606EB4606B44004
:1017D000A543B3401D43C56007E0056901EB410621
:1017E000B440A543B3401D4305611F23072A09D216
:1017F000446B521E02EB820293409C4391400C4387
:10180000446370BD0D2A09D2046BD21F02EB820221
:1018100093409C4391400C43046370BDC46A0D3AED
:1018200002EB820293409C4391400C43C46270BD22
:10183000816841F00801816070470029816802D009
:1018400041F4A00101E021F4A001816070478168AA
:1018500041F004018160704730B587B001214FF439
:10186000017003F091FA4FF4004003F077FA022080
:10187000ADF8140000248DF8174005A9164800F0B3
:1018800097F8164D2846FFF73BFF4FF46020CDE94F
:10189000020401208DF804408DF8100000948DF8AA
:1018A000054069462846FFF765FF01212846FFF7F6
:1018B0001DFF2846FFF7BCFF2C462046FFF753FFCD
:1018C0000028FAD12046FFF7C2FF2046FFF73AFF73
:1018D0000028FAD107B030BD0008014000240140C3
:1018E00038B50121102003F04FFA4FF48044ADF8D1
:1018F000004010208DF803000320064D8DF80200F3
:101900006946284600F054F82146284600F0A1F820
:1019100038BD00000010014000B585B0684603F0F6
:101920004BFA019805B000BDFEE70000044910B570
:101930000020086000F01CF8BDE8104000F002B87C
:101940004C04002010B5FEF773FC04461021044837
:1019500000F09EFA2046BDE81040FEF76DBC000086
:101960003020002001490860704700004C0400202E
:1019700010B5FFF7D1FF08490A6842F080720A608B
:10198000064900224A600A6842F001020A60BDE886
:101990001040FFF7E7BF0000FCED00E0001000E0A2
:1019A0000148406870470000001000E070470000E8
:1019B000F0B5CA78002502F00F03D20601D58A7867
:1019C00013430A784FF00F0E12F0FF0F4FF0010291
:1019D0001CD004680F8802FA05F63740B74211D1CF
:1019E0004FEA850C0EFA0CF724EA070703FA0CF409
:1019F0003C43CF78282F02D0482F02D002E0466126
:101A000000E006616D1C082DE4D304600C88FF2CF7
:101A10001ED944685FF0000606F1080702FA07F5D0
:101A20000F882F40AF420FD14FEA860C0EFA0CF709
:101A3000BC4303FA0CF73C43CF78282F00D1456113
:101A4000CF78482F00D10561761C082EE4D344607E
:101A5000F0BD4161704701617047000010B50B4C4B
:101A60000146072301222046FFF7A8FE0121204658
:101A7000FFF7E3FE02212046FFF76EFE0028F9D0B3
:101A80002046BDE81040FFF764BE0000002401407E
:101A90002DE9F04100250E4607462C4604E0384665
:101AA000FFF7DCFF0544641CB442F8D3B5FBF6F045
:101AB00080B2BDE8F0812DE9F041ADF57E7D0F46A5
:101AC00080464FF47D716846FEF7B8FD0024254638
:101AD0006E4607E014214046FFF7DAFF26F81400AF
:101AE000641C6D1CBD42F5DB2146684603F002FA1A
:101AF00004EBD47020F00100805B0DF57E7DBDE825
:101B0000F081FEE738B50121102003F03DF94FF4D4
:101B10000054ADF8004010208DF803000320064D5E
:101B20008DF8020069462846FFF742FF2146284605
:101B3000FFF791FF38BD00000010014010B500F024
:101B400037F880216B2000F019F8322003F006FCF2
:101B500000216B2000F012F80721192000F00EF888
:101B600006211A2000F00AF818211B2000F006F8C0
:101B70000121BDE810401C20AFF3008070B50C4679
:101B8000054600F091F8D02000F0F2F800F02AF8B5
:101B900050B9284600F0ECF800F024F820B92046AF
:101BA00000F0E6F800F01EF8BDE8704000F09EB8C6
:101BB00038B50121082003F0E7F810208DF8030064
:101BC00003208DF802000402054DADF8004069467F
:101BD0002846FFF7EDFE21462846FFF73CFF38BDBB
:101BE000000C0140154A10B51068002320F0F000E9
:101BF0001060106840F030001060114C0120C4F8F3
:101C0000A401C4F8A00103F073FB106820F0F000F9
:101C10001060106840F08000106005E05B1CDBB2D3
:101C2000FA2B01D9012010BDD4F824010028F5D1E8
:101C3000C4F8A00103F05CFB002010BD040C0140BF
:101C400000802142F0B50023154A164C1D4601269E
:101C50001F46106820F0F0001060106840F030005F
:101C60001060C4F8A461C4F8A06103F041FB5806F9
:101C7000030E106820F0F0001060106840F0800043
:101C80001060D4F8240108B15B1CDBB2C4F8A07169
:101C900003F02EFB6D1CEDB2082DDAD31846F0BD13
:101CA000040C0140008021420E4800B5016821F07B
:101CB000F0010160016841F0300101600A4A012031
:101CC000C2F8A401C2F8A00102F5D07203F010FB23
:101CD0000023536003F00CFB13605DF804EB03F08A
:101CE00007BB0000040C0140008021420C4800B5F5
:101CF000016821F0F0010160016841F030010160EC
:101D0000084A0020C2F8A4010123C2F8A03102F55C
:101D1000D07203F0EDFA53605DF804EB03F0E8BA1B
:101D2000040C0140008021420F4900B50A6822F0EE
:101D3000F0020A600A6842F030020A600B4A00238F
:101D4000C2F8A031012110B1C2F8A41101E0C2F81B
:101D5000A431C2F8A01103F0CBFAC2F8A0315DF8AB
:101D600004EB03F0C5BA0000040C014000802142DE
:101D7000F0B513490646086820F0F00008600868CE
:101D800040F0300008600F4A0024C2F8A0418025CE
:101D90002346012725FA03F0304202D0C2F8A4718D
:101DA00001E0C2F8A441C2F8A07103F0A1FAC2F8A0
:101DB000A04103F09DFA5B1CDBB2082BEAD3F0BD17
:101DC000040C0140008021422DE9F0411D461446DB
:101DD0000F460646FFF768FF7006000EFFF7C8FFC4
:101DE000FFF700FF20B1FFF781FF0120BDE8F08180
:101DF0003846FFF7BDFFFFF7F5FEFFF755FF01205F
:101E000000EB4600C0B2FFF7B3FFFFF7EBFE0AE0BE
:101E1000012C0ED0FFF716FF28700020FFF784FF7B
:101E2000641EE4B26D1C002CF2D1FFF75FFF0020AE
:101E3000DCE7FFF707FF28700120EFE72DE9F0410D
:101E40001E4615460F460446FFF72EFF6006000E9D
:101E5000FFF78EFFFFF7C6FE60B93846FFF788FF31
:101E6000FFF7C0FE00240CE0305DFFF781FFFFF7B5
:101E7000B9FE20B1FFF73AFF0120BDE8F081641CF4
:101E8000E4B2AC42F0D3FFF731FF0020F5E7FEE704
:101E90000A460021AFF3008010B500234FEA030487
:101EA000641C41EA0323042CFAD310F0030405D187
:101EB0000BE000BF521E00F8011B641C002A0CD06E
:101EC000042CF7D301E008C0121F042AFBD202E061
:101ED00000F8011B521E002AFAD110BD7047000005
:101EE00070B50F23C47801780122F4B1144C246832
:101EF000457804F4E064C4F5E064240AC4F10406FF
:101F0000E3408478B5401C402C4301F1E0212301DB
:101F100081F80034007800F01F018A4040098000F9
:101F200000F1E020C0F8002170BD01F01F008240E8
:101F30004809800000F1E020C0F8802170BD000059
:101F40000CED00E0024908430249086070470000B8
:101F50000000FA050CED00E070B50024104E254697
:101F600004F1B000C0B2002100F0C4F9002108461D
:101F700000F0C0F90021102000F0BCF95FF0000073
:101F800006EBC001401CC0B20D558028F8D3641C7C
:101F9000E4B2082CE4D3BDE8704000F0C5B80000FE
:101FA000201C002010B5064BCA0803EBC00001F04E
:101FB0000704835C0121A1408B43835410BD0000C2
:101FC000201C0020CA0801F0070301219940034B9F
:101FD00003EBC000835C0B4383547047201C00203C
:101FE000F8B50121042002F0CFFE10258DF8035032
:101FF000A020ADF800004A4E03248DF80240694647
:102000003046FFF7D5FCA0213046FFF724FD012123
:10201000082002F0B9FE8DF80350ADF800408DF8AD
:102020000240404C69462046FFF7C2FC032120468F
:10203000FFF711FD00F09EF80021AE2000F05AF9E4
:102040000021084600F056F90021102000F052F956
:102050000021402000F04EF90021812000F04AF9D3
:102060000021CF2000F046F90021A12000F042F924
:102070000021C82000F03EF90021A62000F03AF926
:102080000021A82000F036F900213F2000F032F9AD
:102090000021D32000F02EF90021084600F02AF993
:1020A0000021D52000F026F90021802000F022F93F
:1020B0000021D92000F01EF90021F12000F01AF9CA
:1020C0000021DA2000F016F90021122000F012F9A8
:1020D0000021DB2000F00EF90021402000F00AF979
:1020E0000021202000F006F90021022000F002F972
:1020F00000218D2000F0FEF80021142000F0FAF8F5
:102100000021A42000F0F6F80021A62000F0F2F84B
:102110000021AF2000F0EEF8FFF71EFFF8BD000031
:1021200000080140000C014070B5114E002400BFB2
:1021300004F1B000C0B2002100F0DCF80021084634
:1021400000F0D8F80021102000F0D4F85FF000056E
:1021500006EBC5000121005D00F0CCF86D1CEDB26E
:10216000802DF5D3641CE4B2082CE1D370BD0000CF
:10217000201C002010B50A4C01212046FFF76BFC03
:10218000642003F0EBF801212046FFF762FC642095
:1021900003F0E4F82046BDE810400121FFF75BBCE6
:1021A000000C01402DE9FF4F1D460C46894658079B
:1021B00000D0012000EBD50069084843203A00F028
:1021C000FF0A02F0FF0B002635E00C2D12D0102D77
:1021D00014D0182D31D11A490BEBCB0001EB800044
:1021E0004FF00008875D2146380600980AD5FFF7B2
:1021F000E9FE09E00BEB4B001249EFE7124901EB56
:102200000B10EDE7FFF7CEFE7806641C070EE4B274
:10221000A4EB0900A84205D100984C46401CC0B26E
:10222000009006E008F1010000F0FF08B8F1080F87
:10223000D9D3761CF6B25645C7D3BDE8FF8F000050
:10224000AA890008467F0008BA8300082DE9F047F4
:1022500099469046064600270C46DDF820A01FE070
:1022600004F1B000C0B2002100F044F8102040EAB0
:102270001610002100F03EF806F00F00002100F0DB
:1022800039F8354608E000BF1AF8070001217F1C25
:1022900000F030F86D1CEDB24545F5D3641CE4B296
:1022A0004C45DDD3BDE8F0872DE9F0411D461646CB
:1022B00088460446C3F1800714E02B464146204679
:1022C000FFF770FF04EB5500C4B2A74209DA0024FF
:1022D000680700D0012000EBD50108EBC10000F039
:1022E000FF08761C3278A2F120005E28E5D9BDE80F
:1022F000F081000070B5134E0C46054602213046B1
:10230000FFF7A7FB1CB102213046FFF7A4FB0E4EDE
:10231000002420213046FFF79CFB28064FF0800167
:10232000304602D5FFF797FB01E0FFF792FB202133
:102330003046FFF790FB6806641C050EE4B2082CDB
:10234000E7D370BD000C0140000801407047000059
:1023500002480068002800D000477047640400204D
:1023600010B5044600F0BEF8464800210A2201706C
:102370004548017045480170454801604548016085
:102380004548017045480170454801704548016065
:10239000454801604548016045480170454800686E
:1023A000B0FBF2F0444A1060444A106830B144482F
:1023B000006818B1126802C0521EFCD14148016089
:1023C0004148016041480160414801604148016065
:1023D00041480160414801604148017001F086FBBD
:1023E00001F01EFC204600F0D7FE2088002847D1CF
:1023F000204601F085F92088002841D1204601F0CF
:10240000A3F9208800283BD1204601F025FA208836
:10241000002835D1204601F095FB208800282FD1D7
:10242000204601F023FD2088002829D1204601F014
:102430003DFF2088002823D1204601F0D5F82088D0
:1024400000281DD1204600F07DFF2088002817D1EC
:10245000204602F0D5FA2088002811D1204601F04C
:1024600083FE208800280BD1204602F01DFB208827
:10247000002805D100F08EFEBDE81040FFF766BFD2
:1024800010BD00007804002079040020C004002062
:102490001405002018050020A6040020A704002031
:1024A000A8040020B4040020B8040020BC040020CC
:1024B000C8040020ACA30008C404002084A30008C2
:1024C00080A30008580400205C0400206004002061
:1024D00064040020680400206C04002070040020C4
:1024E000F604002030B5094B0020094A044619685B
:1024F00001E010C1401C1568A842FAD318680549CC
:1025000000EB8500001F086030BD000080A30008BC
:1025100084A300081C05002005480078012805D187
:1025200004490878FA2801D2401C0870704700005E
:1025300079040020780400201A4810B5007801289A
:102540002FD1FDF775FE184A0446117829B1491EAE
:1025500011F0FF00107022D103E0BDE81040FDF73C
:102560006BBE12480078D0B901F0AEFA104908707D
:10257000104900EB400051F820100F4801600F484F
:10258000006881420BD051F8900F401C08600C4845
:102590000168491C01600B494FF0805008602046DB
:1025A000DBE710BD7904002078040020C00400207F
:1025B000A704002064360020180500201405002020
:1025C000EC04002004ED00E0164810B50078002867
:1025D00026D115480078002822D1FDF729FE0446AF
:1025E00001F072FA11490870114900EB400051F8EE
:1025F0002000104908601049096888420BD050F843
:10260000901F491C01600D480168491C01600C497C
:102610004FF0805008602046BDE81040FDF70CBE2A
:1026200010BD000078040020C0040020A704002092
:10263000643600201805002014050020EC0400205A
:1026400004ED00E070B504461048007810B146F67D
:10265000625019E00E480078012802D045F68960E2
:1026600012E00C4D2878FA2802D345F209200BE03D
:10267000FDF7DEFD06462878401C287001F098FB27
:102680003046FDF7D9FD0020208070BD7804002081
:1026900079040020C00400202DE9F04115460C46C5
:1026A0000746FDF7C5FD0B490026012F01D00E702E
:1026B00001E001220A7008490CB10C6005E0074AEC
:1026C0000A231268B2FBF3F20A60FDF7B5FD2E8013
:1026D000BDE8F081C8040020C4040020ACA30008B9
:1026E00070B504461548007810B146F6655023E0F1
:1026F00013480078012802D045F689601CE0114D8E
:10270000287870B1FDF794FD06462878401E10F039
:10271000FF00287008D03046FDF78EFD46F6635066
:102720000AE046F6645007E001F050FB3046FDF742
:1027300083FDFFF749FF0020208070BD7804002052
:1027400079040020C004002070B50F4D044628789D
:1027500018B145F68A60208070BD01F0B5F90B49CB
:1027600008700B4908700B4900EB400051F820003D
:10277000094908600949086001202870FEF76AFFCE
:1027800043F69920E7E7000079040020A704002021
:10279000A60400206436002018050020140500203F
:1027A0002DE9F0410646FDF743FD244900240C6065
:1027B00023490C8023490C8023490C6023490C6079
:1027C00023490C6023490C6023490C81FDF734FD3B
:1027D000FDF72EFD21490D6816E000BFFDF728FD2D
:1027E000C5F8B44045F8784F07462C63AC61AC821D
:1027F000EC826C62AC62FFF7D3F845F8200FA5F1CC
:10280000340084816D6A3846FDF716FD002DE5D150
:10281000FDF70EFD12490D6804E000BFFDF708FD4D
:10282000AC85AD69FDF708FD002DF7D102F018F871
:1028300002F008FA3480BDE8F08100008C0400202A
:1028400086040020D6040020E8040020FC040020B8
:1028500004050020B804002058360020F0040020B1
:10286000AC040020F8B5044669461E4800F01CFB85
:10287000BDF8000028BB6A460021022000F06AFB78
:10288000BDF80000E8B9FDF7D3FC174E0025356010
:10289000FDF7D2FC154916480A6803689A4202D926
:1028A000B2FBF3F010B90A21B2FBF1F06A46002145
:1028B00000F050FB69460B4800F0A0F9BDF800009D
:1028C00008B12080F8BDFDF7B3FC0A490A4A0D6043
:1028D00031681160094A01211170FDF7ADFC2580B6
:1028E000F8BD0000EC3A0020D8040020ACA300089A
:1028F00094A30008E8040020DC040020E404002085
:1029000002480068002800D0004770476804002093
:102910002DE9FF4F83B004466148DDE91785DDE905
:1029200010960078DDF854A0139F10B147F24A10BA
:102930002AE04CB1059850B166B15A480068874208
:102940000BD246F630601FE047F2AD101CE047F2B4
:102950004F1019E046F62F6016E01298B84202D3E5
:1029600046F6316010E046F27320B9F1400F0BD209
:102970005FEA090103D0B9F13F0F02D008E04A49EC
:1029800000E04A498C4203D0288007B0BDE8F08FB0
:10299000204601F09BFC4FF0000BA5F800B05FEA69
:1029A000C8700AD05FEA887007D5304600215A46C1
:1029B00001E004C0491CB942FBD31298CDE900786C
:1029C00006EB8005DDE905012B46324600F034FABE
:1029D0000599A1620699E1620499216284F8379011
:1029E000C4F854A0A56020605FEA0A003AD0A06550
:1029F0001698A76366626060A4F83C800020594680
:102A000004EB8002401CD16710F0FF00F8D004F105
:102A10006400149900F0D6FE204600F053F8FDF74C
:102A200007FC234D2978491C2970FDF705FC94F813
:102A3000370001F067F8204601F038F9204601F030
:102A400007FC1C490888401C08801B4800780128A6
:102A50001AD0FDF7EDFB2978491E11F0FF0129700E
:102A600003D00CE015480068C1E71549098831B169
:102A7000FDF7E2FB07B0BDE8F04F01F075B907B014
:102A8000BDE8F04FFDF7D8BBFDF7D2FB2978491E12
:102A90002970FDF7D1FB07B0BDE8F04FFFF794BDFB
:102AA00078040020A8A3000894350020D03400202A
:102AB000C0040020F404002079040020C404002095
:102AC0008404002002490968002900D008477047A3
:102AD0005804002070B504463D480E46007810B1F9
:102AE00047F24E100AE03B48844202D147F24C10B4
:102AF00004E03948844203D147F24D10088070BD8C
:102B00002CB9FDF795FB35490C68FDF795FBFDF7F2
:102B10008FFB334D2978491C2970FDF78DFB94F804
:102B2000360008283ED2DFE800F004080C0C1C0830
:102B30000C0C204601F0EEF813E0204601F074FE84
:102B40000FE0204601F070FE94F83400072808D208
:102B5000DFE800F00704070404040400204600F046
:102B600026FF04F1640000F013FE204600F03EF85A
:102B7000204601F07FFB1B490888401E0880204644
:102B800001F0A4FBFF2084F83600FDF751FB297803
:102B9000491E2970FDF750FB00203080BDE87040D1
:102BA000FFF712BDFDF744FB2978491E11F0FF0124
:102BB000297007D10C49098821B1FDF73DFB01F0CF
:102BC000D3F801E0FDF738FB46F62D60308070BD8C
:102BD00078040020D0340020943500201405002013
:102BE000C0040020F4040020840400200249096885
:102BF000002900D0084770475C0400207FB50D46CF
:102C00000446FDF715FB1CB1104909688C4205D13B
:102C1000FDF712FB47F2571028807FBDFDF70CFB34
:102C20000B48007858B10020CDE90205009003461A
:102C3000024601902146074800F0B8FB7FBD04B072
:102C400029462046BDE8704001F024BC1405002050
:102C5000780400205452455302490968002900D0E5
:102C600008477047600400202DE9F04782464A4833
:102C700014461E460078884610B146F2AE1006E0B3
:102C8000080006D0B1F5004F03D045F62560188046
:102C900035E0002704B12760FDF7CAFA3F4D8146B1
:102CA0002968486CC8B1401E804648640CB1086C65
:102CB0002060FEF775FE29680A6C801AC1F8A4002E
:102CC000D1F8A820824201D2C1F8A8004846FDF7F9
:102CD000B3FA37804046BDE8F0875FEA084005D583
:102CE0004846FDF7A9FA46F2B01007E02C480178F3
:102CF00039B14846FDF7A0FA46F66350308000200F
:102D0000E9E78046012088F800004846FDF794FA7C
:102D1000002153460722084600F0AAFDFDF788FA75
:102D200098F80010491E88F80010FDF785FAFFF7A3
:102D30004BFCFDF77DFA8046286890F8351031B1DC
:102D4000012916D003291AD046F62E601BE074B173
:102D5000006C2060FEF724FE29680A6C801AC1F816
:102D6000A400D1F8A820824201D2C1F8A80037807F
:102D70000AE00CB1006C206046F2A91003E004B137
:102D8000276047F2D92030802868446C4046FDF720
:102D900053FA20469FE70000780400201405002025
:102DA000C00400202DE9F0410546214816460F4693
:102DB00000781C4610B147F2591007E046F2D520C2
:102DC00027B11EB1FDF734FA1DB104E01880BDE84B
:102DD000F08118490D684FF00008296841B195F855
:102DE0003C10C9070DD0FDF727FA0020696A14E0EE
:102DF000FDF722FAC7F8008047F25210C6F80080AB
:102E000007E0FDF719FAC7F8008047F25410C6F83A
:102E100000802080DBE7401C091D0A68002AFAD0E8
:102E20003860A96B081A3060A4F80080CFE7000072
:102E3000780400201405002010B5029C02EB8402E7
:102E40004FF0807442E90204164842F80C0C4FF02F
:102E5000123042F8100CA2F114004FF0023240E997
:102E600003134FF0113140F8101CD10040F8141C2E
:102E70004FF0093140F8181C910040F81C1C4FF02D
:102E800007314FF0033440F8201C610040F8241C47
:102E90004FF0053140F8281D5100C0E9092440F8E1
:102EA000041D10BD514500081FB5104A904202D1C3
:102EB00047F25B1004E00E4A904203D147F25C10E7
:102EC00008801FBD0B4A127852B10022CDE90221C1
:102ED0000146009213460192074800F067FA1FBDB1
:102EE00004B0BDE8104001F0C9BB0000D0340020A0
:102EF000943500207804002054535553114810B5E0
:102F0000006800B18047FEF74BFD0F490F4A096882
:102F10001268914209D0D1F89830C31AC1F89430A0
:102F2000D1F89C402344C1F89C30C2F89800084A6C
:102F3000D1F8B4301068834201D2C1F8B400002047
:102F4000106010BD6C04002014050020180500203E
:102F5000BC0400202DE9F041074626480E461546E0
:102F6000007810B147F2752030E0234C207810B182
:102F700046F663502AE046B1022E06D0042E05D054
:102F8000082E02D045F6256020E0EFB1FDF750F99C
:102F90002178491C2170FDF74FF9DFF8608001218D
:102FA0002B46D8F80000324680F83610394601F03A
:102FB000CFFB288868B1FDF73BF92178491E2170C5
:102FC000BDE8F041FDF738B947F27E201080BDE83A
:102FD000F081D8F8000000F09DFEFDF729F9217876
:102FE000491E2170FDF728F9FFF7EEFA002028802E
:102FF000EDE7000078040020C00400201405002044
:103000002DE9F0474B4EDDE90854367816B147F20A
:10301000752088E0DFF820A19AF8006016B146F626
:10302000635080E015F00E0647F27E2945F62567CD
:1030300005D0022E03D0042E05D0082E06D113B9D8
:103040000AB901B9F0B335F01E0C02D02780BDE8F3
:10305000F087C5F3001547F2792C47F278284FF432
:103060007A7735B142F20F75A94211D9A4F800C0A0
:10307000EDE7BB4202D347F27B2054E03B2A02D962
:1030800047F27A204FE03B29F0D8632802D804E0C9
:10309000B84202D3A4F80080D9E7284D4FF4FA7C57
:1030A000C1EB01112D68BCFBF5FC63446B43B3FB22
:1030B000F7F34FF46167784300EB8100104400FBA5
:1030C000053700E031E087B3FDF7B2F89AF8001059
:1030D0005546491C8AF80010FDF7AEF8DFF860800D
:1030E00001212346D8F80000324680F836103946D0
:1030F00001F02EFB208840B1FDF79AF82978491E8F
:103100002970BDE8F047FDF797B8D8F8000000F047
:1031100001FEFDF78DF82978491E2970FDF78CF81E
:10312000FFF752FA0020208091E7FFE7A4F8009013
:103130008DE7000078040020C0040020ACA3000844
:103140001405002000B585B000F01CF8FEF728FC3F
:1031500004AA002103920091CDE901100648074915
:10316000002300781A4600EB400001EB8001044880
:1031700000F01CF905B000BDA60400206436002054
:103180005449434B02480068002800D0004770476C
:103190007004002070470000034A00211160034AB8
:1031A00011800180704700009004002094040020EA
:1031B0002DE9F0479A4690460D460446089FFDF7D4
:1031C00037F85FEA080120D0012907D0B1F5004F98
:1031D0001BD06FF4004218EB020F11D1216AA943F2
:1031E000C4E9081A218A04F108064FF0000979B1F0
:1031F000374D2978491C2970FDF71EF836683FE0E5
:10320000FDF71AF845F625605EE0216A2943E7E7F5
:10321000FDF712F8A7F80090206ABDE8F08790F853
:103220008810766801F00F01012918D002291ED0FC
:1032300004290AD008290DD0FCF7FAFF2978491E85
:1032400011F0FF01297033D03AE0216AD0F88020D4
:10325000114009E0216AD0F8802011400BE0D0F83D
:103260008010236A0A4699438A4205D007E0D0F8C5
:103270008010226A914311B1524600F02DF816B128
:10328000B0680028CBD1FCF7D3FF2978491E2970FC
:10329000FCF7D2FF5FEA084001D4FFF795F9FCF78D
:1032A000C7FF246AFCF7C8FFA7F800902046B4E7E0
:1032B0000849098821B1FCF7BFFF00F055FD01E086
:1032C000FCF7BAFF43F6FF2038800020A5E7000096
:1032D000C00400208404002070B50025C0F88410CC
:1032E00080F8355080F834500446026490F8360077
:1032F00008280ED2DFE800F00D0D04040D0D0A0AB7
:10330000204601F0B9F884F8365002E0042084F831
:1033100036002046BDE8704000F049BB074C084D20
:10332000FCF786FF2168491C21602968491C296037
:10333000FCF782FFFFF70CF8F2E7000074040020AE
:10334000D804002000B50E4A89B0002111600B227C
:1033500005910691CDE907200A480B4A0B4B0068FE
:1033600012681B680292CDE903013F20CDE90003FA
:103370000023074A07A10C48FFF7CAFA09B000BDAD
:103380007404002060A300085CA3000858A3000890
:103390001D33000875432F4F532D49494920496477
:1033A0006C65205461736B00D03400202DE9F05F10
:1033B0001E46DDE90AAB90460F4681460D9CFCF7A0
:1033C00037FF05461C481D4A0188128891422BD2BE
:1033D000491C89B201801A4802888A4200D20180C1
:1033E00018490868C0F80090C0E902780682C0F861
:1033F00014A0A0F818B00C9AC26140680860124886
:1034000001210181114901604160002000F07AFB37
:103410000F48007808B10F49087000202080284626
:10342000BDE8F05FFCF708BF0B490888401C088026
:1034300044F25360F2E700008404002050A3000827
:10344000860400207C04002064360020943500208F
:10345000A6040020A8040020880400203EB5374CB4
:10346000374B02A920680268D51A9A4245D015DC6C
:10347000344BD2182DD0344BD21822D0334BD21823
:1034800032D0334BDA4208D1C269CDE90021038B37
:10349000028AC168806800F079FF3EBD2D4AAA18F3
:1034A0001ED02D4BD21824D02C4BDA42F5D1C26954
:1034B000CDE90021038B028AC168806800F04EFBD1
:1034C0003EBD0091028BC36941698068FFF770FEC1
:1034D0003EBD018BC269806802AB00F0D3FC3EBDEB
:1034E000806800F0D7FF3EBD018BC269806802ABE7
:1034F00021E0806801F0C2F83EBD19481949007802
:1035000000EB400001EB800000F07EFC206802AB85
:103510000021C269144801F027F814480168491EC7
:103520000160E9D1124909680160FEF739FA0246E3
:1035300002AB00210F4801F017F83EBD80040020C7
:103540005449434BADBAB2BE0DF90BFAF2F8F7FF8E
:103550000006F6FF00F7FDF700FFEFFF03FE0FFE8A
:10356000A804002064360020283A0020100500201E
:103570000C050020EC3A0020174D184C184E00BFE7
:10358000FCF756FE07462088C8B13846FCF754FEC3
:10359000FEF706FA0746FFF761FFFEF701FA296812
:1035A000C01B814200D22860FCF742FE31684968A6
:1035B00031602188491E2180FCF73EFEE0E7094981
:1035C000002008810860486000F0ACFA3846FCF73B
:1035D00033FEFEF7F9FFD1E78C04002084040020BD
:1035E0008004002064360020F0B52F492F4D89B0AB
:1035F00000220A80296831B12D4E3188022905D276
:1036000044F2546135E044F2526132E0294900232A
:10361000294F0A60296801F1200410E041F8087B75
:103620005B1C41F8082B9BB241F8042C21F8102BAD
:1036300041F80C2C21F8082C41F81C4C2034B6F829
:1036400000C06345EAD32B6841F81C3C1B490B6062
:103650001B490B601B490A801B490A801B490B68E8
:1036600053B11B4B1B4D1C682D68AC4207D244F272
:103670005661018009B0F0BD44F25561F9E70324B9
:1036800005920692CDE907401868134B09681B683C
:10369000CDE903020092CDE9011300230F4A10A1E6
:1036A0001648FFF735F9E5E78804002068A300080D
:1036B00050A300088C0400204E4F4E457C0400208F
:1036C00080040020840400208604002070A30008E9
:1036D00078A30008A8A3000874A30008793500089F
:1036E00075432F4F532D4949492049535220517555
:1036F000657565205461736B0000000094350020EF
:10370000034A00211160034A1180018070470000C4
:10371000980400209C04002010B5491E8CB20022A1
:1037200000F11003114608E0E0E80231521C20F8D5
:10373000081B92B240F8041C1033A242F4D301607B
:1037400041600181C16010BD70B50E4E0446306805
:1037500080B10D4D288880B181B23068FFF7DCFF61
:103760000A4831680160298881800021C180018177
:10377000218070BD45F21E7001E045F21D70208071
:1037800070BD000090A3000852A300085836002026
:1037900010B5428992B10A4903680C681C604368FD
:1037A0000B60CB8844891B1BCB808B8844892344C6
:1037B0008B8000214181818101604160104610BDF4
:1037C00058360020018100214181818101604160E2
:1037D00070470000F0B54489DDE905E70589AC4292
:1037E00002D346F293501EE01A4DAE88CEB12C683B
:1037F000761ED4F800C0C5F800C0AE80EE88761CF6
:10380000B6B2EE80B5F808C0B44500D22E81468924
:10381000002556B1DB060CD403681C6025600460EB
:103820000AE045F21D703880F0BD04600123446059
:1038300004E043682360446043895B1C43818689BC
:103840009BB29E4200D2838161602281C4F80CE069
:103850003D80F0BD58360020034A00211160034A24
:103860001180018070470000A0040020A404002003
:103870002DE9F041114D07460C46286800261946EF
:1038800080F8342080F8356000F0CCFC64B1FC6036
:1038900004F1080601223946286800F011F839467B
:1038A000304600F057F802E02868C68706632046D5
:1038B0002968BDE8F04100F01BB8000014050020A5
:1038C00010B5C2870024234601630EE04B6041F827
:1038D000103B641C41F8103BA4B241F80C3C21F8A9
:1038E000083C41F8043C41F8180C9442EED310BD5A
:1038F00038B14268C1F8C02081688968096AC1612D
:10390000704791F83400022803D0072803D004A0A0
:1039100002E004A000E005A0C1F8C000704700006C
:10392000200000005461736B205100005461736BE0
:103930002053656D0000000005A2C1F8C020816819
:1039400011B18968096A00E001A1C16170470000F6
:103950002000000030B58A68002392F837400289C1
:103960001AB1521C028102680BE0012202814B60F5
:103970000B60016014E0956895F83750A54203D8B4
:103980005268002AF7D107E032B1146854B1C1E996
:1039900000426160116030BD4B6042680A60516056
:1039A000416030BD1160C1E90032016030BD70B5C9
:1039B0000646C48F056B07E0E8682946083000F02A
:1039C00009F8641EA4B22035002CF5D10020F08740
:1039D000306370BD10B502890023012A0BD00A683C
:1039E00062B14C6874B1546022600289521E028137
:1039F0004B600B6010BD03604360F6E74A681360DC
:103A00000260F2E753604260EFE7F8B50C46064605
:103A100091F836100025069808293BD2DFE801F01E
:103A20003A3A04043A3A202094F83410032911D089
:103A3000E265A4F86030206436B12046FFF7B7FF96
:103A400021463046FFF778FF204600F015FD84F848
:103A500036501BE000902146304600F022F8EBE79C
:103A600094F83410032916D0E265A4F8603020647D
:103A7000204600F0D9FE36B12046FFF798FF2146D8
:103A80003046FFF759FF042084F8360084F835509B
:103A900084F83450F8BD00902146304600F001F81B
:103AA000E6E770B50C6B049DC98F0AE0E6688642B4
:103AB00004D1C4E904022383E56170BD491E89B2C3
:103AC00020340029F2D170BD10B50024064802E070
:103AD0002034E4B2001D01680029F9D00846FCF743
:103AE000B2FB2044C0B210BD5004002000200449A5
:103AF000024600BF41F82020401C0228FAD370473C
:103B00005004002000F01F0241090120C2F11F02F1
:103B10009040034A52F82130034342F82130704765
:103B20005004002000F01F0241090120C2F11F02D1
:103B30009040034A52F82130834342F821307047C5
:103B400050040020034A00211160034A11800180C3
:103B500070470000AC040020B00400202DE9FF4FA6
:103B600083B01F46DDE9109A93460646FCF760FBDA
:103B7000294C2178491C2170FCF75EFB358A06F13F
:103B800008001DB1B90525D5006831E0F80601D45B
:103B9000002300E01023CDE9009A5A4606F12000E8
:103BA0000499FFF717FEFCF743FB2178491E11F03B
:103BB000FF01217009D11949098831B1FCF73CFB9B
:103BC00007B0BDE8F04F00F0CFB807B0BDE8F04F48
:103BD000FCF732BB006801255B46D0E90181CDF8D6
:103BE00000903046049AFFF710FF6D1E4046ADB2BC
:103BF000002DF1D1FCF71CFB2178491E2170FCF748
:103C00001BFB380401D4FEF7DFFC0021AAF80010EA
:103C100007B0BDE8F08F0000C0040020840400203D
:103C20000020074B014600BF00EB400203EB82027D
:103C3000401C11811160C0B251604028F4D370471C
:103C40006436002010B5044690F83700FFF75AFF9D
:103C5000074994F8370009788842204603D1BDE827
:103C6000104000F023B8BDE8104000F003B8000099
:103C7000A604002090F837100B4A01EB410102EB3B
:103C8000810100220B8943B15B1C0B810B68C0E9E9
:103C900003320A6810610860704701230B81C2601B
:103CA00002610860486070476436002090F8371061
:103CB0000A4A01EB410102EB810100220B893BB171
:103CC0005B1C0B81C2604A680261D060486070472B
:103CD00001230B81C26002610860F7E764360020AF
:103CE00010B50289002A14D0012A12D00021022A1C
:103CF00007D0D0E90024D3681961C2E90314E26057
:103D000005E0D0E90023C2E90313C3E90321C0E9B8
:103D1000003210BD70B5054690F83700114900EB30
:103D2000400001EB8001D5E90302002442B10B8978
:103D30005B1E0B81D06090B102612C61EC6070BDA4
:103D400028B10A89521E0A8104610860F5E70C81D6
:103D50000C604C6095F83700FFF7E4FEEDE74A6031
:103D6000EBE700006436002010B5FCF761FA0B4A5F
:103D7000002111700B4A0A49116051F8902F521C12
:103D80000A6009490A68521C0A60084A4FF08051CB
:103D90001160BDE81040FCF74FBA0000A7040020F6
:103DA0009435002018050020EC04002004ED00E00C
:103DB000044810B50078012803D1FDF7F1FD024950
:103DC000086010BDC0040020B40400200A4810B5EB
:103DD000007800280ED1FDF7E3FD08490968401A74
:103DE00007490A68824200D2086006490A6882428E
:103DF00000D2086010BD0000C0040020B404002000
:103E0000B8040020BC04002070B5044613480078B4
:103E1000012822D1FCF70CFA2168054641B110486F
:103E2000814218D08A6D3AB1521E8A6513D103E0DF
:103E3000BDE87040FCF700BA208902280BD309487E
:103E4000007840B92046FFF74BFF2068416D09B963
:103E50000549096881652846EAE770BDC804002065
:103E6000D0340020C0040020C4040020034A0021F4
:103E70001160034A1180018070470000CC040020CB
:103E8000D00400202DE9F84F1E469046894604468E
:103E9000FCF7CEF90146208A04F108074FF0000B29
:103EA00078B1DFF890A008469AF80020521C8AF8F2
:103EB0000020FCF7C1F95FEA895018D53D893F68B9
:103EC00022E0256A681C0AD06D1CC4E9085808461F
:103ED000FCF7B2F9A6F800B02846BDE8F88F08460E
:103EE000FCF7AAF946F6C55030800020F5E73F6898
:103EF00001250023B9687F681A462046CDF8008066
:103F0000FFF783FD6D1EADB2002DF2D1246AFCF7E0
:103F10008FF99AF80020521E8AF80020FCF78CF9DD
:103F20005FEA094001D4FEF74FFBA6F800B0204637
:103F3000D3E70000C00400201CB57A4C7A4E2068FC
:103F4000450004E028466A460021FFF703F8307870
:103F50000128F7D16846FEF723FC744822680168FF
:103F6000914204D9B1FBF2F15FEA010903D1006883
:103F70000A21B0FBF1F9DFF8B8B1DFF8B88142F2FD
:103F8000107A0026FDF70CFD0190FCF751F96A4903
:103F90006A4C0A6822600E60FCF74EF96848236894
:103FA00002689A422BD96748824202D250460121C8
:103FB00015E06548824203D24FF47A700A210EE080
:103FC0006248824202D26420014608E06048824290
:103FD00003D20A204FF47A7101E001205146B2FB6E
:103FE000F1F15843B0FBF1F1AAEB0100594980B25D
:103FF000ABF800000A88824203D2088001E0ABF8E7
:1040000000A0FEF77DFC0024FCF712F9D8F8005060
:1040100024E000BFFCF70CF94F4F3978491C397088
:10402000FCF70AF9D5F89C00C5E92760FCF700F910
:104030003978491E11F0FF01397007D147490988C5
:1040400021B1FCF7F9F8FFF78FFE01E0FCF7F4F877
:1040500055F8A00F0444FCF7EBF8ED69FCF7ECF819
:10406000002DD7D1F4B13748844202D25546012001
:1040700015E03548844203D24FF47A750A200EE0E9
:104080003248844202D26425284608E030488442FF
:1040900003D20A254FF47A7001E001255046B4FBA3
:1040A000F0F701E000250127FCF7C2F8D8F800403E
:1040B0001CE000BFD4F8A0006843B0FBF7F080B26A
:1040C000504500D95046A4F88C00B4F88E108142B7
:1040D00001D2A4F88E0004F1AC026B46111D2046FB
:1040E000FEF760FEFCF7A4F8D4F8BC40FCF7A4F897
:1040F000002CDFD11A480178012903D106706846E7
:10410000FEF74EFBFDF74CFC0199401A15490A6871
:10411000824200D208606A4600214846FEF71AFF34
:1041200030E7000094A30008E4040020ACA30008DA
:10413000D4040020F0040020D8040020E004002073
:10414000DC040020801A060000093D00005A6202CB
:104150000084D717D6040020C00400208404002067
:10416000D2040020E804002030B51D4A89B00021A7
:1041700011601C4A11601C4A11601C4A11701C4AD3
:1041800011701C4A136843B11B4B1C4D1C682D68F1
:10419000AC4205D246F62C6108E046F62B6105E0FC
:1041A000174C25783F2D04D346F62A61018009B0CB
:1041B00030BD032505910691CDE9075011481B68D4
:1041C00012680068CDE90120CDE903312078009024
:1041D00000230D4A0DA11248FEF79AFBE7E7000005
:1041E000D8040020E0040020DC040020E4040020C7
:1041F000D204002098A30008A0A30008A8A30008E8
:104200004CA300089CA30008393F000875432F4FBA
:10421000532D4949492053746174205461736B00D4
:104220006439002038B50446022531B16B460222BC
:1042300000F08EFABDF8000028B184F83650204610
:10424000FFF768FD38BD032084F83600F7E700006B
:10425000074B0022C0F8B820196829B1C0F8BC107B
:10426000C1F8B80018607047C0F8BC20FAE7000039
:10427000F0040020D0E92E2100234AB181B1C2F818
:10428000BC10C1F8B820C0F8BC30C0F8B8307047D6
:10429000054A116009B1C1F8B830C0F8BC307047A8
:1042A000C2F8BC30F1E70000F0040020044A00210D
:1042B0001160044A1180044A1160018070470000B7
:1042C000F0040020F4040020EC04002070B5002568
:1042D000056085604560C56005614561044685618E
:1042E00027A0C4E907506562A562E5622564E5651B
:1042F000A4F86050294604F16400FFF763FA65678B
:10430000A567C4F88050A4F888500020C4F88450F1
:1043100004EB8001401CCD6710F0FF00F8D065640D
:10432000C4F8A450C4F8A850A56384F88A50C4F80F
:10433000B050C4F8AC50A5874FF00040C4E9120556
:1043400025656565A565A4F88C50A4F88E50C4F861
:104350009050C4F894503434FDF722FBC4E9190599
:10436000C4F8805004F8015B402004F8015B04F8B5
:10437000015B04F8810B04A020C4C4E9005070BDA7
:104380003F5461736B000000200000002DE9FC5FCA
:104390009946DDE90C7692468B460546FBF748FFC9
:1043A000324C2178491C2170FBF746FF0DB930488B
:1043B00005680020308095F83600DFF8B8800828BE
:1043C0003CD2DFE800F004041E1E04041E1ECDE9EA
:1043D00000764B465246594605F16400FFF7FAF95C
:1043E000FBF726FF2178491E11F0FF01217021D132
:1043F000B8F80010F1B1FBF71FFFBDE8FC5FFFF755
:10440000B3BC95F834000228E1D153465A462946F8
:1044100000200097FFF7F9FAFBF70AFF2178491E01
:104420002170FBF709FF5FEA09401CD4BDE8FC5F7F
:10443000FEF7CAB8BDE8FC5FFBF7FEBEFBF7F8FE6F
:104440002178491E11F0FF01217007D1B8F8001042
:1044500021B1FBF7F1FEFFF787FC01E0FBF7ECFE73
:1044600046F62D603080BDE8FC9F0000C0040020AF
:10447000140500208404002010B5044600F0D4F98F
:1044800094F83600400704D42046BDE81040FFF7FA
:10449000D9BB10BD70B50D460446FBF7C9FE00261A
:1044A0002E8094F8361008294AD2DFE801F004047F
:1044B00004040A23333DFBF7BFFE47F25310288064
:1044C00024E0224D2978491C2970FBF7B5FE94F8A9
:1044D0008A00401E10F0FF0084F88A0004D184F89E
:1044E00036602046FFF7C8FFFBF7A2FE2978491E79
:1044F000297009E094F88A10491E11F0FF0184F830
:104500008A1001D1012118E0FBF796FEBDE870404A
:10451000FEF75AB894F88A10491E11F0FF0184F88A
:104520008A10F1D1022108E094F88A10491E11F096
:10453000FF0184F88A10E7D1032184F83610E3E7FD
:10454000FBF77AFE46F62D60288070BDC00400207F
:10455000044808B50068FEF77FFB69460020FEF7B7
:10456000B9FA08BD140500202DE9F84F9846154604
:104570008A460646FBF75CFE3D4C2178491C2170BB
:10458000FBF75AFE0EB93B48066800203A4F3564E7
:10459000A8F8000096F8360046F6C55908284ED20D
:1045A000DFE800F02626222226262222FBF744FE00
:1045B000FFF7DAFB02E000BFFBF73EFEA8F8009031
:1045C0000020BDE8F88F6D1C7564FBF731FE217883
:1045D000491E11F0FF0121702ED1398861B3FBF71C
:1045E0002BFEFFF7C1FB40E096F8340007280ED001
:1045F000756C681CE7D1FBF71BFE2178491E11F092
:10460000FF012170D8D139880029D5D0CEE7002309
:104610001A46314618460095FFF7F7F9756CFBF717
:1046200007FE2178491E2170FBF706FE5FEA0A406B
:104630001BD4FDF7C9FF18E0FBF7FEFD15E0FBF703
:10464000F7FD2178491E11F0FF01217006D139884C
:1046500021B1FBF7F1FDFFF787FB01E0FBF7ECFD74
:1046600046F62D60A8F8000000252846A9E70000BE
:10467000C004002014050020840400202DE9F0412E
:104680000F460446FBF7D4FD244904B90C680968B9
:10469000234D8C4206D1297821B1FBF7CDFD46F69A
:1046A000635038E00021398094F83610012608293B
:1046B0002DD2DFE801F004171F21272727272978AB
:1046C000491C2970FBF7B8FD042084F8360084F8F3
:1046D0008A602046FFF71EFBFBF7AAFD2978491EDA
:1046E000297001E0052108E0FBF7A6FDBDE8F041D7
:1046F000FDF76ABF062100E0072184F8361084F830
:104700008A60F1E714F88A1F491C2170ECE7FBF777
:1047100093FD46F62D603880BDE8F0811405002039
:10472000C004002010B500200146074C074B06E0EE
:1047300004EBC002401C11609180D18080B21A88C5
:104740009042F5D310BD0000C031002054A30008F2
:10475000F0B5324C47F27E2625680024042A08D0A2
:10476000B1B32E4E082A36680E440BD0C0E913614F
:1047700015E04A1B521E12F5803F2AD8521CC0E990
:1047800013120CE0826C0A44571B7F1E8F4201D229
:10479000C26400E0C664C16C4A1B02658164204AA1
:1047A000C16C1288B1FBF2F602FB16111D4A89B2E8
:1047B00002EBC102918889B11168F1B1CE6C761B10
:1047C0000E65076DB74212D94E6966B13146F5E7FD
:1047D000FFE7C4640465C4611E80F0BD4461846168
:1047E000012110600BE0C0E90541486105E08D69D9
:1047F00075B1C0E90515686188619188491C91808F
:10480000D58889B28D4200D2D180C2611C80F0BDB2
:10481000C0E9051488611060EFE70000F80400208B
:1048200054A30008C031002010B5C269002A15D079
:10483000002101651368834204D14369136033B1D9
:10484000996104E0D0E90534636103B19C61416181
:104850008161C161C1649088401E908010BD0000DC
:1048600010B500200446064B064A04E003EBC001E5
:10487000401CCC8080B211888842F7D310BD000064
:10488000C031002054A300082DE9F05FFBF7D0FCF5
:104890004B4D2978491C2970FBF7CEFCFDF780F8B9
:1048A000DFF8208107464849D8F800004FF000099A
:1048B000401CC8F8000009884FF0030AB0FBF1F271
:1048C00001FB1200414980B24FF0040B51F8304017
:1048D000DCB394F836006669082851D2DFE800F0AE
:1048E0005004501150285036E06CD8F80010421A8D
:1048F0002265884246D184F836902046FFF7BCFDF9
:104900003EE0E06CD8F80010421A2265884239D1A6
:10491000C4F85C90A4F86090FDF742F8206420464B
:10492000FFF745F82046FFF7A7FD84F8369023E00F
:10493000E06CD8F80010421A2265884222D184F82F
:1049400036B02046FFF770FF1AE01BE0E06CD8F8A5
:104950000010421A2265884214D1C4F85C90A4F871
:104960006090FDF71DF820642046FFF720F82046F0
:10497000FFF75AFF84F836B084F835A084F83490F5
:104980003446A5E7FDF70CF81149C01B0A688242BE
:1049900000D20860FBF74CFC2978491E11F0FF019A
:1049A000297008D10B49098829B1FBF745FCBDE8FE
:1049B000F05FFFF7D9B9BDE8F05FFBF73DBC000041
:1049C000C0040020F804002054A30008C0310020D7
:1049D000FC040020840400201CB5084C00216B4618
:1049E00001AA0846FEF740F9BDF800000028F5D1FD
:1049F00020780128F2D1FFF747FFEFE77904002084
:104A000030B504461A4889B000250560194805608C
:104A1000FFF788FE1848016841B11849184B0A6829
:104A20001B689A4205D247F2132008E047F2122091
:104A300005E0144A13783F2B04D347F2112020805D
:104A400009B030BD0B2305950695CDE907340E4B13
:104A5000096800681B68CDE90103CDE903151078EA
:104A600000900023094A0AA10E48FDF751FFE7E72D
:104A7000F8040020FC040020B0A30008B8A300083C
:104A8000A8A300084DA30008B4A30008D949000852
:104A900075432F4F532D494949205469636B205466
:104AA00061736B00283A002030B52A4A89B0002192
:104AB000294B1160294C2A4A1D681DB12468B4FB9A
:104AC000F5F303E023680A24B3FBF4F313601A46FA
:104AD000244B274D274C1A60234A1160234A11604A
:104AE000002206E005EBC203521C9980D98092B2E5
:104AF000196023889A42F5D31F4B1A6842B11F4AA6
:104B00001F4D14682D68AC4205D247F2483108E0C9
:104B100047F2473105E01B4C25783F2D04D347F27F
:104B20004631018009B030BD0B2505910691CDE9D4
:104B300007501068144A1B681268CDE90301CDE9DB
:104B40000132207800900023104A11A11648FDF789
:104B5000DFFEE7E700050020C4A30008ACA30008BF
:104B60000C05002010050020080500200405002089
:104B70004834002056A30008C8A30008D0A30008AA
:104B8000A8A300084EA30008CCA300086D4C0008A1
:104B900075432F4F532D4949492054696D65722043
:104BA0005461736B00000000EC3A002070B50222E3
:104BB00080F82A20204A012914681ED0016AE1B138
:104BC0001E4A214481611288B1FBF2F302FB1312E9
:104BD0001B4B92B203EBC202002315687DB1091B87
:104BE000C1611168D1B18D692D1BCD61C669AE421D
:104BF0000ED90D6945B12946F5E7416AE0E7036141
:104C00004361106001200BE0C0E90431086105E058
:104C10004C6964B1C0E90414206148619088401C6B
:104C20009080D18880B2814200D2D08070BDC0E92E
:104C3000041348611060F1E70805002056A300083E
:104C40004834002010B500200446064B064A04E014
:104C500003EBC001401CCC8080B211888842F7D39E
:104C600010BD00004834002056A300081CB5DFF832
:104C70009090DFF890A0244DDFF890B000216B46B3
:104C800001AA0846FDF7F0FF6846FDF7DBFCFCF7DC
:104C900087FE064628684FF00308401C2860B9F8D4
:104CA0000010B0FBF1F201FB120080B25AF8304064
:104CB000C4B1A06929682769884213D1204600F051
:104CC00027F8208D022808D084F82A80A26812B123
:104CD0002046E16890473C46EAE701212046FFF77D
:104CE00065FFF3E7FCF75CFE841B6846FDF7F8FC04
:104CF000DBF80010A142C1D2CBF80040BEE70000B3
:104D000056A30008483400200805002004050020B0
:104D100010B5104A81691288B1FBF2F302FB13113E
:104D20000D4A89B202EBC102002314680169844272
:104D300003D1116029B14B6103E04469216101B1E4
:104D40004C61012180F82A10036143619088401E64
:104D5000908010BD56A3000848340020034A5168D3
:104D600021F44041014351607047000000100240AF
:104D7000044A0029116901D0014300E08143116117
:104D80007047000000100240044A0029916901D0D8
:104D9000014300E081439161704700000010024030
:104DA000044A0029D16801D0014300E08143D16069
:104DB000704700000010024030B51F494A6812F0E9
:104DC0000C031E4A03D0042B01D0082B21D0026013
:104DD0004A680F231A4C03EA1212A35C0268DA40F5
:104DE00042604B68072505EA1323E35C22FA03F3CC
:104DF00083604B6805EAD323E35CDA40C26049680C
:104E0000032303EA9131231F595CB2FBF1F10161E5
:104E100030BD4A684B6802F470124FF0020413F47C
:104E2000803F04EB924202D04B689B0301D5054BB7
:104E300000E0024B5A43CAE70010024000127A0019
:104E40002405002000093D00704700000CB500213A
:104E5000264801910091026842F4803202604FF4CA
:104E6000A063026802F400320092019A521C01927F
:104E7000009A12B9019A9A42F3D10268920333D58B
:104E8000012100911A490A6842F010020A600A687A
:104E900022F003020A600A6842F002020A604168D6
:104EA000416041684160416841F48061416041680E
:104EB00021F47C114160416841F4E81141600168CE
:104EC00041F08071016001688901FCD5416821F0E1
:104ED00003014160416841F0020141604168C1F352
:104EE00081010229FAD10CBD00910CBD00100240D5
:104EF00000200240F0B5012700244B1E15E00027DA
:104F00000D1B3A466D1E0DE000EB420E30F81260AC
:104F1000BEF802C0664504D920F812C00127AEF8D9
:104F20000260521C9542EFDC641C9C4201DA002FA7
:104F3000E5D1F0BD4FF0E0210428086903D020F04E
:104F400004000861704740F00400FAE7064810B515
:104F50000078012807D1FDF7DFFAFEF7F3F8BDE886
:104F60001040FDF7E9BA10BD790400200F4810B5D4
:104F7000016841F00101016041680D4A1140416042
:104F800001680C4A11400160016821F48021016030
:104F9000416821F4FE0141604FF41F018160FFF779
:104FA00055FF05494FF00060086010BD0010024039
:104FB0000000FFF8FFFFF6FE08ED00E070B5FDF71A
:104FC000ABFA164C40F22551204600F071F8E0B1E2
:104FD000204600F0FBF8C2B2114801880B0414D43B
:104FE0004C044FF0000304D50A2A0DD141F40041CE
:104FF00011E00D2A0DD0C1F30D040A4D491C89B2F0
:105000002A550180C72900D90380BDE87040FDF70B
:1050100093BA41F480410180F7E700000038014075
:1050200038050020B03B00200029818902D041F4DE
:10503000005101E021F4005181817047174910B5FA
:1050400088420AD101218C032046FFF7A9FE2046A1
:10505000BDE810400021FFF7A3BE1149884202D1EC
:1050600001214C0410E00F49884202D101218C0437
:105070000AE00D49884202D10121CC0404E00B4929
:1050800088420AD101210C052046FFF771FE204617
:10509000BDE810400021FFF76BBE10BD0038014095
:1050A0000044004000480040004C004000500040D8
:1050B00030B501F01F0201240025C1F3421304FAA8
:1050C00002F2012B0FD0022B0FD0838A4FEA11215D
:1050D0000088134204FA01F400EA040001D000B190
:1050E0000125284630BD8389F0E7038AEEE710B535
:1050F000C1F3421301F01F040121A140012B07D08D
:10510000022B07D01430002A026805D00A4304E0BD
:105110000C30F8E71030F6E78A43026010BD00005B
:1051200030B50446008A85B00D464CF6FF71084044
:10513000E98801432182A1894EF6F3100140A88835
:105140002A8910436A890A431043A081A08A4FF636
:10515000FF410840A9890143A1826846FFF72CFE60
:105160001948844201D1039800E00298A1890904FA
:1051700000EBC00101EB0010296801D5490000E0F7
:105180008900B0FBF1F06422B0FBF2F109010B09D8
:105190006FF018056B4300EB8300A3891D044FF0EB
:1051A000320306D503EBC000B0FBF2F000F00700BD
:1051B00005E003EB0010B0FBF2F000F00F00084335
:1051C000208105B030BD0000003801408088C0F368
:1051D00008007047FEE7490050EAC12018BF0420CC
:1051E0004A0D18BF40F0010040F2FF72B2EB515F70
:1051F00008BF40F00200012808BF05207047303882
:105200000A2801D201207047002070477047000033
:105210002DE9FE4F07460E460025684600F0ECFCDF
:1052200000246FF00F0AE8464FF0010957F82400F8
:1052300056F82410401A00D5404202F0A5FC514611
:1052400002F043FE58F8241011F0FF4F0BD002F08B
:105250009DFB4FF07E5102F08FFD0A4920F0004087
:10526000884205DC07E0084908440849884202D31F
:1052700009FA04F00543641C032CD7DB2846BDE87B
:10528000FE8F0000295C0F3E666666C19A99D900C0
:105290000EB5DFF858804FF48047002502AC4FF47C
:1052A000FA79002639464046FCF7D5FB0022CDE9C5
:1052B0000054192311461046FDF7A2FE3946404618
:1052C000FCF7C7FB0022CDE9005419231146104614
:1052D000FDF796FE761C0A2EE4DB0022CDE9005491
:1052E0004B4611461046FDF78BFEDAE700100140F1
:1052F0000A20401E80B2FCD27047000010B56FF04B
:105300000400FFF717FE10481049134C02681048BC
:10531000B2FBF1F30370B2FBF1F30E4A11681268AD
:10532000B4FBF1F159434FF47A73B3FBF2F24280CC
:105330004FF0E020026942F002020261416101691E
:1053400041F00101016110BD0004002000127A004B
:1053500034050020ACA3000840420F0070B504469D
:105360000C48007878B10C48007860B90B4D68881B
:10537000844203D3B4FBF0F000F012F86888B4FB69
:10538000F0F100FB11444FF47A706043BDE87040C7
:1053900000F00CB8790400207804002034050020C7
:1053A00008B56A460821FDF7D5FD08BDF8B54FF0F0
:1053B000E026002477690D49097800FB01F568466D
:1053C000FDF740F9B069B1698142FCD002D2A0EB8F
:1053D000010002E0A7EB0102104404440846AC427D
:1053E000F1D36846FDF77CF9F8BD000034050020D4
:1053F00008B560B120208DF8000028208DF801004C
:1054000030208DF8020038208DF8030004E0A3223C
:1054100004216846FBF70AF96A46042140F69E20FB
:1054200001F0E4FC01F0A2F908BD00003EB504461D
:1054300002208DF80000CA208DF80100E3208DF8CD
:10544000020009208DF803006A460421682001F05B
:10545000CDFCA3208DF80000610609D5C0218DF890
:105460000110C8218DF80210C2218DF8031005E04B
:105470008DF801008DF802008DF8030014F4C07F50
:1054800009D0C4218DF80410CC218DF80510C62157
:105490008DF8061005E08DF804008DF805008DF8F4
:1054A00006008DF808008DF807008DF809006A469F
:1054B0000A2140F6A72001F099FCA0074FF0D8057B
:1054C00003D020208DF8000001E08DF800506A46DE
:1054D000012140F6B62001F089FCA00601D501208B
:1054E00000E0002000F08EF814F4C07F1ED0E0052C
:1054F0000AD5B2208DF800008B208DF80100B6206F
:105500008DF802009B2009E0B0208DF8000080207B
:105510008DF80100B4208DF8020090208DF8030072
:105520006A46042140F6A22001F060FCE1074FF436
:105530000B6022D0F8218DF800106A46012101F09D
:1055400055FCFA21072000F097FA072000F062FAD4
:10555000012000F07FFA642000F022FB4FF4FA7083
:1055600000F02EFBC821254800F01CFA282000F08E
:1055700031FA0A2000F03EFA05E08DF800506A4644
:10558000012101F033FCA00703D5D9208DF80000DC
:1055900001E08DF800506A46012140F23D7001F0B3
:1055A00025FC600701D5012000E0002000F048F84C
:1055B000E00601D5012000E00020FFF719FF104DA3
:1055C00044F00800688101F0D1F80020A87360065B
:1055D00001D50620A87314F4C07F02D0A87B801DDB
:1055E000A87314F0140F02D0A87B1030A873A00782
:1055F00002D0A87B001DA87300203EBD09E3CA02AB
:10560000202000200EB54FF4976310B106A107C902
:1056100001E008A207CA8DE807006A46092118467A
:1056200001F0E4FB0EBD0000B8AAB38DB4980D35AF
:105630005D000000B8AAAAAAB088C3C5C7000000D0
:1056400008B560B1C0208DF80000C2208DF80100BF
:10565000C4208DF80200C6208DF8030004E08B22E0
:1056600004216846FAF7E2FF6A46042140F69820D2
:1056700001F0BCFB01F07AF808BD0000C8234FF42C
:105680008062024940F6F63000F09ABF06970008A3
:105690002DE9FF41044603A800F048FEBDF80C00C8
:1056A000410CC3032F48028902F00300550754F848
:1056B000200000D54042C2F3C105960654F825509B
:1056C00000D56D42C2F38116D20554F8264000D5AC
:1056D0006442A0FB0367C21702FB037200FB0120B8
:1056E000820042EA9670A5FB0367EA1702FB037289
:1056F00005FB0122950045EA9672A4FB0367E517B6
:1057000005FB037304FB01318B0043EA9671030E22
:105710008DF80030030C8DF80130030A8DF802304B
:105720008DF80300100E8DF80400100C8DF80500A4
:10573000100A8DF80600080E8DF80800080C8DF888
:105740000900080A8DF80A008DF807208DF80B1063
:105750006A460C214FF4257001F048FB04B0BDE807
:10576000F08100002020002030B5044613A285B04F
:1057700007CA8DE807004FF0FF35C82C16D8C8209F
:10578000B0FBF4F1491E080A8DF80C008DF80D10DD
:1057900003AA022140F2162001F028FB30B96A4624
:1057A0000C2140F6C12001F021FB10B1284605B0C4
:1057B00030BD054884810020F9E70000FEF2ABC44B
:1057C000AAF1DFDFBBAFDFDF20200020F8B53049D2
:1057D000098901F0030250F822404A0700D56442CB
:1057E000C1F3C1028B0650F8222000D55242C1F30A
:1057F000811350F82330C80500D55B42254984FB4E
:105800000140850045EA947082FB0142A40F44EAFE
:10581000820483FB0121950F45EA8105010E8DF875
:105820000010010C8DF80110010A8DF802108DF89E
:1058300003006A4604214FF4747001F0D7FA4FF068
:10584000FF3688B9200E8DF80000200C8DF801007D
:10585000200A8DF802008DF803406A4604214FF4B7
:10586000757001F0C3FA08B13046F8BD280E8DF806
:105870000000280C8DF80100280A8DF802008DF830
:1058800003506A4604214FF4767001F0AFFAF8BD78
:105890002020002009E3CA022DE9FF4104463CA074
:1058A00004F00303006802903AA0006803903AA055
:1058B00006683AA0056802A8C15C8DF80010C4F320
:1058C000C101425C8DF80120C4F38112805C8DF827
:1058D000020003A8C35C8DF80430415C8DF805100C
:1058E000805C8DF806006A46032140F2264001F0F4
:1058F0007DFA4FF0FF37E0BB01AA032140F22A40B6
:1059000001F074FAA8BBCDE9006560070BD59DF8DE
:10591000000040F001008DF800009DF8040040F008
:1059200001008DF80400A0060BD59DF8010040F0A1
:1059300001008DF801009DF8050040F001008DF890
:105940000500E0050BD59DF8020040F001008DF840
:1059500002009DF8060040F001008DF806006A463E
:1059600003214FF4886001F041FA10B901AA032124
:1059700000E004E040F2314001F038FA18B1384656
:1059800004B0BDE8F081064804810020F8E700007B
:105990004CCD6C000CC92C003656760026466600AD
:1059A000202000204FF47A7290FBF2F008B54843B3
:1059B000010E8DF80010010C8DF80110010A8DF810
:1059C00002108DF803006A4604214FF4AE7001F016
:1059D0000DFA08BD0521B0FBF1F008B5010A8DF8FC
:1059E00000108DF801006A4602214FF4AD7001F0FD
:1059F000FDF908BD0521B0FBF1F008B5010A8DF8ED
:105A000000108DF801006A4602214FF4AC7001F0DD
:105A1000EDF908BD08B500218DF80010C10702D0CE
:105A200030218DF80010810705D59DF8001041F058
:105A30000C018DF80010400705D59DF8000040F0DE
:105A400003008DF800006A4601214FF4A47001F0B4
:105A5000CDF908BD08B560B1042800D90420401E66
:105A60008DF800006A46012140F24F1001F0BEF9A6
:105A700008BD0120F3E700002DE9FC410546400781
:105A80004FF0FF367CD0B1F5C86F79D8084602F0E8
:105A900093F83E4901F07AFF074601A800F028FC80
:105AA0009DF80400022806D004280DD008282ED026
:105AB000102865D134E00E21384602F006FA02F0D3
:105AC00043F884B2324907E00D21384602F0FDF96F
:105AD00002F03AF82F4984B2384602F081F802F019
